{
	"VotDao.sol": {
		"VoteDao": {
			"abi": [
				{
					"inputs": [],
					"stateMutability": "nonpayable",
					"type": "constructor"
				},
				{
					"anonymous": false,
					"inputs": [
						{
							"indexed": true,
							"internalType": "uint256",
							"name": "pollingId",
							"type": "uint256"
						},
						{
							"indexed": true,
							"internalType": "address",
							"name": "voter",
							"type": "address"
						},
						{
							"indexed": false,
							"internalType": "string",
							"name": "choice",
							"type": "string"
						},
						{
							"indexed": false,
							"internalType": "uint256",
							"name": "createdAt",
							"type": "uint256"
						}
					],
					"name": "Voted",
					"type": "event"
				},
				{
					"anonymous": false,
					"inputs": [
						{
							"indexed": true,
							"internalType": "uint256",
							"name": "pollingId",
							"type": "uint256"
						},
						{
							"indexed": false,
							"internalType": "string",
							"name": "title",
							"type": "string"
						},
						{
							"indexed": false,
							"internalType": "uint256",
							"name": "expirationDate",
							"type": "uint256"
						},
						{
							"indexed": false,
							"internalType": "uint256",
							"name": "createdAt",
							"type": "uint256"
						}
					],
					"name": "pollingCreated",
					"type": "event"
				},
				{
					"inputs": [],
					"name": "admin",
					"outputs": [
						{
							"internalType": "address",
							"name": "",
							"type": "address"
						}
					],
					"stateMutability": "view",
					"type": "function"
				},
				{
					"inputs": [
						{
							"internalType": "string",
							"name": "_title",
							"type": "string"
						},
						{
							"internalType": "uint256",
							"name": "_durationInSecond",
							"type": "uint256"
						},
						{
							"internalType": "string",
							"name": "_imageHash",
							"type": "string"
						},
						{
							"internalType": "string",
							"name": "_description",
							"type": "string"
						}
					],
					"name": "createPoll",
					"outputs": [],
					"stateMutability": "nonpayable",
					"type": "function"
				},
				{
					"inputs": [],
					"name": "getAllPollings",
					"outputs": [
						{
							"internalType": "uint256[]",
							"name": "active",
							"type": "uint256[]"
						},
						{
							"internalType": "uint256[]",
							"name": "ended",
							"type": "uint256[]"
						}
					],
					"stateMutability": "view",
					"type": "function"
				},
				{
					"inputs": [
						{
							"internalType": "uint256",
							"name": "_id",
							"type": "uint256"
						}
					],
					"name": "getPollDetailes",
					"outputs": [
						{
							"internalType": "string",
							"name": "title",
							"type": "string"
						},
						{
							"internalType": "uint256",
							"name": "expirationDate",
							"type": "uint256"
						},
						{
							"internalType": "string",
							"name": "imageHash",
							"type": "string"
						},
						{
							"internalType": "string",
							"name": "description",
							"type": "string"
						},
						{
							"internalType": "uint256",
							"name": "rejectVotes",
							"type": "uint256"
						},
						{
							"internalType": "uint256",
							"name": "acceptVotes",
							"type": "uint256"
						},
						{
							"internalType": "uint256",
							"name": "notInterestedVotes",
							"type": "uint256"
						}
					],
					"stateMutability": "view",
					"type": "function"
				},
				{
					"inputs": [
						{
							"internalType": "uint256",
							"name": "pollingId",
							"type": "uint256"
						}
					],
					"name": "getVotes",
					"outputs": [
						{
							"components": [
								{
									"internalType": "address",
									"name": "voter",
									"type": "address"
								},
								{
									"internalType": "string",
									"name": "choice",
									"type": "string"
								},
								{
									"internalType": "uint256",
									"name": "time",
									"type": "uint256"
								}
							],
							"internalType": "struct VoteDao.Vote[]",
							"name": "",
							"type": "tuple[]"
						}
					],
					"stateMutability": "view",
					"type": "function"
				},
				{
					"inputs": [
						{
							"internalType": "uint256",
							"name": "pollingId",
							"type": "uint256"
						}
					],
					"name": "pollExpirationStatus",
					"outputs": [
						{
							"internalType": "bool",
							"name": "",
							"type": "bool"
						}
					],
					"stateMutability": "view",
					"type": "function"
				},
				{
					"inputs": [],
					"name": "pollingIdCounter",
					"outputs": [
						{
							"internalType": "uint256",
							"name": "_value",
							"type": "uint256"
						}
					],
					"stateMutability": "view",
					"type": "function"
				},
				{
					"inputs": [
						{
							"internalType": "uint256",
							"name": "pollingId",
							"type": "uint256"
						},
						{
							"internalType": "string",
							"name": "_choice",
							"type": "string"
						}
					],
					"name": "vote",
					"outputs": [],
					"stateMutability": "nonpayable",
					"type": "function"
				}
			],
			"devdoc": {
				"kind": "dev",
				"methods": {},
				"version": 1
			},
			"evm": {
				"assembly": "    /* \"VotDao.sol\":115:6230  contract VoteDao{... */\n  mstore(0x40, 0x80)\n    /* \"VotDao.sol\":268:318  constructor(){... */\n  callvalue\n  dup1\n  iszero\n  tag_1\n  jumpi\n  0x00\n  dup1\n  revert\ntag_1:\n  pop\n    /* \"VotDao.sol\":300:310  msg.sender */\n  caller\n    /* \"VotDao.sol\":292:297  admin */\n  0x01\n  0x00\n    /* \"VotDao.sol\":292:310  admin = msg.sender */\n  0x0100\n  exp\n  dup2\n  sload\n  dup2\n  0xffffffffffffffffffffffffffffffffffffffff\n  mul\n  not\n  and\n  swap1\n  dup4\n  0xffffffffffffffffffffffffffffffffffffffff\n  and\n  mul\n  or\n  swap1\n  sstore\n  pop\n    /* \"VotDao.sol\":115:6230  contract VoteDao{... */\n  dataSize(sub_0)\n  dup1\n  dataOffset(sub_0)\n  0x00\n  codecopy\n  0x00\n  return\nstop\n\nsub_0: assembly {\n        /* \"VotDao.sol\":115:6230  contract VoteDao{... */\n      mstore(0x40, 0x80)\n      callvalue\n      dup1\n      iszero\n      tag_1\n      jumpi\n      0x00\n      dup1\n      revert\n    tag_1:\n      pop\n      jumpi(tag_2, lt(calldatasize, 0x04))\n      shr(0xe0, calldataload(0x00))\n      dup1\n      0x648a2e92\n      gt\n      tag_11\n      jumpi\n      dup1\n      0x648a2e92\n      eq\n      tag_7\n      jumpi\n      dup1\n      0x8cb0f49d\n      eq\n      tag_8\n      jumpi\n      dup1\n      0xf851a440\n      eq\n      tag_9\n      jumpi\n      dup1\n      0xff981099\n      eq\n      tag_10\n      jumpi\n      jump(tag_2)\n    tag_11:\n      dup1\n      0x24108475\n      eq\n      tag_3\n      jumpi\n      dup1\n      0x408f5a7f\n      eq\n      tag_4\n      jumpi\n      dup1\n      0x4248bcf3\n      eq\n      tag_5\n      jumpi\n      dup1\n      0x5c3d868f\n      eq\n      tag_6\n      jumpi\n    tag_2:\n      0x00\n      dup1\n      revert\n        /* \"VotDao.sol\":3705:4922  function vote(uint pollingId, string memory _choice) public pollingExist(pollingId) notExpired(pollingId) hasNotVoted(pollingId) {... */\n    tag_3:\n      tag_12\n      0x04\n      dup1\n      calldatasize\n      sub\n      dup2\n      add\n      swap1\n      tag_13\n      swap2\n      swap1\n      tag_14\n      jump\t// in\n    tag_13:\n      tag_15\n      jump\t// in\n    tag_12:\n      stop\n        /* \"VotDao.sol\":5265:6186  function getAllPollings() public view returns(uint[] memory active,uint[] memory ended){... */\n    tag_4:\n      tag_16\n      tag_17\n      jump\t// in\n    tag_16:\n      mload(0x40)\n      tag_18\n      swap3\n      swap2\n      swap1\n      tag_19\n      jump\t// in\n    tag_18:\n      mload(0x40)\n      dup1\n      swap2\n      sub\n      swap1\n      return\n        /* \"VotDao.sol\":188:228  Counters.Counter public pollingIdCounter */\n    tag_5:\n      tag_20\n      tag_21\n      jump\t// in\n    tag_20:\n      mload(0x40)\n      tag_22\n      swap2\n      swap1\n      tag_23\n      jump\t// in\n    tag_22:\n      mload(0x40)\n      dup1\n      swap2\n      sub\n      swap1\n      return\n        /* \"VotDao.sol\":5084:5251  function pollExpirationStatus (uint pollingId)public view returns (bool){... */\n    tag_6:\n      tag_24\n      0x04\n      dup1\n      calldatasize\n      sub\n      dup2\n      add\n      swap1\n      tag_25\n      swap2\n      swap1\n      tag_26\n      jump\t// in\n    tag_25:\n      tag_27\n      jump\t// in\n    tag_24:\n      mload(0x40)\n      tag_28\n      swap2\n      swap1\n      tag_29\n      jump\t// in\n    tag_28:\n      mload(0x40)\n      dup1\n      swap2\n      sub\n      swap1\n      return\n        /* \"VotDao.sol\":3035:3681  function getPollDetailes(uint _id)public view pollingExist(_id) returns(... */\n    tag_7:\n      tag_30\n      0x04\n      dup1\n      calldatasize\n      sub\n      dup2\n      add\n      swap1\n      tag_31\n      swap2\n      swap1\n      tag_26\n      jump\t// in\n    tag_31:\n      tag_32\n      jump\t// in\n    tag_30:\n      mload(0x40)\n      tag_33\n      swap8\n      swap7\n      swap6\n      swap5\n      swap4\n      swap3\n      swap2\n      swap1\n      tag_34\n      jump\t// in\n    tag_33:\n      mload(0x40)\n      dup1\n      swap2\n      sub\n      swap1\n      return\n        /* \"VotDao.sol\":1809:3027  function createPoll(string memory _title, uint _durationInSecond, string memory _imageHash, string memory _description) public onlyAdmin{... */\n    tag_8:\n      tag_35\n      0x04\n      dup1\n      calldatasize\n      sub\n      dup2\n      add\n      swap1\n      tag_36\n      swap2\n      swap1\n      tag_37\n      jump\t// in\n    tag_36:\n      tag_38\n      jump\t// in\n    tag_35:\n      stop\n        /* \"VotDao.sol\":241:261  address public admin */\n    tag_9:\n      tag_39\n      tag_40\n      jump\t// in\n    tag_39:\n      mload(0x40)\n      tag_41\n      swap2\n      swap1\n      tag_42\n      jump\t// in\n    tag_41:\n      mload(0x40)\n      dup1\n      swap2\n      sub\n      swap1\n      return\n        /* \"VotDao.sol\":4930:5048  function getVotes(uint pollingId)public view returns(Vote[] memory){... */\n    tag_10:\n      tag_43\n      0x04\n      dup1\n      calldatasize\n      sub\n      dup2\n      add\n      swap1\n      tag_44\n      swap2\n      swap1\n      tag_26\n      jump\t// in\n    tag_44:\n      tag_45\n      jump\t// in\n    tag_43:\n      mload(0x40)\n      tag_46\n      swap2\n      swap1\n      tag_47\n      jump\t// in\n    tag_46:\n      mload(0x40)\n      dup1\n      swap2\n      sub\n      swap1\n      return\n        /* \"VotDao.sol\":3705:4922  function vote(uint pollingId, string memory _choice) public pollingExist(pollingId) notExpired(pollingId) hasNotVoted(pollingId) {... */\n    tag_15:\n        /* \"VotDao.sol\":3778:3787  pollingId */\n      dup2\n        /* \"VotDao.sol\":1365:1373  pollings */\n      0x02\n        /* \"VotDao.sol\":1365:1384  pollings[pollingId] */\n      0x00\n        /* \"VotDao.sol\":1374:1383  pollingId */\n      dup3\n        /* \"VotDao.sol\":1365:1384  pollings[pollingId] */\n      dup2\n      mstore\n      0x20\n      add\n      swap1\n      dup2\n      mstore\n      0x20\n      add\n      0x00\n      keccak256\n        /* \"VotDao.sol\":1365:1391  pollings[pollingId].exists */\n      0x08\n      add\n      0x00\n      swap1\n      sload\n      swap1\n      0x0100\n      exp\n      swap1\n      div\n      0xff\n      and\n        /* \"VotDao.sol\":1357:1417  require(pollings[pollingId].exists,\"Polling dose not exist\") */\n      tag_49\n      jumpi\n      mload(0x40)\n      0x08c379a000000000000000000000000000000000000000000000000000000000\n      dup2\n      mstore\n      0x04\n      add\n      tag_50\n      swap1\n      tag_51\n      jump\t// in\n    tag_50:\n      mload(0x40)\n      dup1\n      swap2\n      sub\n      swap1\n      revert\n    tag_49:\n        /* \"VotDao.sol\":3800:3809  pollingId */\n      dup3\n        /* \"VotDao.sol\":1515:1523  pollings */\n      0x02\n        /* \"VotDao.sol\":1515:1534  pollings[pollingId] */\n      0x00\n        /* \"VotDao.sol\":1524:1533  pollingId */\n      dup3\n        /* \"VotDao.sol\":1515:1534  pollings[pollingId] */\n      dup2\n      mstore\n      0x20\n      add\n      swap1\n      dup2\n      mstore\n      0x20\n      add\n      0x00\n      keccak256\n        /* \"VotDao.sol\":1515:1549  pollings[pollingId].expirationDate */\n      0x01\n      add\n      sload\n        /* \"VotDao.sol\":1497:1512  block.timestamp */\n      timestamp\n        /* \"VotDao.sol\":1497:1549  block.timestamp < pollings[pollingId].expirationDate */\n      lt\n        /* \"VotDao.sol\":1489:1570  require(block.timestamp < pollings[pollingId].expirationDate,\"Polling has Ended\") */\n      tag_53\n      jumpi\n      mload(0x40)\n      0x08c379a000000000000000000000000000000000000000000000000000000000\n      dup2\n      mstore\n      0x04\n      add\n      tag_54\n      swap1\n      tag_55\n      jump\t// in\n    tag_54:\n      mload(0x40)\n      dup1\n      swap2\n      sub\n      swap1\n      revert\n    tag_53:\n        /* \"VotDao.sol\":3823:3832  pollingId */\n      dup4\n        /* \"VotDao.sol\":1652:1660  pollings */\n      0x02\n        /* \"VotDao.sol\":1652:1671  pollings[pollingId] */\n      0x00\n        /* \"VotDao.sol\":1661:1670  pollingId */\n      dup3\n        /* \"VotDao.sol\":1652:1671  pollings[pollingId] */\n      dup2\n      mstore\n      0x20\n      add\n      swap1\n      dup2\n      mstore\n      0x20\n      add\n      0x00\n      keccak256\n        /* \"VotDao.sol\":1652:1680  pollings[pollingId].hasVoted */\n      0x04\n      add\n        /* \"VotDao.sol\":1652:1692  pollings[pollingId].hasVoted[msg.sender] */\n      0x00\n        /* \"VotDao.sol\":1681:1691  msg.sender */\n      caller\n        /* \"VotDao.sol\":1652:1692  pollings[pollingId].hasVoted[msg.sender] */\n      0xffffffffffffffffffffffffffffffffffffffff\n      and\n      0xffffffffffffffffffffffffffffffffffffffff\n      and\n      dup2\n      mstore\n      0x20\n      add\n      swap1\n      dup2\n      mstore\n      0x20\n      add\n      0x00\n      keccak256\n      0x00\n      swap1\n      sload\n      swap1\n      0x0100\n      exp\n      swap1\n      div\n      0xff\n      and\n        /* \"VotDao.sol\":1651:1692  !pollings[pollingId].hasVoted[msg.sender] */\n      iszero\n        /* \"VotDao.sol\":1643:1718  require(!pollings[pollingId].hasVoted[msg.sender],\"You have Already Voted\") */\n      tag_57\n      jumpi\n      mload(0x40)\n      0x08c379a000000000000000000000000000000000000000000000000000000000\n      dup2\n      mstore\n      0x04\n      add\n      tag_58\n      swap1\n      tag_59\n      jump\t// in\n    tag_58:\n      mload(0x40)\n      dup1\n      swap2\n      sub\n      swap1\n      revert\n    tag_57:\n        /* \"VotDao.sol\":3926:3942  keccak256(\"Yes\") */\n      0x84e4f592e52dc6e339ebb9a3f379f4dcf988a1253042a8ba9f03099551864bf0\n        /* \"VotDao.sol\":3913:3920  _choice */\n      dup5\n        /* \"VotDao.sol\":3896:3921  abi.encodePacked(_choice) */\n      add(0x20, mload(0x40))\n      tag_61\n      swap2\n      swap1\n      tag_62\n      jump\t// in\n    tag_61:\n      mload(0x40)\n      0x20\n      dup2\n      dup4\n      sub\n      sub\n      dup2\n      mstore\n      swap1\n      0x40\n      mstore\n        /* \"VotDao.sol\":3886:3922  keccak256(abi.encodePacked(_choice)) */\n      dup1\n      mload\n      swap1\n      0x20\n      add\n      keccak256\n        /* \"VotDao.sol\":3886:3942  keccak256(abi.encodePacked(_choice)) == keccak256(\"Yes\") */\n      eq\n        /* \"VotDao.sol\":3886:4009  keccak256(abi.encodePacked(_choice)) == keccak256(\"Yes\")||... */\n      dup1\n      tag_63\n      jumpi\n      pop\n        /* \"VotDao.sol\":3994:4009  keccak256(\"No\") */\n      0x267aa6f4694ec65b4167a753966ad7f8f38d1152f8a81ccf0d941bd0680eb852\n        /* \"VotDao.sol\":3981:3988  _choice */\n      dup5\n        /* \"VotDao.sol\":3964:3989  abi.encodePacked(_choice) */\n      add(0x20, mload(0x40))\n      tag_64\n      swap2\n      swap1\n      tag_62\n      jump\t// in\n    tag_64:\n      mload(0x40)\n      0x20\n      dup2\n      dup4\n      sub\n      sub\n      dup2\n      mstore\n      swap1\n      0x40\n      mstore\n        /* \"VotDao.sol\":3954:3990  keccak256(abi.encodePacked(_choice)) */\n      dup1\n      mload\n      swap1\n      0x20\n      add\n      keccak256\n        /* \"VotDao.sol\":3954:4009  keccak256(abi.encodePacked(_choice)) == keccak256(\"No\") */\n      eq\n        /* \"VotDao.sol\":3886:4009  keccak256(abi.encodePacked(_choice)) == keccak256(\"Yes\")||... */\n    tag_63:\n        /* \"VotDao.sol\":3886:4087  keccak256(abi.encodePacked(_choice)) == keccak256(\"Yes\")||... */\n      dup1\n      tag_65\n      jumpi\n      pop\n        /* \"VotDao.sol\":4062:4087  keccak256(\"NoInterested\") */\n      0xec909a09e1b13c18ded9f3beadbaf9a4fb3e3f1fbd6cd0e0f273dd90b6d789a2\n        /* \"VotDao.sol\":4049:4056  _choice */\n      dup5\n        /* \"VotDao.sol\":4032:4057  abi.encodePacked(_choice) */\n      add(0x20, mload(0x40))\n      tag_66\n      swap2\n      swap1\n      tag_62\n      jump\t// in\n    tag_66:\n      mload(0x40)\n      0x20\n      dup2\n      dup4\n      sub\n      sub\n      dup2\n      mstore\n      swap1\n      0x40\n      mstore\n        /* \"VotDao.sol\":4022:4058  keccak256(abi.encodePacked(_choice)) */\n      dup1\n      mload\n      swap1\n      0x20\n      add\n      keccak256\n        /* \"VotDao.sol\":4022:4087  keccak256(abi.encodePacked(_choice)) == keccak256(\"NoInterested\") */\n      eq\n        /* \"VotDao.sol\":3886:4087  keccak256(abi.encodePacked(_choice)) == keccak256(\"Yes\")||... */\n    tag_65:\n        /* \"VotDao.sol\":3878:4122  require(keccak256(abi.encodePacked(_choice)) == keccak256(\"Yes\")||... */\n      tag_67\n      jumpi\n      mload(0x40)\n      0x08c379a000000000000000000000000000000000000000000000000000000000\n      dup2\n      mstore\n      0x04\n      add\n      tag_68\n      swap1\n      tag_69\n      jump\t// in\n    tag_68:\n      mload(0x40)\n      dup1\n      swap2\n      sub\n      swap1\n      revert\n    tag_67:\n        /* \"VotDao.sol\":4215:4231  keccak256(\"Yes\") */\n      0x84e4f592e52dc6e339ebb9a3f379f4dcf988a1253042a8ba9f03099551864bf0\n        /* \"VotDao.sol\":4202:4209  _choice */\n      dup5\n        /* \"VotDao.sol\":4185:4210  abi.encodePacked(_choice) */\n      add(0x20, mload(0x40))\n      tag_70\n      swap2\n      swap1\n      tag_62\n      jump\t// in\n    tag_70:\n      mload(0x40)\n      0x20\n      dup2\n      dup4\n      sub\n      sub\n      dup2\n      mstore\n      swap1\n      0x40\n      mstore\n        /* \"VotDao.sol\":4175:4211  keccak256(abi.encodePacked(_choice)) */\n      dup1\n      mload\n      swap1\n      0x20\n      add\n      keccak256\n        /* \"VotDao.sol\":4175:4231  keccak256(abi.encodePacked(_choice)) == keccak256(\"Yes\") */\n      sub\n        /* \"VotDao.sol\":4172:4576  if(keccak256(abi.encodePacked(_choice)) == keccak256(\"Yes\")){... */\n      tag_71\n      jumpi\n        /* \"VotDao.sol\":4249:4257  pollings */\n      0x02\n        /* \"VotDao.sol\":4249:4268  pollings[pollingId] */\n      0x00\n        /* \"VotDao.sol\":4258:4267  pollingId */\n      dup7\n        /* \"VotDao.sol\":4249:4268  pollings[pollingId] */\n      dup2\n      mstore\n      0x20\n      add\n      swap1\n      dup2\n      mstore\n      0x20\n      add\n      0x00\n      keccak256\n        /* \"VotDao.sol\":4249:4280  pollings[pollingId].acceptVotes */\n      0x06\n      add\n      0x00\n        /* \"VotDao.sol\":4249:4282  pollings[pollingId].acceptVotes++ */\n      dup2\n      sload\n      dup1\n      swap3\n      swap2\n      swap1\n      tag_72\n      swap1\n      tag_73\n      jump\t// in\n    tag_72:\n      swap2\n      swap1\n      pop\n      sstore\n      pop\n        /* \"VotDao.sol\":4172:4576  if(keccak256(abi.encodePacked(_choice)) == keccak256(\"Yes\")){... */\n      jump(tag_74)\n    tag_71:\n        /* \"VotDao.sol\":4353:4368  keccak256(\"No\") */\n      0x267aa6f4694ec65b4167a753966ad7f8f38d1152f8a81ccf0d941bd0680eb852\n        /* \"VotDao.sol\":4340:4347  _choice */\n      dup5\n        /* \"VotDao.sol\":4323:4348  abi.encodePacked(_choice) */\n      add(0x20, mload(0x40))\n      tag_75\n      swap2\n      swap1\n      tag_62\n      jump\t// in\n    tag_75:\n      mload(0x40)\n      0x20\n      dup2\n      dup4\n      sub\n      sub\n      dup2\n      mstore\n      swap1\n      0x40\n      mstore\n        /* \"VotDao.sol\":4313:4349  keccak256(abi.encodePacked(_choice)) */\n      dup1\n      mload\n      swap1\n      0x20\n      add\n      keccak256\n        /* \"VotDao.sol\":4313:4368  keccak256(abi.encodePacked(_choice)) == keccak256(\"No\") */\n      sub\n        /* \"VotDao.sol\":4309:4576  if( keccak256(abi.encodePacked(_choice)) == keccak256(\"No\")){... */\n      tag_76\n      jumpi\n        /* \"VotDao.sol\":4386:4394  pollings */\n      0x02\n        /* \"VotDao.sol\":4386:4405  pollings[pollingId] */\n      0x00\n        /* \"VotDao.sol\":4395:4404  pollingId */\n      dup7\n        /* \"VotDao.sol\":4386:4405  pollings[pollingId] */\n      dup2\n      mstore\n      0x20\n      add\n      swap1\n      dup2\n      mstore\n      0x20\n      add\n      0x00\n      keccak256\n        /* \"VotDao.sol\":4386:4417  pollings[pollingId].rejectVotes */\n      0x05\n      add\n      0x00\n        /* \"VotDao.sol\":4386:4419  pollings[pollingId].rejectVotes++ */\n      dup2\n      sload\n      dup1\n      swap3\n      swap2\n      swap1\n      tag_77\n      swap1\n      tag_73\n      jump\t// in\n    tag_77:\n      swap2\n      swap1\n      pop\n      sstore\n      pop\n        /* \"VotDao.sol\":4309:4576  if( keccak256(abi.encodePacked(_choice)) == keccak256(\"No\")){... */\n      jump(tag_78)\n    tag_76:\n        /* \"VotDao.sol\":4481:4506  keccak256(\"NoInterested\") */\n      0xec909a09e1b13c18ded9f3beadbaf9a4fb3e3f1fbd6cd0e0f273dd90b6d789a2\n        /* \"VotDao.sol\":4468:4475  _choice */\n      dup5\n        /* \"VotDao.sol\":4451:4476  abi.encodePacked(_choice) */\n      add(0x20, mload(0x40))\n      tag_79\n      swap2\n      swap1\n      tag_62\n      jump\t// in\n    tag_79:\n      mload(0x40)\n      0x20\n      dup2\n      dup4\n      sub\n      sub\n      dup2\n      mstore\n      swap1\n      0x40\n      mstore\n        /* \"VotDao.sol\":4441:4477  keccak256(abi.encodePacked(_choice)) */\n      dup1\n      mload\n      swap1\n      0x20\n      add\n      keccak256\n        /* \"VotDao.sol\":4441:4506  keccak256(abi.encodePacked(_choice)) == keccak256(\"NoInterested\") */\n      sub\n        /* \"VotDao.sol\":4438:4576  if(keccak256(abi.encodePacked(_choice)) == keccak256(\"NoInterested\")){... */\n      tag_80\n      jumpi\n        /* \"VotDao.sol\":4524:4532  pollings */\n      0x02\n        /* \"VotDao.sol\":4524:4543  pollings[pollingId] */\n      0x00\n        /* \"VotDao.sol\":4533:4542  pollingId */\n      dup7\n        /* \"VotDao.sol\":4524:4543  pollings[pollingId] */\n      dup2\n      mstore\n      0x20\n      add\n      swap1\n      dup2\n      mstore\n      0x20\n      add\n      0x00\n      keccak256\n        /* \"VotDao.sol\":4524:4562  pollings[pollingId].notInterestedVotes */\n      0x07\n      add\n      0x00\n        /* \"VotDao.sol\":4524:4564  pollings[pollingId].notInterestedVotes++ */\n      dup2\n      sload\n      dup1\n      swap3\n      swap2\n      swap1\n      tag_81\n      swap1\n      tag_73\n      jump\t// in\n    tag_81:\n      swap2\n      swap1\n      pop\n      sstore\n      pop\n        /* \"VotDao.sol\":4438:4576  if(keccak256(abi.encodePacked(_choice)) == keccak256(\"NoInterested\")){... */\n    tag_80:\n        /* \"VotDao.sol\":4309:4576  if( keccak256(abi.encodePacked(_choice)) == keccak256(\"No\")){... */\n    tag_78:\n        /* \"VotDao.sol\":4172:4576  if(keccak256(abi.encodePacked(_choice)) == keccak256(\"Yes\")){... */\n    tag_74:\n        /* \"VotDao.sol\":4631:4635  true */\n      0x01\n        /* \"VotDao.sol\":4588:4596  pollings */\n      0x02\n        /* \"VotDao.sol\":4588:4607  pollings[pollingId] */\n      0x00\n        /* \"VotDao.sol\":4597:4606  pollingId */\n      dup8\n        /* \"VotDao.sol\":4588:4607  pollings[pollingId] */\n      dup2\n      mstore\n      0x20\n      add\n      swap1\n      dup2\n      mstore\n      0x20\n      add\n      0x00\n      keccak256\n        /* \"VotDao.sol\":4588:4616  pollings[pollingId].hasVoted */\n      0x04\n      add\n        /* \"VotDao.sol\":4588:4628  pollings[pollingId].hasVoted[msg.sender] */\n      0x00\n        /* \"VotDao.sol\":4617:4627  msg.sender */\n      caller\n        /* \"VotDao.sol\":4588:4628  pollings[pollingId].hasVoted[msg.sender] */\n      0xffffffffffffffffffffffffffffffffffffffff\n      and\n      0xffffffffffffffffffffffffffffffffffffffff\n      and\n      dup2\n      mstore\n      0x20\n      add\n      swap1\n      dup2\n      mstore\n      0x20\n      add\n      0x00\n      keccak256\n      0x00\n        /* \"VotDao.sol\":4588:4635  pollings[pollingId].hasVoted[msg.sender] = true */\n      0x0100\n      exp\n      dup2\n      sload\n      dup2\n      0xff\n      mul\n      not\n      and\n      swap1\n      dup4\n      iszero\n      iszero\n      mul\n      or\n      swap1\n      sstore\n      pop\n        /* \"VotDao.sol\":4646:4663  userVotedPollings */\n      0x03\n        /* \"VotDao.sol\":4646:4675  userVotedPollings[msg.sender] */\n      0x00\n        /* \"VotDao.sol\":4664:4674  msg.sender */\n      caller\n        /* \"VotDao.sol\":4646:4675  userVotedPollings[msg.sender] */\n      0xffffffffffffffffffffffffffffffffffffffff\n      and\n      0xffffffffffffffffffffffffffffffffffffffff\n      and\n      dup2\n      mstore\n      0x20\n      add\n      swap1\n      dup2\n      mstore\n      0x20\n      add\n      0x00\n      keccak256\n        /* \"VotDao.sol\":4681:4690  pollingId */\n      dup6\n        /* \"VotDao.sol\":4646:4691  userVotedPollings[msg.sender].push(pollingId) */\n      swap1\n      dup1\n      0x01\n      dup2\n      sload\n      add\n      dup1\n      dup3\n      sstore\n      dup1\n      swap2\n      pop\n      pop\n      0x01\n      swap1\n      sub\n      swap1\n      0x00\n      mstore\n      keccak256(0x00, 0x20)\n      add\n      0x00\n      swap1\n      swap2\n      swap1\n      swap2\n      swap1\n      swap2\n      pop\n      sstore\n        /* \"VotDao.sol\":4704:4723  Vote memory newVote */\n      0x00\n        /* \"VotDao.sol\":4726:4766  Vote(msg.sender,_choice,block.timestamp) */\n      mload(0x40)\n      dup1\n      0x60\n      add\n      0x40\n      mstore\n      dup1\n        /* \"VotDao.sol\":4731:4741  msg.sender */\n      caller\n        /* \"VotDao.sol\":4726:4766  Vote(msg.sender,_choice,block.timestamp) */\n      0xffffffffffffffffffffffffffffffffffffffff\n      and\n      dup2\n      mstore\n      0x20\n      add\n        /* \"VotDao.sol\":4742:4749  _choice */\n      dup7\n        /* \"VotDao.sol\":4726:4766  Vote(msg.sender,_choice,block.timestamp) */\n      dup2\n      mstore\n      0x20\n      add\n        /* \"VotDao.sol\":4750:4765  block.timestamp */\n      timestamp\n        /* \"VotDao.sol\":4726:4766  Vote(msg.sender,_choice,block.timestamp) */\n      dup2\n      mstore\n      pop\n        /* \"VotDao.sol\":4704:4766  Vote memory newVote = Vote(msg.sender,_choice,block.timestamp) */\n      swap1\n      pop\n        /* \"VotDao.sol\":4777:4785  pollings */\n      0x02\n        /* \"VotDao.sol\":4777:4796  pollings[pollingId] */\n      0x00\n        /* \"VotDao.sol\":4786:4795  pollingId */\n      dup8\n        /* \"VotDao.sol\":4777:4796  pollings[pollingId] */\n      dup2\n      mstore\n      0x20\n      add\n      swap1\n      dup2\n      mstore\n      0x20\n      add\n      0x00\n      keccak256\n        /* \"VotDao.sol\":4777:4802  pollings[pollingId].votes */\n      0x09\n      add\n        /* \"VotDao.sol\":4808:4815  newVote */\n      dup2\n        /* \"VotDao.sol\":4777:4816  pollings[pollingId].votes.push(newVote) */\n      swap1\n      dup1\n      0x01\n      dup2\n      sload\n      add\n      dup1\n      dup3\n      sstore\n      dup1\n      swap2\n      pop\n      pop\n      0x01\n      swap1\n      sub\n      swap1\n      0x00\n      mstore\n      keccak256(0x00, 0x20)\n      swap1\n      0x03\n      mul\n      add\n      0x00\n      swap1\n      swap2\n      swap1\n      swap2\n      swap1\n      swap2\n      pop\n      0x00\n      dup3\n      add\n      mload\n      dup2\n      0x00\n      add\n      exp(0x0100, 0x00)\n      dup2\n      sload\n      dup2\n      0xffffffffffffffffffffffffffffffffffffffff\n      mul\n      not\n      and\n      swap1\n      dup4\n      0xffffffffffffffffffffffffffffffffffffffff\n      and\n      mul\n      or\n      swap1\n      sstore\n      pop\n      0x20\n      dup3\n      add\n      mload\n      dup2\n      0x01\n      add\n      swap1\n      dup2\n      tag_84\n      swap2\n      swap1\n      tag_85\n      jump\t// in\n    tag_84:\n      pop\n      0x40\n      dup3\n      add\n      mload\n      dup2\n      0x02\n      add\n      sstore\n      pop\n      pop\n        /* \"VotDao.sol\":4877:4887  msg.sender */\n      caller\n        /* \"VotDao.sol\":4861:4914  Voted(pollingId,msg.sender, _choice, block.timestamp) */\n      0xffffffffffffffffffffffffffffffffffffffff\n      and\n        /* \"VotDao.sol\":4867:4876  pollingId */\n      dup7\n        /* \"VotDao.sol\":4861:4914  Voted(pollingId,msg.sender, _choice, block.timestamp) */\n      0x3ae89ec44d6750209e1164a2659a766e3cfe3476e908a19cb5e928974ef5e4ec\n        /* \"VotDao.sol\":4889:4896  _choice */\n      dup8\n        /* \"VotDao.sol\":4898:4913  block.timestamp */\n      timestamp\n        /* \"VotDao.sol\":4861:4914  Voted(pollingId,msg.sender, _choice, block.timestamp) */\n      mload(0x40)\n      tag_86\n      swap3\n      swap2\n      swap1\n      tag_87\n      jump\t// in\n    tag_86:\n      mload(0x40)\n      dup1\n      swap2\n      sub\n      swap1\n      log3\n        /* \"VotDao.sol\":3834:4922  {... */\n      pop\n        /* \"VotDao.sol\":1581:1582  _ */\n      pop\n        /* \"VotDao.sol\":1428:1429  _ */\n      pop\n        /* \"VotDao.sol\":3705:4922  function vote(uint pollingId, string memory _choice) public pollingExist(pollingId) notExpired(pollingId) hasNotVoted(pollingId) {... */\n      pop\n      pop\n      pop\n      jump\t// out\n        /* \"VotDao.sol\":5265:6186  function getAllPollings() public view returns(uint[] memory active,uint[] memory ended){... */\n    tag_17:\n        /* \"VotDao.sol\":5311:5331  uint[] memory active */\n      0x60\n        /* \"VotDao.sol\":5332:5351  uint[] memory ended */\n      dup1\n        /* \"VotDao.sol\":5363:5373  uint total */\n      0x00\n        /* \"VotDao.sol\":5376:5402  pollingIdCounter.current() */\n      tag_89\n        /* \"VotDao.sol\":5376:5392  pollingIdCounter */\n      0x00\n        /* \"VotDao.sol\":5376:5400  pollingIdCounter.current */\n      tag_90\n        /* \"VotDao.sol\":5376:5402  pollingIdCounter.current() */\n      jump\t// in\n    tag_89:\n        /* \"VotDao.sol\":5363:5402  uint total = pollingIdCounter.current() */\n      swap1\n      pop\n        /* \"VotDao.sol\":5413:5429  uint activeCount */\n      0x00\n        /* \"VotDao.sol\":5444:5459  uint endedCount */\n      dup1\n        /* \"VotDao.sol\":5524:5530  uint i */\n      0x00\n        /* \"VotDao.sol\":5533:5534  1 */\n      0x01\n        /* \"VotDao.sol\":5524:5534  uint i = 1 */\n      swap1\n      pop\n        /* \"VotDao.sol\":5519:5724  for (uint i = 1; i<=total; i++){... */\n    tag_91:\n        /* \"VotDao.sol\":5539:5544  total */\n      dup4\n        /* \"VotDao.sol\":5536:5537  i */\n      dup2\n        /* \"VotDao.sol\":5536:5544  i<=total */\n      gt\n        /* \"VotDao.sol\":5519:5724  for (uint i = 1; i<=total; i++){... */\n      tag_92\n      jumpi\n        /* \"VotDao.sol\":5597:5612  block.timestamp */\n      timestamp\n        /* \"VotDao.sol\":5568:5576  pollings */\n      0x02\n        /* \"VotDao.sol\":5568:5579  pollings[i] */\n      0x00\n        /* \"VotDao.sol\":5577:5578  i */\n      dup4\n        /* \"VotDao.sol\":5568:5579  pollings[i] */\n      dup2\n      mstore\n      0x20\n      add\n      swap1\n      dup2\n      mstore\n      0x20\n      add\n      0x00\n      keccak256\n        /* \"VotDao.sol\":5568:5594  pollings[i].expirationDate */\n      0x01\n      add\n      sload\n        /* \"VotDao.sol\":5568:5612  pollings[i].expirationDate > block.timestamp */\n      gt\n        /* \"VotDao.sol\":5565:5713  if(pollings[i].expirationDate > block.timestamp){... */\n      iszero\n      tag_94\n      jumpi\n        /* \"VotDao.sol\":5632:5645  activeCount++ */\n      dup3\n      dup1\n      tag_95\n      swap1\n      tag_73\n      jump\t// in\n    tag_95:\n      swap4\n      pop\n      pop\n        /* \"VotDao.sol\":5565:5713  if(pollings[i].expirationDate > block.timestamp){... */\n      jump(tag_96)\n    tag_94:\n        /* \"VotDao.sol\":5685:5697  endedCount++ */\n      dup2\n      dup1\n      tag_97\n      swap1\n      tag_73\n      jump\t// in\n    tag_97:\n      swap3\n      pop\n      pop\n        /* \"VotDao.sol\":5565:5713  if(pollings[i].expirationDate > block.timestamp){... */\n    tag_96:\n        /* \"VotDao.sol\":5546:5549  i++ */\n      dup1\n      dup1\n      tag_98\n      swap1\n      tag_73\n      jump\t// in\n    tag_98:\n      swap2\n      pop\n      pop\n        /* \"VotDao.sol\":5519:5724  for (uint i = 1; i<=total; i++){... */\n      jump(tag_91)\n    tag_92:\n      pop\n        /* \"VotDao.sol\":5756:5767  activeCount */\n      dup2\n        /* \"VotDao.sol\":5745:5768  new uint[](activeCount) */\n      0xffffffffffffffff\n      dup2\n      gt\n      iszero\n      tag_99\n      jumpi\n      tag_100\n      tag_101\n      jump\t// in\n    tag_100:\n    tag_99:\n      mload(0x40)\n      swap1\n      dup1\n      dup3\n      mstore\n      dup1\n      0x20\n      mul\n      0x20\n      add\n      dup3\n      add\n      0x40\n      mstore\n      dup1\n      iszero\n      tag_102\n      jumpi\n      dup2\n      0x20\n      add\n      0x20\n      dup3\n      mul\n      dup1\n      calldatasize\n      dup4\n      calldatacopy\n      dup1\n      dup3\n      add\n      swap2\n      pop\n      pop\n      swap1\n      pop\n    tag_102:\n      pop\n        /* \"VotDao.sol\":5736:5768  active = new uint[](activeCount) */\n      swap5\n      pop\n        /* \"VotDao.sol\":5798:5808  endedCount */\n      dup1\n        /* \"VotDao.sol\":5787:5809  new uint[](endedCount) */\n      0xffffffffffffffff\n      dup2\n      gt\n      iszero\n      tag_103\n      jumpi\n      tag_104\n      tag_101\n      jump\t// in\n    tag_104:\n    tag_103:\n      mload(0x40)\n      swap1\n      dup1\n      dup3\n      mstore\n      dup1\n      0x20\n      mul\n      0x20\n      add\n      dup3\n      add\n      0x40\n      mstore\n      dup1\n      iszero\n      tag_105\n      jumpi\n      dup2\n      0x20\n      add\n      0x20\n      dup3\n      mul\n      dup1\n      calldatasize\n      dup4\n      calldatacopy\n      dup1\n      dup3\n      add\n      swap2\n      pop\n      pop\n      swap1\n      pop\n    tag_105:\n      pop\n        /* \"VotDao.sol\":5779:5809  ended = new uint[](endedCount) */\n      swap4\n      pop\n        /* \"VotDao.sol\":5822:5838  uint activeIndex */\n      0x00\n        /* \"VotDao.sol\":5853:5868  uint endedIndex */\n      dup1\n        /* \"VotDao.sol\":5887:5893  uint i */\n      0x00\n        /* \"VotDao.sol\":5895:5896  1 */\n      0x01\n        /* \"VotDao.sol\":5887:5896  uint i= 1 */\n      swap1\n      pop\n        /* \"VotDao.sol\":5883:6179  for(uint i= 1 ; i <= total ; i++){... */\n    tag_106:\n        /* \"VotDao.sol\":5904:5909  total */\n      dup6\n        /* \"VotDao.sol\":5899:5900  i */\n      dup2\n        /* \"VotDao.sol\":5899:5909  i <= total */\n      gt\n        /* \"VotDao.sol\":5883:6179  for(uint i= 1 ; i <= total ; i++){... */\n      tag_107\n      jumpi\n        /* \"VotDao.sol\":5963:5978  block.timestamp */\n      timestamp\n        /* \"VotDao.sol\":5934:5942  pollings */\n      0x02\n        /* \"VotDao.sol\":5934:5945  pollings[i] */\n      0x00\n        /* \"VotDao.sol\":5943:5944  i */\n      dup4\n        /* \"VotDao.sol\":5934:5945  pollings[i] */\n      dup2\n      mstore\n      0x20\n      add\n      swap1\n      dup2\n      mstore\n      0x20\n      add\n      0x00\n      keccak256\n        /* \"VotDao.sol\":5934:5960  pollings[i].expirationDate */\n      0x01\n      add\n      sload\n        /* \"VotDao.sol\":5934:5978  pollings[i].expirationDate > block.timestamp */\n      gt\n        /* \"VotDao.sol\":5931:6159  if(pollings[i].expirationDate > block.timestamp){... */\n      iszero\n      tag_109\n      jumpi\n        /* \"VotDao.sol\":6018:6019  i */\n      dup1\n        /* \"VotDao.sol\":5998:6004  active */\n      dup9\n        /* \"VotDao.sol\":6005:6016  activeIndex */\n      dup5\n        /* \"VotDao.sol\":5998:6017  active[activeIndex] */\n      dup2\n      mload\n      dup2\n      lt\n      tag_110\n      jumpi\n      tag_111\n      tag_112\n      jump\t// in\n    tag_111:\n    tag_110:\n      0x20\n      mul\n      0x20\n      add\n      add\n        /* \"VotDao.sol\":5998:6019  active[activeIndex]=i */\n      dup2\n      dup2\n      mstore\n      pop\n      pop\n        /* \"VotDao.sol\":6038:6051  activeIndex++ */\n      dup3\n      dup1\n      tag_113\n      swap1\n      tag_73\n      jump\t// in\n    tag_113:\n      swap4\n      pop\n      pop\n        /* \"VotDao.sol\":5931:6159  if(pollings[i].expirationDate > block.timestamp){... */\n      jump(tag_114)\n    tag_109:\n        /* \"VotDao.sol\":6111:6112  i */\n      dup1\n        /* \"VotDao.sol\":6091:6096  ended */\n      dup8\n        /* \"VotDao.sol\":6097:6107  endedIndex */\n      dup4\n        /* \"VotDao.sol\":6091:6108  ended[endedIndex] */\n      dup2\n      mload\n      dup2\n      lt\n      tag_115\n      jumpi\n      tag_116\n      tag_112\n      jump\t// in\n    tag_116:\n    tag_115:\n      0x20\n      mul\n      0x20\n      add\n      add\n        /* \"VotDao.sol\":6091:6112  ended[endedIndex] = i */\n      dup2\n      dup2\n      mstore\n      pop\n      pop\n        /* \"VotDao.sol\":6131:6143  endedIndex++ */\n      dup2\n      dup1\n      tag_117\n      swap1\n      tag_73\n      jump\t// in\n    tag_117:\n      swap3\n      pop\n      pop\n        /* \"VotDao.sol\":5931:6159  if(pollings[i].expirationDate > block.timestamp){... */\n    tag_114:\n        /* \"VotDao.sol\":5912:5915  i++ */\n      dup1\n      dup1\n      tag_118\n      swap1\n      tag_73\n      jump\t// in\n    tag_118:\n      swap2\n      pop\n      pop\n        /* \"VotDao.sol\":5883:6179  for(uint i= 1 ; i <= total ; i++){... */\n      jump(tag_106)\n    tag_107:\n      pop\n        /* \"VotDao.sol\":5352:6186  {... */\n      pop\n      pop\n      pop\n      pop\n      pop\n        /* \"VotDao.sol\":5265:6186  function getAllPollings() public view returns(uint[] memory active,uint[] memory ended){... */\n      swap1\n      swap2\n      jump\t// out\n        /* \"VotDao.sol\":188:228  Counters.Counter public pollingIdCounter */\n    tag_21:\n      0x00\n      dup1\n      0x00\n      add\n      sload\n      swap1\n      pop\n      dup2\n      jump\t// out\n        /* \"VotDao.sol\":5084:5251  function pollExpirationStatus (uint pollingId)public view returns (bool){... */\n    tag_27:\n        /* \"VotDao.sol\":5151:5155  bool */\n      0x00\n        /* \"VotDao.sol\":5192:5200  pollings */\n      0x02\n        /* \"VotDao.sol\":5192:5211  pollings[pollingId] */\n      0x00\n        /* \"VotDao.sol\":5201:5210  pollingId */\n      dup4\n        /* \"VotDao.sol\":5192:5211  pollings[pollingId] */\n      dup2\n      mstore\n      0x20\n      add\n      swap1\n      dup2\n      mstore\n      0x20\n      add\n      0x00\n      keccak256\n        /* \"VotDao.sol\":5192:5226  pollings[pollingId].expirationDate */\n      0x01\n      add\n      sload\n        /* \"VotDao.sol\":5174:5189  block.timestamp */\n      timestamp\n        /* \"VotDao.sol\":5174:5226  block.timestamp < pollings[pollingId].expirationDate */\n      lt\n        /* \"VotDao.sol\":5167:5226  return block.timestamp < pollings[pollingId].expirationDate */\n      swap1\n      pop\n        /* \"VotDao.sol\":5084:5251  function pollExpirationStatus (uint pollingId)public view returns (bool){... */\n      swap2\n      swap1\n      pop\n      jump\t// out\n        /* \"VotDao.sol\":3035:3681  function getPollDetailes(uint _id)public view pollingExist(_id) returns(... */\n    tag_32:\n        /* \"VotDao.sol\":3117:3136  string memory title */\n      0x60\n        /* \"VotDao.sol\":3147:3166  uint expirationDate */\n      0x00\n        /* \"VotDao.sol\":3177:3200  string memory imageHash */\n      0x60\n        /* \"VotDao.sol\":3211:3236  string memory description */\n      dup1\n        /* \"VotDao.sol\":3247:3263  uint rejectVotes */\n      0x00\n        /* \"VotDao.sol\":3274:3290  uint acceptVotes */\n      dup1\n        /* \"VotDao.sol\":3301:3324  uint notInterestedVotes */\n      0x00\n        /* \"VotDao.sol\":3094:3097  _id */\n      dup8\n        /* \"VotDao.sol\":1365:1373  pollings */\n      0x02\n        /* \"VotDao.sol\":1365:1384  pollings[pollingId] */\n      0x00\n        /* \"VotDao.sol\":1374:1383  pollingId */\n      dup3\n        /* \"VotDao.sol\":1365:1384  pollings[pollingId] */\n      dup2\n      mstore\n      0x20\n      add\n      swap1\n      dup2\n      mstore\n      0x20\n      add\n      0x00\n      keccak256\n        /* \"VotDao.sol\":1365:1391  pollings[pollingId].exists */\n      0x08\n      add\n      0x00\n      swap1\n      sload\n      swap1\n      0x0100\n      exp\n      swap1\n      div\n      0xff\n      and\n        /* \"VotDao.sol\":1357:1417  require(pollings[pollingId].exists,\"Polling dose not exist\") */\n      tag_121\n      jumpi\n      mload(0x40)\n      0x08c379a000000000000000000000000000000000000000000000000000000000\n      dup2\n      mstore\n      0x04\n      add\n      tag_122\n      swap1\n      tag_51\n      jump\t// in\n    tag_122:\n      mload(0x40)\n      dup1\n      swap2\n      sub\n      swap1\n      revert\n    tag_121:\n        /* \"VotDao.sol\":3340:3363  Poll storage selectItem */\n      0x00\n        /* \"VotDao.sol\":3366:3374  pollings */\n      0x02\n        /* \"VotDao.sol\":3366:3379  pollings[_id] */\n      0x00\n        /* \"VotDao.sol\":3375:3378  _id */\n      dup12\n        /* \"VotDao.sol\":3366:3379  pollings[_id] */\n      dup2\n      mstore\n      0x20\n      add\n      swap1\n      dup2\n      mstore\n      0x20\n      add\n      0x00\n      keccak256\n        /* \"VotDao.sol\":3340:3379  Poll storage selectItem = pollings[_id] */\n      swap1\n      pop\n        /* \"VotDao.sol\":3416:3426  selectItem */\n      dup1\n        /* \"VotDao.sol\":3416:3432  selectItem.title */\n      0x00\n      add\n        /* \"VotDao.sol\":3447:3457  selectItem */\n      dup2\n        /* \"VotDao.sol\":3447:3472  selectItem.expirationDate */\n      0x01\n      add\n      sload\n        /* \"VotDao.sol\":3487:3497  selectItem */\n      dup3\n        /* \"VotDao.sol\":3487:3507  selectItem.imageHash */\n      0x02\n      add\n        /* \"VotDao.sol\":3522:3532  selectItem */\n      dup4\n        /* \"VotDao.sol\":3522:3544  selectItem.description */\n      0x03\n      add\n        /* \"VotDao.sol\":3559:3569  selectItem */\n      dup5\n        /* \"VotDao.sol\":3559:3581  selectItem.rejectVotes */\n      0x05\n      add\n      sload\n        /* \"VotDao.sol\":3596:3606  selectItem */\n      dup6\n        /* \"VotDao.sol\":3596:3618  selectItem.acceptVotes */\n      0x06\n      add\n      sload\n        /* \"VotDao.sol\":3633:3643  selectItem */\n      dup7\n        /* \"VotDao.sol\":3633:3662  selectItem.notInterestedVotes */\n      0x07\n      add\n      sload\n        /* \"VotDao.sol\":3394:3673  return (... */\n      dup7\n      dup1\n      sload\n      tag_124\n      swap1\n      tag_125\n      jump\t// in\n    tag_124:\n      dup1\n      0x1f\n      add\n      0x20\n      dup1\n      swap2\n      div\n      mul\n      0x20\n      add\n      mload(0x40)\n      swap1\n      dup2\n      add\n      0x40\n      mstore\n      dup1\n      swap3\n      swap2\n      swap1\n      dup2\n      dup2\n      mstore\n      0x20\n      add\n      dup3\n      dup1\n      sload\n      tag_126\n      swap1\n      tag_125\n      jump\t// in\n    tag_126:\n      dup1\n      iszero\n      tag_127\n      jumpi\n      dup1\n      0x1f\n      lt\n      tag_128\n      jumpi\n      0x0100\n      dup1\n      dup4\n      sload\n      div\n      mul\n      dup4\n      mstore\n      swap2\n      0x20\n      add\n      swap2\n      jump(tag_127)\n    tag_128:\n      dup3\n      add\n      swap2\n      swap1\n      0x00\n      mstore\n      keccak256(0x00, 0x20)\n      swap1\n    tag_129:\n      dup2\n      sload\n      dup2\n      mstore\n      swap1\n      0x01\n      add\n      swap1\n      0x20\n      add\n      dup1\n      dup4\n      gt\n      tag_129\n      jumpi\n      dup3\n      swap1\n      sub\n      0x1f\n      and\n      dup3\n      add\n      swap2\n    tag_127:\n      pop\n      pop\n      pop\n      pop\n      pop\n      swap7\n      pop\n      dup5\n      dup1\n      sload\n      tag_130\n      swap1\n      tag_125\n      jump\t// in\n    tag_130:\n      dup1\n      0x1f\n      add\n      0x20\n      dup1\n      swap2\n      div\n      mul\n      0x20\n      add\n      mload(0x40)\n      swap1\n      dup2\n      add\n      0x40\n      mstore\n      dup1\n      swap3\n      swap2\n      swap1\n      dup2\n      dup2\n      mstore\n      0x20\n      add\n      dup3\n      dup1\n      sload\n      tag_131\n      swap1\n      tag_125\n      jump\t// in\n    tag_131:\n      dup1\n      iszero\n      tag_132\n      jumpi\n      dup1\n      0x1f\n      lt\n      tag_133\n      jumpi\n      0x0100\n      dup1\n      dup4\n      sload\n      div\n      mul\n      dup4\n      mstore\n      swap2\n      0x20\n      add\n      swap2\n      jump(tag_132)\n    tag_133:\n      dup3\n      add\n      swap2\n      swap1\n      0x00\n      mstore\n      keccak256(0x00, 0x20)\n      swap1\n    tag_134:\n      dup2\n      sload\n      dup2\n      mstore\n      swap1\n      0x01\n      add\n      swap1\n      0x20\n      add\n      dup1\n      dup4\n      gt\n      tag_134\n      jumpi\n      dup3\n      swap1\n      sub\n      0x1f\n      and\n      dup3\n      add\n      swap2\n    tag_132:\n      pop\n      pop\n      pop\n      pop\n      pop\n      swap5\n      pop\n      dup4\n      dup1\n      sload\n      tag_135\n      swap1\n      tag_125\n      jump\t// in\n    tag_135:\n      dup1\n      0x1f\n      add\n      0x20\n      dup1\n      swap2\n      div\n      mul\n      0x20\n      add\n      mload(0x40)\n      swap1\n      dup2\n      add\n      0x40\n      mstore\n      dup1\n      swap3\n      swap2\n      swap1\n      dup2\n      dup2\n      mstore\n      0x20\n      add\n      dup3\n      dup1\n      sload\n      tag_136\n      swap1\n      tag_125\n      jump\t// in\n    tag_136:\n      dup1\n      iszero\n      tag_137\n      jumpi\n      dup1\n      0x1f\n      lt\n      tag_138\n      jumpi\n      0x0100\n      dup1\n      dup4\n      sload\n      div\n      mul\n      dup4\n      mstore\n      swap2\n      0x20\n      add\n      swap2\n      jump(tag_137)\n    tag_138:\n      dup3\n      add\n      swap2\n      swap1\n      0x00\n      mstore\n      keccak256(0x00, 0x20)\n      swap1\n    tag_139:\n      dup2\n      sload\n      dup2\n      mstore\n      swap1\n      0x01\n      add\n      swap1\n      0x20\n      add\n      dup1\n      dup4\n      gt\n      tag_139\n      jumpi\n      dup3\n      swap1\n      sub\n      0x1f\n      and\n      dup3\n      add\n      swap2\n    tag_137:\n      pop\n      pop\n      pop\n      pop\n      pop\n      swap4\n      pop\n      swap9\n      pop\n      swap9\n      pop\n      swap9\n      pop\n      swap9\n      pop\n      swap9\n      pop\n      swap9\n      pop\n      swap9\n      pop\n      pop\n        /* \"VotDao.sol\":3035:3681  function getPollDetailes(uint _id)public view pollingExist(_id) returns(... */\n      pop\n      swap2\n      swap4\n      swap6\n      swap8\n      swap1\n      swap3\n      swap5\n      swap7\n      pop\n      jump\t// out\n        /* \"VotDao.sol\":1809:3027  function createPoll(string memory _title, uint _durationInSecond, string memory _imageHash, string memory _description) public onlyAdmin{... */\n    tag_38:\n        /* \"VotDao.sol\":1237:1242  admin */\n      0x01\n      0x00\n      swap1\n      sload\n      swap1\n      0x0100\n      exp\n      swap1\n      div\n      0xffffffffffffffffffffffffffffffffffffffff\n      and\n        /* \"VotDao.sol\":1223:1242  msg.sender == admin */\n      0xffffffffffffffffffffffffffffffffffffffff\n      and\n        /* \"VotDao.sol\":1223:1233  msg.sender */\n      caller\n        /* \"VotDao.sol\":1223:1242  msg.sender == admin */\n      0xffffffffffffffffffffffffffffffffffffffff\n      and\n      eq\n        /* \"VotDao.sol\":1215:1283  require(msg.sender == admin,\"Only Admin Can create This Operations\") */\n      tag_141\n      jumpi\n      mload(0x40)\n      0x08c379a000000000000000000000000000000000000000000000000000000000\n      dup2\n      mstore\n      0x04\n      add\n      tag_142\n      swap1\n      tag_143\n      jump\t// in\n    tag_142:\n      mload(0x40)\n      dup1\n      swap2\n      sub\n      swap1\n      revert\n    tag_141:\n        /* \"VotDao.sol\":2057:2058  0 */\n      0x00\n        /* \"VotDao.sol\":2039:2056  _durationInSecond */\n      dup4\n        /* \"VotDao.sol\":2039:2058  _durationInSecond>0 */\n      gt\n        /* \"VotDao.sol\":2031:2094  require(_durationInSecond>0,\"Duration must ve greather Than 0\") */\n      tag_145\n      jumpi\n      mload(0x40)\n      0x08c379a000000000000000000000000000000000000000000000000000000000\n      dup2\n      mstore\n      0x04\n      add\n      tag_146\n      swap1\n      tag_147\n      jump\t// in\n    tag_146:\n      mload(0x40)\n      dup1\n      swap2\n      sub\n      swap1\n      revert\n    tag_145:\n        /* \"VotDao.sol\":2134:2135  3 */\n      0x03\n        /* \"VotDao.sol\":2119:2125  _title */\n      dup5\n        /* \"VotDao.sol\":2113:2133  bytes(_title).length */\n      mload\n        /* \"VotDao.sol\":2113:2135  bytes(_title).length>3 */\n      gt\n        /* \"VotDao.sol\":2105:2169  require(bytes(_title).length>3,\"_title must ve greather Than 3\") */\n      tag_148\n      jumpi\n      mload(0x40)\n      0x08c379a000000000000000000000000000000000000000000000000000000000\n      dup2\n      mstore\n      0x04\n      add\n      tag_149\n      swap1\n      tag_150\n      jump\t// in\n    tag_149:\n      mload(0x40)\n      dup1\n      swap2\n      sub\n      swap1\n      revert\n    tag_148:\n        /* \"VotDao.sol\":2213:2214  3 */\n      0x03\n        /* \"VotDao.sol\":2194:2204  _imageHash */\n      dup3\n        /* \"VotDao.sol\":2188:2212  bytes(_imageHash).length */\n      mload\n        /* \"VotDao.sol\":2188:2214  bytes(_imageHash).length>3 */\n      gt\n        /* \"VotDao.sol\":2180:2252  require(bytes(_imageHash).length>3,\"_imageHash must ve greather Than 3\") */\n      tag_151\n      jumpi\n      mload(0x40)\n      0x08c379a000000000000000000000000000000000000000000000000000000000\n      dup2\n      mstore\n      0x04\n      add\n      tag_152\n      swap1\n      tag_153\n      jump\t// in\n    tag_152:\n      mload(0x40)\n      dup1\n      swap2\n      sub\n      swap1\n      revert\n    tag_151:\n        /* \"VotDao.sol\":2298:2299  3 */\n      0x03\n        /* \"VotDao.sol\":2277:2289  _description */\n      dup2\n        /* \"VotDao.sol\":2271:2297  bytes(_description).length */\n      mload\n        /* \"VotDao.sol\":2271:2299  bytes(_description).length>3 */\n      gt\n        /* \"VotDao.sol\":2263:2339  require(bytes(_description).length>3,\"_description must ve greather Than 3\") */\n      tag_154\n      jumpi\n      mload(0x40)\n      0x08c379a000000000000000000000000000000000000000000000000000000000\n      dup2\n      mstore\n      0x04\n      add\n      tag_155\n      swap1\n      tag_156\n      jump\t// in\n    tag_155:\n      mload(0x40)\n      dup1\n      swap2\n      sub\n      swap1\n      revert\n    tag_154:\n        /* \"VotDao.sol\":2362:2390  pollingIdCounter.increment() */\n      tag_157\n        /* \"VotDao.sol\":2362:2378  pollingIdCounter */\n      0x00\n        /* \"VotDao.sol\":2362:2388  pollingIdCounter.increment */\n      tag_158\n        /* \"VotDao.sol\":2362:2390  pollingIdCounter.increment() */\n      jump\t// in\n    tag_157:\n        /* \"VotDao.sol\":2414:2431  uint newPollingId */\n      0x00\n        /* \"VotDao.sol\":2434:2460  pollingIdCounter.current() */\n      tag_159\n        /* \"VotDao.sol\":2434:2450  pollingIdCounter */\n      0x00\n        /* \"VotDao.sol\":2434:2458  pollingIdCounter.current */\n      tag_90\n        /* \"VotDao.sol\":2434:2460  pollingIdCounter.current() */\n      jump\t// in\n    tag_159:\n        /* \"VotDao.sol\":2414:2460  uint newPollingId = pollingIdCounter.current() */\n      swap1\n      pop\n        /* \"VotDao.sol\":2502:2508  _title */\n      dup5\n        /* \"VotDao.sol\":2473:2481  pollings */\n      0x02\n        /* \"VotDao.sol\":2473:2495  pollings[newPollingId] */\n      0x00\n        /* \"VotDao.sol\":2482:2494  newPollingId */\n      dup4\n        /* \"VotDao.sol\":2473:2495  pollings[newPollingId] */\n      dup2\n      mstore\n      0x20\n      add\n      swap1\n      dup2\n      mstore\n      0x20\n      add\n      0x00\n      keccak256\n        /* \"VotDao.sol\":2473:2501  pollings[newPollingId].title */\n      0x00\n      add\n        /* \"VotDao.sol\":2473:2508  pollings[newPollingId].title=_title */\n      swap1\n      dup2\n      tag_160\n      swap2\n      swap1\n      tag_85\n      jump\t// in\n    tag_160:\n      pop\n        /* \"VotDao.sol\":2554:2566  _description */\n      dup2\n        /* \"VotDao.sol\":2519:2527  pollings */\n      0x02\n        /* \"VotDao.sol\":2519:2541  pollings[newPollingId] */\n      0x00\n        /* \"VotDao.sol\":2528:2540  newPollingId */\n      dup4\n        /* \"VotDao.sol\":2519:2541  pollings[newPollingId] */\n      dup2\n      mstore\n      0x20\n      add\n      swap1\n      dup2\n      mstore\n      0x20\n      add\n      0x00\n      keccak256\n        /* \"VotDao.sol\":2519:2553  pollings[newPollingId].description */\n      0x03\n      add\n        /* \"VotDao.sol\":2519:2566  pollings[newPollingId].description=_description */\n      swap1\n      dup2\n      tag_161\n      swap2\n      swap1\n      tag_85\n      jump\t// in\n    tag_161:\n      pop\n        /* \"VotDao.sol\":2632:2649  _durationInSecond */\n      dup4\n        /* \"VotDao.sol\":2615:2630  block.timestamp */\n      timestamp\n        /* \"VotDao.sol\":2615:2649  block.timestamp +_durationInSecond */\n      tag_162\n      swap2\n      swap1\n      tag_163\n      jump\t// in\n    tag_162:\n        /* \"VotDao.sol\":2577:2585  pollings */\n      0x02\n        /* \"VotDao.sol\":2577:2599  pollings[newPollingId] */\n      0x00\n        /* \"VotDao.sol\":2586:2598  newPollingId */\n      dup4\n        /* \"VotDao.sol\":2577:2599  pollings[newPollingId] */\n      dup2\n      mstore\n      0x20\n      add\n      swap1\n      dup2\n      mstore\n      0x20\n      add\n      0x00\n      keccak256\n        /* \"VotDao.sol\":2577:2614  pollings[newPollingId].expirationDate */\n      0x01\n      add\n        /* \"VotDao.sol\":2577:2649  pollings[newPollingId].expirationDate=block.timestamp +_durationInSecond */\n      dup2\n      swap1\n      sstore\n      pop\n        /* \"VotDao.sol\":2693:2703  _imageHash */\n      dup3\n        /* \"VotDao.sol\":2660:2668  pollings */\n      0x02\n        /* \"VotDao.sol\":2660:2682  pollings[newPollingId] */\n      0x00\n        /* \"VotDao.sol\":2669:2681  newPollingId */\n      dup4\n        /* \"VotDao.sol\":2660:2682  pollings[newPollingId] */\n      dup2\n      mstore\n      0x20\n      add\n      swap1\n      dup2\n      mstore\n      0x20\n      add\n      0x00\n      keccak256\n        /* \"VotDao.sol\":2660:2692  pollings[newPollingId].imageHash */\n      0x02\n      add\n        /* \"VotDao.sol\":2660:2703  pollings[newPollingId].imageHash=_imageHash */\n      swap1\n      dup2\n      tag_164\n      swap2\n      swap1\n      tag_85\n      jump\t// in\n    tag_164:\n      pop\n        /* \"VotDao.sol\":2749:2750  0 */\n      0x00\n        /* \"VotDao.sol\":2714:2722  pollings */\n      0x02\n        /* \"VotDao.sol\":2714:2736  pollings[newPollingId] */\n      0x00\n        /* \"VotDao.sol\":2723:2735  newPollingId */\n      dup4\n        /* \"VotDao.sol\":2714:2736  pollings[newPollingId] */\n      dup2\n      mstore\n      0x20\n      add\n      swap1\n      dup2\n      mstore\n      0x20\n      add\n      0x00\n      keccak256\n        /* \"VotDao.sol\":2714:2748  pollings[newPollingId].rejectVotes */\n      0x05\n      add\n        /* \"VotDao.sol\":2714:2750  pollings[newPollingId].rejectVotes=0 */\n      dup2\n      swap1\n      sstore\n      pop\n        /* \"VotDao.sol\":2796:2797  0 */\n      0x00\n        /* \"VotDao.sol\":2761:2769  pollings */\n      0x02\n        /* \"VotDao.sol\":2761:2783  pollings[newPollingId] */\n      0x00\n        /* \"VotDao.sol\":2770:2782  newPollingId */\n      dup4\n        /* \"VotDao.sol\":2761:2783  pollings[newPollingId] */\n      dup2\n      mstore\n      0x20\n      add\n      swap1\n      dup2\n      mstore\n      0x20\n      add\n      0x00\n      keccak256\n        /* \"VotDao.sol\":2761:2795  pollings[newPollingId].acceptVotes */\n      0x06\n      add\n        /* \"VotDao.sol\":2761:2797  pollings[newPollingId].acceptVotes=0 */\n      dup2\n      swap1\n      sstore\n      pop\n        /* \"VotDao.sol\":2850:2851  0 */\n      0x00\n        /* \"VotDao.sol\":2808:2816  pollings */\n      0x02\n        /* \"VotDao.sol\":2808:2830  pollings[newPollingId] */\n      0x00\n        /* \"VotDao.sol\":2817:2829  newPollingId */\n      dup4\n        /* \"VotDao.sol\":2808:2830  pollings[newPollingId] */\n      dup2\n      mstore\n      0x20\n      add\n      swap1\n      dup2\n      mstore\n      0x20\n      add\n      0x00\n      keccak256\n        /* \"VotDao.sol\":2808:2849  pollings[newPollingId].notInterestedVotes */\n      0x07\n      add\n        /* \"VotDao.sol\":2808:2851  pollings[newPollingId].notInterestedVotes=0 */\n      dup2\n      swap1\n      sstore\n      pop\n        /* \"VotDao.sol\":2892:2896  true */\n      0x01\n        /* \"VotDao.sol\":2862:2870  pollings */\n      0x02\n        /* \"VotDao.sol\":2862:2884  pollings[newPollingId] */\n      0x00\n        /* \"VotDao.sol\":2871:2883  newPollingId */\n      dup4\n        /* \"VotDao.sol\":2862:2884  pollings[newPollingId] */\n      dup2\n      mstore\n      0x20\n      add\n      swap1\n      dup2\n      mstore\n      0x20\n      add\n      0x00\n      keccak256\n        /* \"VotDao.sol\":2862:2891  pollings[newPollingId].exists */\n      0x08\n      add\n      0x00\n        /* \"VotDao.sol\":2862:2896  pollings[newPollingId].exists=true */\n      0x0100\n      exp\n      dup2\n      sload\n      dup2\n      0xff\n      mul\n      not\n      and\n      swap1\n      dup4\n      iszero\n      iszero\n      mul\n      or\n      swap1\n      sstore\n      pop\n        /* \"VotDao.sol\":2946:2958  newPollingId */\n      dup1\n        /* \"VotDao.sol\":2931:3019  pollingCreated(newPollingId, _title, block.timestamp+_durationInSecond, block.timestamp) */\n      0xc12ed8d302ff006db51c496d9dc9f900ffc6f4d54f461eb0cd812b0a08b80804\n        /* \"VotDao.sol\":2960:2966  _title */\n      dup7\n        /* \"VotDao.sol\":2984:3001  _durationInSecond */\n      dup7\n        /* \"VotDao.sol\":2968:2983  block.timestamp */\n      timestamp\n        /* \"VotDao.sol\":2968:3001  block.timestamp+_durationInSecond */\n      tag_165\n      swap2\n      swap1\n      tag_163\n      jump\t// in\n    tag_165:\n        /* \"VotDao.sol\":3003:3018  block.timestamp */\n      timestamp\n        /* \"VotDao.sol\":2931:3019  pollingCreated(newPollingId, _title, block.timestamp+_durationInSecond, block.timestamp) */\n      mload(0x40)\n      tag_166\n      swap4\n      swap3\n      swap2\n      swap1\n      tag_167\n      jump\t// in\n    tag_166:\n      mload(0x40)\n      dup1\n      swap2\n      sub\n      swap1\n      log2\n        /* \"VotDao.sol\":1945:3027  {... */\n      pop\n        /* \"VotDao.sol\":1809:3027  function createPoll(string memory _title, uint _durationInSecond, string memory _imageHash, string memory _description) public onlyAdmin{... */\n      pop\n      pop\n      pop\n      pop\n      jump\t// out\n        /* \"VotDao.sol\":241:261  address public admin */\n    tag_40:\n      0x01\n      0x00\n      swap1\n      sload\n      swap1\n      0x0100\n      exp\n      swap1\n      div\n      0xffffffffffffffffffffffffffffffffffffffff\n      and\n      dup2\n      jump\t// out\n        /* \"VotDao.sol\":4930:5048  function getVotes(uint pollingId)public view returns(Vote[] memory){... */\n    tag_45:\n        /* \"VotDao.sol\":4983:4996  Vote[] memory */\n      0x60\n        /* \"VotDao.sol\":5015:5023  pollings */\n      0x02\n        /* \"VotDao.sol\":5015:5034  pollings[pollingId] */\n      0x00\n        /* \"VotDao.sol\":5024:5033  pollingId */\n      dup4\n        /* \"VotDao.sol\":5015:5034  pollings[pollingId] */\n      dup2\n      mstore\n      0x20\n      add\n      swap1\n      dup2\n      mstore\n      0x20\n      add\n      0x00\n      keccak256\n        /* \"VotDao.sol\":5015:5040  pollings[pollingId].votes */\n      0x09\n      add\n        /* \"VotDao.sol\":5008:5040  return pollings[pollingId].votes */\n      dup1\n      sload\n      dup1\n      0x20\n      mul\n      0x20\n      add\n      mload(0x40)\n      swap1\n      dup2\n      add\n      0x40\n      mstore\n      dup1\n      swap3\n      swap2\n      swap1\n      dup2\n      dup2\n      mstore\n      0x20\n      add\n      0x00\n      swap1\n    tag_169:\n      dup3\n      dup3\n      lt\n      iszero\n      tag_170\n      jumpi\n      dup4\n      dup3\n      swap1\n      0x00\n      mstore\n      keccak256(0x00, 0x20)\n      swap1\n      0x03\n      mul\n      add\n      mload(0x40)\n      dup1\n      0x60\n      add\n      0x40\n      mstore\n      swap1\n      dup2\n      0x00\n      dup3\n      add\n      0x00\n      swap1\n      sload\n      swap1\n      0x0100\n      exp\n      swap1\n      div\n      0xffffffffffffffffffffffffffffffffffffffff\n      and\n      0xffffffffffffffffffffffffffffffffffffffff\n      and\n      0xffffffffffffffffffffffffffffffffffffffff\n      and\n      dup2\n      mstore\n      0x20\n      add\n      0x01\n      dup3\n      add\n      dup1\n      sload\n      tag_172\n      swap1\n      tag_125\n      jump\t// in\n    tag_172:\n      dup1\n      0x1f\n      add\n      0x20\n      dup1\n      swap2\n      div\n      mul\n      0x20\n      add\n      mload(0x40)\n      swap1\n      dup2\n      add\n      0x40\n      mstore\n      dup1\n      swap3\n      swap2\n      swap1\n      dup2\n      dup2\n      mstore\n      0x20\n      add\n      dup3\n      dup1\n      sload\n      tag_173\n      swap1\n      tag_125\n      jump\t// in\n    tag_173:\n      dup1\n      iszero\n      tag_174\n      jumpi\n      dup1\n      0x1f\n      lt\n      tag_175\n      jumpi\n      0x0100\n      dup1\n      dup4\n      sload\n      div\n      mul\n      dup4\n      mstore\n      swap2\n      0x20\n      add\n      swap2\n      jump(tag_174)\n    tag_175:\n      dup3\n      add\n      swap2\n      swap1\n      0x00\n      mstore\n      keccak256(0x00, 0x20)\n      swap1\n    tag_176:\n      dup2\n      sload\n      dup2\n      mstore\n      swap1\n      0x01\n      add\n      swap1\n      0x20\n      add\n      dup1\n      dup4\n      gt\n      tag_176\n      jumpi\n      dup3\n      swap1\n      sub\n      0x1f\n      and\n      dup3\n      add\n      swap2\n    tag_174:\n      pop\n      pop\n      pop\n      pop\n      pop\n      dup2\n      mstore\n      0x20\n      add\n      0x02\n      dup3\n      add\n      sload\n      dup2\n      mstore\n      pop\n      pop\n      dup2\n      mstore\n      0x20\n      add\n      swap1\n      0x01\n      add\n      swap1\n      jump(tag_169)\n    tag_170:\n      pop\n      pop\n      pop\n      pop\n      swap1\n      pop\n        /* \"VotDao.sol\":4930:5048  function getVotes(uint pollingId)public view returns(Vote[] memory){... */\n      swap2\n      swap1\n      pop\n      jump\t// out\n        /* \"@openzeppelin/contracts/utils/Counters.sol\":827:939  function current(Counter storage counter) internal view returns (uint256) {... */\n    tag_90:\n        /* \"@openzeppelin/contracts/utils/Counters.sol\":892:899  uint256 */\n      0x00\n        /* \"@openzeppelin/contracts/utils/Counters.sol\":918:925  counter */\n      dup2\n        /* \"@openzeppelin/contracts/utils/Counters.sol\":918:932  counter._value */\n      0x00\n      add\n      sload\n        /* \"@openzeppelin/contracts/utils/Counters.sol\":911:932  return counter._value */\n      swap1\n      pop\n        /* \"@openzeppelin/contracts/utils/Counters.sol\":827:939  function current(Counter storage counter) internal view returns (uint256) {... */\n      swap2\n      swap1\n      pop\n      jump\t// out\n        /* \"@openzeppelin/contracts/utils/Counters.sol\":945:1068  function increment(Counter storage counter) internal {... */\n    tag_158:\n        /* \"@openzeppelin/contracts/utils/Counters.sol\":1050:1051  1 */\n      0x01\n        /* \"@openzeppelin/contracts/utils/Counters.sol\":1032:1039  counter */\n      dup2\n        /* \"@openzeppelin/contracts/utils/Counters.sol\":1032:1046  counter._value */\n      0x00\n      add\n      0x00\n        /* \"@openzeppelin/contracts/utils/Counters.sol\":1032:1051  counter._value += 1 */\n      dup3\n      dup3\n      sload\n      add\n      swap3\n      pop\n      pop\n      dup2\n      swap1\n      sstore\n      pop\n        /* \"@openzeppelin/contracts/utils/Counters.sol\":945:1068  function increment(Counter storage counter) internal {... */\n      pop\n      jump\t// out\n        /* \"#utility.yul\":7:82   */\n    tag_179:\n        /* \"#utility.yul\":40:46   */\n      0x00\n        /* \"#utility.yul\":73:75   */\n      0x40\n        /* \"#utility.yul\":67:76   */\n      mload\n        /* \"#utility.yul\":57:76   */\n      swap1\n      pop\n        /* \"#utility.yul\":7:82   */\n      swap1\n      jump\t// out\n        /* \"#utility.yul\":88:205   */\n    tag_180:\n        /* \"#utility.yul\":197:198   */\n      0x00\n        /* \"#utility.yul\":194:195   */\n      dup1\n        /* \"#utility.yul\":187:199   */\n      revert\n        /* \"#utility.yul\":211:328   */\n    tag_181:\n        /* \"#utility.yul\":320:321   */\n      0x00\n        /* \"#utility.yul\":317:318   */\n      dup1\n        /* \"#utility.yul\":310:322   */\n      revert\n        /* \"#utility.yul\":334:411   */\n    tag_182:\n        /* \"#utility.yul\":371:378   */\n      0x00\n        /* \"#utility.yul\":400:405   */\n      dup2\n        /* \"#utility.yul\":389:405   */\n      swap1\n      pop\n        /* \"#utility.yul\":334:411   */\n      swap2\n      swap1\n      pop\n      jump\t// out\n        /* \"#utility.yul\":417:539   */\n    tag_183:\n        /* \"#utility.yul\":490:514   */\n      tag_264\n        /* \"#utility.yul\":508:513   */\n      dup2\n        /* \"#utility.yul\":490:514   */\n      tag_182\n      jump\t// in\n    tag_264:\n        /* \"#utility.yul\":483:488   */\n      dup2\n        /* \"#utility.yul\":480:515   */\n      eq\n        /* \"#utility.yul\":470:533   */\n      tag_265\n      jumpi\n        /* \"#utility.yul\":529:530   */\n      0x00\n        /* \"#utility.yul\":526:527   */\n      dup1\n        /* \"#utility.yul\":519:531   */\n      revert\n        /* \"#utility.yul\":470:533   */\n    tag_265:\n        /* \"#utility.yul\":417:539   */\n      pop\n      jump\t// out\n        /* \"#utility.yul\":545:684   */\n    tag_184:\n        /* \"#utility.yul\":591:596   */\n      0x00\n        /* \"#utility.yul\":629:635   */\n      dup2\n        /* \"#utility.yul\":616:636   */\n      calldataload\n        /* \"#utility.yul\":607:636   */\n      swap1\n      pop\n        /* \"#utility.yul\":645:678   */\n      tag_267\n        /* \"#utility.yul\":672:677   */\n      dup2\n        /* \"#utility.yul\":645:678   */\n      tag_183\n      jump\t// in\n    tag_267:\n        /* \"#utility.yul\":545:684   */\n      swap3\n      swap2\n      pop\n      pop\n      jump\t// out\n        /* \"#utility.yul\":690:807   */\n    tag_185:\n        /* \"#utility.yul\":799:800   */\n      0x00\n        /* \"#utility.yul\":796:797   */\n      dup1\n        /* \"#utility.yul\":789:801   */\n      revert\n        /* \"#utility.yul\":813:930   */\n    tag_186:\n        /* \"#utility.yul\":922:923   */\n      0x00\n        /* \"#utility.yul\":919:920   */\n      dup1\n        /* \"#utility.yul\":912:924   */\n      revert\n        /* \"#utility.yul\":936:1038   */\n    tag_187:\n        /* \"#utility.yul\":977:983   */\n      0x00\n        /* \"#utility.yul\":1028:1030   */\n      0x1f\n        /* \"#utility.yul\":1024:1031   */\n      not\n        /* \"#utility.yul\":1019:1021   */\n      0x1f\n        /* \"#utility.yul\":1012:1017   */\n      dup4\n        /* \"#utility.yul\":1008:1022   */\n      add\n        /* \"#utility.yul\":1004:1032   */\n      and\n        /* \"#utility.yul\":994:1032   */\n      swap1\n      pop\n        /* \"#utility.yul\":936:1038   */\n      swap2\n      swap1\n      pop\n      jump\t// out\n        /* \"#utility.yul\":1044:1224   */\n    tag_101:\n        /* \"#utility.yul\":1092:1169   */\n      0x4e487b7100000000000000000000000000000000000000000000000000000000\n        /* \"#utility.yul\":1089:1090   */\n      0x00\n        /* \"#utility.yul\":1082:1170   */\n      mstore\n        /* \"#utility.yul\":1189:1193   */\n      0x41\n        /* \"#utility.yul\":1186:1187   */\n      0x04\n        /* \"#utility.yul\":1179:1194   */\n      mstore\n        /* \"#utility.yul\":1213:1217   */\n      0x24\n        /* \"#utility.yul\":1210:1211   */\n      0x00\n        /* \"#utility.yul\":1203:1218   */\n      revert\n        /* \"#utility.yul\":1230:1511   */\n    tag_188:\n        /* \"#utility.yul\":1313:1340   */\n      tag_273\n        /* \"#utility.yul\":1335:1339   */\n      dup3\n        /* \"#utility.yul\":1313:1340   */\n      tag_187\n      jump\t// in\n    tag_273:\n        /* \"#utility.yul\":1305:1311   */\n      dup2\n        /* \"#utility.yul\":1301:1341   */\n      add\n        /* \"#utility.yul\":1443:1449   */\n      dup2\n        /* \"#utility.yul\":1431:1441   */\n      dup2\n        /* \"#utility.yul\":1428:1450   */\n      lt\n        /* \"#utility.yul\":1407:1425   */\n      0xffffffffffffffff\n        /* \"#utility.yul\":1395:1405   */\n      dup3\n        /* \"#utility.yul\":1392:1426   */\n      gt\n        /* \"#utility.yul\":1389:1451   */\n      or\n        /* \"#utility.yul\":1386:1474   */\n      iszero\n      tag_274\n      jumpi\n        /* \"#utility.yul\":1454:1472   */\n      tag_275\n      tag_101\n      jump\t// in\n    tag_275:\n        /* \"#utility.yul\":1386:1474   */\n    tag_274:\n        /* \"#utility.yul\":1494:1504   */\n      dup1\n        /* \"#utility.yul\":1490:1492   */\n      0x40\n        /* \"#utility.yul\":1483:1505   */\n      mstore\n        /* \"#utility.yul\":1273:1511   */\n      pop\n        /* \"#utility.yul\":1230:1511   */\n      pop\n      pop\n      jump\t// out\n        /* \"#utility.yul\":1517:1646   */\n    tag_189:\n        /* \"#utility.yul\":1551:1557   */\n      0x00\n        /* \"#utility.yul\":1578:1598   */\n      tag_277\n      tag_179\n      jump\t// in\n    tag_277:\n        /* \"#utility.yul\":1568:1598   */\n      swap1\n      pop\n        /* \"#utility.yul\":1607:1640   */\n      tag_278\n        /* \"#utility.yul\":1635:1639   */\n      dup3\n        /* \"#utility.yul\":1627:1633   */\n      dup3\n        /* \"#utility.yul\":1607:1640   */\n      tag_188\n      jump\t// in\n    tag_278:\n        /* \"#utility.yul\":1517:1646   */\n      swap2\n      swap1\n      pop\n      jump\t// out\n        /* \"#utility.yul\":1652:1960   */\n    tag_190:\n        /* \"#utility.yul\":1714:1718   */\n      0x00\n        /* \"#utility.yul\":1804:1822   */\n      0xffffffffffffffff\n        /* \"#utility.yul\":1796:1802   */\n      dup3\n        /* \"#utility.yul\":1793:1823   */\n      gt\n        /* \"#utility.yul\":1790:1846   */\n      iszero\n      tag_280\n      jumpi\n        /* \"#utility.yul\":1826:1844   */\n      tag_281\n      tag_101\n      jump\t// in\n    tag_281:\n        /* \"#utility.yul\":1790:1846   */\n    tag_280:\n        /* \"#utility.yul\":1864:1893   */\n      tag_282\n        /* \"#utility.yul\":1886:1892   */\n      dup3\n        /* \"#utility.yul\":1864:1893   */\n      tag_187\n      jump\t// in\n    tag_282:\n        /* \"#utility.yul\":1856:1893   */\n      swap1\n      pop\n        /* \"#utility.yul\":1948:1952   */\n      0x20\n        /* \"#utility.yul\":1942:1946   */\n      dup2\n        /* \"#utility.yul\":1938:1953   */\n      add\n        /* \"#utility.yul\":1930:1953   */\n      swap1\n      pop\n        /* \"#utility.yul\":1652:1960   */\n      swap2\n      swap1\n      pop\n      jump\t// out\n        /* \"#utility.yul\":1966:2114   */\n    tag_191:\n        /* \"#utility.yul\":2064:2070   */\n      dup3\n        /* \"#utility.yul\":2059:2062   */\n      dup2\n        /* \"#utility.yul\":2054:2057   */\n      dup4\n        /* \"#utility.yul\":2041:2071   */\n      calldatacopy\n        /* \"#utility.yul\":2105:2106   */\n      0x00\n        /* \"#utility.yul\":2096:2102   */\n      dup4\n        /* \"#utility.yul\":2091:2094   */\n      dup4\n        /* \"#utility.yul\":2087:2103   */\n      add\n        /* \"#utility.yul\":2080:2107   */\n      mstore\n        /* \"#utility.yul\":1966:2114   */\n      pop\n      pop\n      pop\n      jump\t// out\n        /* \"#utility.yul\":2120:2545   */\n    tag_192:\n        /* \"#utility.yul\":2198:2203   */\n      0x00\n        /* \"#utility.yul\":2223:2289   */\n      tag_285\n        /* \"#utility.yul\":2239:2288   */\n      tag_286\n        /* \"#utility.yul\":2281:2287   */\n      dup5\n        /* \"#utility.yul\":2239:2288   */\n      tag_190\n      jump\t// in\n    tag_286:\n        /* \"#utility.yul\":2223:2289   */\n      tag_189\n      jump\t// in\n    tag_285:\n        /* \"#utility.yul\":2214:2289   */\n      swap1\n      pop\n        /* \"#utility.yul\":2312:2318   */\n      dup3\n        /* \"#utility.yul\":2305:2310   */\n      dup2\n        /* \"#utility.yul\":2298:2319   */\n      mstore\n        /* \"#utility.yul\":2350:2354   */\n      0x20\n        /* \"#utility.yul\":2343:2348   */\n      dup2\n        /* \"#utility.yul\":2339:2355   */\n      add\n        /* \"#utility.yul\":2388:2391   */\n      dup5\n        /* \"#utility.yul\":2379:2385   */\n      dup5\n        /* \"#utility.yul\":2374:2377   */\n      dup5\n        /* \"#utility.yul\":2370:2386   */\n      add\n        /* \"#utility.yul\":2367:2392   */\n      gt\n        /* \"#utility.yul\":2364:2476   */\n      iszero\n      tag_287\n      jumpi\n        /* \"#utility.yul\":2395:2474   */\n      tag_288\n      tag_186\n      jump\t// in\n    tag_288:\n        /* \"#utility.yul\":2364:2476   */\n    tag_287:\n        /* \"#utility.yul\":2485:2539   */\n      tag_289\n        /* \"#utility.yul\":2532:2538   */\n      dup5\n        /* \"#utility.yul\":2527:2530   */\n      dup3\n        /* \"#utility.yul\":2522:2525   */\n      dup6\n        /* \"#utility.yul\":2485:2539   */\n      tag_191\n      jump\t// in\n    tag_289:\n        /* \"#utility.yul\":2204:2545   */\n      pop\n        /* \"#utility.yul\":2120:2545   */\n      swap4\n      swap3\n      pop\n      pop\n      pop\n      jump\t// out\n        /* \"#utility.yul\":2565:2905   */\n    tag_193:\n        /* \"#utility.yul\":2621:2626   */\n      0x00\n        /* \"#utility.yul\":2670:2673   */\n      dup3\n        /* \"#utility.yul\":2663:2667   */\n      0x1f\n        /* \"#utility.yul\":2655:2661   */\n      dup4\n        /* \"#utility.yul\":2651:2668   */\n      add\n        /* \"#utility.yul\":2647:2674   */\n      slt\n        /* \"#utility.yul\":2637:2759   */\n      tag_291\n      jumpi\n        /* \"#utility.yul\":2678:2757   */\n      tag_292\n      tag_185\n      jump\t// in\n    tag_292:\n        /* \"#utility.yul\":2637:2759   */\n    tag_291:\n        /* \"#utility.yul\":2795:2801   */\n      dup2\n        /* \"#utility.yul\":2782:2802   */\n      calldataload\n        /* \"#utility.yul\":2820:2899   */\n      tag_293\n        /* \"#utility.yul\":2895:2898   */\n      dup5\n        /* \"#utility.yul\":2887:2893   */\n      dup3\n        /* \"#utility.yul\":2880:2884   */\n      0x20\n        /* \"#utility.yul\":2872:2878   */\n      dup7\n        /* \"#utility.yul\":2868:2885   */\n      add\n        /* \"#utility.yul\":2820:2899   */\n      tag_192\n      jump\t// in\n    tag_293:\n        /* \"#utility.yul\":2811:2899   */\n      swap2\n      pop\n        /* \"#utility.yul\":2627:2905   */\n      pop\n        /* \"#utility.yul\":2565:2905   */\n      swap3\n      swap2\n      pop\n      pop\n      jump\t// out\n        /* \"#utility.yul\":2911:3565   */\n    tag_14:\n        /* \"#utility.yul\":2989:2995   */\n      0x00\n        /* \"#utility.yul\":2997:3003   */\n      dup1\n        /* \"#utility.yul\":3046:3048   */\n      0x40\n        /* \"#utility.yul\":3034:3043   */\n      dup4\n        /* \"#utility.yul\":3025:3032   */\n      dup6\n        /* \"#utility.yul\":3021:3044   */\n      sub\n        /* \"#utility.yul\":3017:3049   */\n      slt\n        /* \"#utility.yul\":3014:3133   */\n      iszero\n      tag_295\n      jumpi\n        /* \"#utility.yul\":3052:3131   */\n      tag_296\n      tag_180\n      jump\t// in\n    tag_296:\n        /* \"#utility.yul\":3014:3133   */\n    tag_295:\n        /* \"#utility.yul\":3172:3173   */\n      0x00\n        /* \"#utility.yul\":3197:3250   */\n      tag_297\n        /* \"#utility.yul\":3242:3249   */\n      dup6\n        /* \"#utility.yul\":3233:3239   */\n      dup3\n        /* \"#utility.yul\":3222:3231   */\n      dup7\n        /* \"#utility.yul\":3218:3240   */\n      add\n        /* \"#utility.yul\":3197:3250   */\n      tag_184\n      jump\t// in\n    tag_297:\n        /* \"#utility.yul\":3187:3250   */\n      swap3\n      pop\n        /* \"#utility.yul\":3143:3260   */\n      pop\n        /* \"#utility.yul\":3327:3329   */\n      0x20\n        /* \"#utility.yul\":3316:3325   */\n      dup4\n        /* \"#utility.yul\":3312:3330   */\n      add\n        /* \"#utility.yul\":3299:3331   */\n      calldataload\n        /* \"#utility.yul\":3358:3376   */\n      0xffffffffffffffff\n        /* \"#utility.yul\":3350:3356   */\n      dup2\n        /* \"#utility.yul\":3347:3377   */\n      gt\n        /* \"#utility.yul\":3344:3461   */\n      iszero\n      tag_298\n      jumpi\n        /* \"#utility.yul\":3380:3459   */\n      tag_299\n      tag_181\n      jump\t// in\n    tag_299:\n        /* \"#utility.yul\":3344:3461   */\n    tag_298:\n        /* \"#utility.yul\":3485:3548   */\n      tag_300\n        /* \"#utility.yul\":3540:3547   */\n      dup6\n        /* \"#utility.yul\":3531:3537   */\n      dup3\n        /* \"#utility.yul\":3520:3529   */\n      dup7\n        /* \"#utility.yul\":3516:3538   */\n      add\n        /* \"#utility.yul\":3485:3548   */\n      tag_193\n      jump\t// in\n    tag_300:\n        /* \"#utility.yul\":3475:3548   */\n      swap2\n      pop\n        /* \"#utility.yul\":3270:3558   */\n      pop\n        /* \"#utility.yul\":2911:3565   */\n      swap3\n      pop\n      swap3\n      swap1\n      pop\n      jump\t// out\n        /* \"#utility.yul\":3571:3685   */\n    tag_194:\n        /* \"#utility.yul\":3638:3644   */\n      0x00\n        /* \"#utility.yul\":3672:3677   */\n      dup2\n        /* \"#utility.yul\":3666:3678   */\n      mload\n        /* \"#utility.yul\":3656:3678   */\n      swap1\n      pop\n        /* \"#utility.yul\":3571:3685   */\n      swap2\n      swap1\n      pop\n      jump\t// out\n        /* \"#utility.yul\":3691:3875   */\n    tag_195:\n        /* \"#utility.yul\":3790:3801   */\n      0x00\n        /* \"#utility.yul\":3824:3830   */\n      dup3\n        /* \"#utility.yul\":3819:3822   */\n      dup3\n        /* \"#utility.yul\":3812:3831   */\n      mstore\n        /* \"#utility.yul\":3864:3868   */\n      0x20\n        /* \"#utility.yul\":3859:3862   */\n      dup3\n        /* \"#utility.yul\":3855:3869   */\n      add\n        /* \"#utility.yul\":3840:3869   */\n      swap1\n      pop\n        /* \"#utility.yul\":3691:3875   */\n      swap3\n      swap2\n      pop\n      pop\n      jump\t// out\n        /* \"#utility.yul\":3881:4013   */\n    tag_196:\n        /* \"#utility.yul\":3948:3952   */\n      0x00\n        /* \"#utility.yul\":3971:3974   */\n      dup2\n        /* \"#utility.yul\":3963:3974   */\n      swap1\n      pop\n        /* \"#utility.yul\":4001:4005   */\n      0x20\n        /* \"#utility.yul\":3996:3999   */\n      dup3\n        /* \"#utility.yul\":3992:4006   */\n      add\n        /* \"#utility.yul\":3984:4006   */\n      swap1\n      pop\n        /* \"#utility.yul\":3881:4013   */\n      swap2\n      swap1\n      pop\n      jump\t// out\n        /* \"#utility.yul\":4019:4127   */\n    tag_197:\n        /* \"#utility.yul\":4096:4120   */\n      tag_305\n        /* \"#utility.yul\":4114:4119   */\n      dup2\n        /* \"#utility.yul\":4096:4120   */\n      tag_182\n      jump\t// in\n    tag_305:\n        /* \"#utility.yul\":4091:4094   */\n      dup3\n        /* \"#utility.yul\":4084:4121   */\n      mstore\n        /* \"#utility.yul\":4019:4127   */\n      pop\n      pop\n      jump\t// out\n        /* \"#utility.yul\":4133:4312   */\n    tag_198:\n        /* \"#utility.yul\":4202:4212   */\n      0x00\n        /* \"#utility.yul\":4223:4269   */\n      tag_307\n        /* \"#utility.yul\":4265:4268   */\n      dup4\n        /* \"#utility.yul\":4257:4263   */\n      dup4\n        /* \"#utility.yul\":4223:4269   */\n      tag_197\n      jump\t// in\n    tag_307:\n        /* \"#utility.yul\":4301:4305   */\n      0x20\n        /* \"#utility.yul\":4296:4299   */\n      dup4\n        /* \"#utility.yul\":4292:4306   */\n      add\n        /* \"#utility.yul\":4278:4306   */\n      swap1\n      pop\n        /* \"#utility.yul\":4133:4312   */\n      swap3\n      swap2\n      pop\n      pop\n      jump\t// out\n        /* \"#utility.yul\":4318:4431   */\n    tag_199:\n        /* \"#utility.yul\":4388:4392   */\n      0x00\n        /* \"#utility.yul\":4420:4424   */\n      0x20\n        /* \"#utility.yul\":4415:4418   */\n      dup3\n        /* \"#utility.yul\":4411:4425   */\n      add\n        /* \"#utility.yul\":4403:4425   */\n      swap1\n      pop\n        /* \"#utility.yul\":4318:4431   */\n      swap2\n      swap1\n      pop\n      jump\t// out\n        /* \"#utility.yul\":4467:5199   */\n    tag_200:\n        /* \"#utility.yul\":4586:4589   */\n      0x00\n        /* \"#utility.yul\":4615:4669   */\n      tag_310\n        /* \"#utility.yul\":4663:4668   */\n      dup3\n        /* \"#utility.yul\":4615:4669   */\n      tag_194\n      jump\t// in\n    tag_310:\n        /* \"#utility.yul\":4685:4771   */\n      tag_311\n        /* \"#utility.yul\":4764:4770   */\n      dup2\n        /* \"#utility.yul\":4759:4762   */\n      dup6\n        /* \"#utility.yul\":4685:4771   */\n      tag_195\n      jump\t// in\n    tag_311:\n        /* \"#utility.yul\":4678:4771   */\n      swap4\n      pop\n        /* \"#utility.yul\":4795:4851   */\n      tag_312\n        /* \"#utility.yul\":4845:4850   */\n      dup4\n        /* \"#utility.yul\":4795:4851   */\n      tag_196\n      jump\t// in\n    tag_312:\n        /* \"#utility.yul\":4874:4881   */\n      dup1\n        /* \"#utility.yul\":4905:4906   */\n      0x00\n        /* \"#utility.yul\":4890:5174   */\n    tag_313:\n        /* \"#utility.yul\":4915:4921   */\n      dup4\n        /* \"#utility.yul\":4912:4913   */\n      dup2\n        /* \"#utility.yul\":4909:4922   */\n      lt\n        /* \"#utility.yul\":4890:5174   */\n      iszero\n      tag_315\n      jumpi\n        /* \"#utility.yul\":4991:4997   */\n      dup2\n        /* \"#utility.yul\":4985:4998   */\n      mload\n        /* \"#utility.yul\":5018:5081   */\n      tag_316\n        /* \"#utility.yul\":5077:5080   */\n      dup9\n        /* \"#utility.yul\":5062:5075   */\n      dup3\n        /* \"#utility.yul\":5018:5081   */\n      tag_198\n      jump\t// in\n    tag_316:\n        /* \"#utility.yul\":5011:5081   */\n      swap8\n      pop\n        /* \"#utility.yul\":5104:5164   */\n      tag_317\n        /* \"#utility.yul\":5157:5163   */\n      dup4\n        /* \"#utility.yul\":5104:5164   */\n      tag_199\n      jump\t// in\n    tag_317:\n        /* \"#utility.yul\":5094:5164   */\n      swap3\n      pop\n        /* \"#utility.yul\":4950:5174   */\n      pop\n        /* \"#utility.yul\":4937:4938   */\n      0x01\n        /* \"#utility.yul\":4934:4935   */\n      dup2\n        /* \"#utility.yul\":4930:4939   */\n      add\n        /* \"#utility.yul\":4925:4939   */\n      swap1\n      pop\n        /* \"#utility.yul\":4890:5174   */\n      jump(tag_313)\n    tag_315:\n        /* \"#utility.yul\":4894:4908   */\n      pop\n        /* \"#utility.yul\":5190:5193   */\n      dup6\n        /* \"#utility.yul\":5183:5193   */\n      swap4\n      pop\n        /* \"#utility.yul\":4591:5199   */\n      pop\n      pop\n      pop\n        /* \"#utility.yul\":4467:5199   */\n      swap3\n      swap2\n      pop\n      pop\n      jump\t// out\n        /* \"#utility.yul\":5205:5839   */\n    tag_19:\n        /* \"#utility.yul\":5426:5430   */\n      0x00\n        /* \"#utility.yul\":5464:5466   */\n      0x40\n        /* \"#utility.yul\":5453:5462   */\n      dup3\n        /* \"#utility.yul\":5449:5467   */\n      add\n        /* \"#utility.yul\":5441:5467   */\n      swap1\n      pop\n        /* \"#utility.yul\":5513:5522   */\n      dup2\n        /* \"#utility.yul\":5507:5511   */\n      dup2\n        /* \"#utility.yul\":5503:5523   */\n      sub\n        /* \"#utility.yul\":5499:5500   */\n      0x00\n        /* \"#utility.yul\":5488:5497   */\n      dup4\n        /* \"#utility.yul\":5484:5501   */\n      add\n        /* \"#utility.yul\":5477:5524   */\n      mstore\n        /* \"#utility.yul\":5541:5649   */\n      tag_319\n        /* \"#utility.yul\":5644:5648   */\n      dup2\n        /* \"#utility.yul\":5635:5641   */\n      dup6\n        /* \"#utility.yul\":5541:5649   */\n      tag_200\n      jump\t// in\n    tag_319:\n        /* \"#utility.yul\":5533:5649   */\n      swap1\n      pop\n        /* \"#utility.yul\":5696:5705   */\n      dup2\n        /* \"#utility.yul\":5690:5694   */\n      dup2\n        /* \"#utility.yul\":5686:5706   */\n      sub\n        /* \"#utility.yul\":5681:5683   */\n      0x20\n        /* \"#utility.yul\":5670:5679   */\n      dup4\n        /* \"#utility.yul\":5666:5684   */\n      add\n        /* \"#utility.yul\":5659:5707   */\n      mstore\n        /* \"#utility.yul\":5724:5832   */\n      tag_320\n        /* \"#utility.yul\":5827:5831   */\n      dup2\n        /* \"#utility.yul\":5818:5824   */\n      dup5\n        /* \"#utility.yul\":5724:5832   */\n      tag_200\n      jump\t// in\n    tag_320:\n        /* \"#utility.yul\":5716:5832   */\n      swap1\n      pop\n        /* \"#utility.yul\":5205:5839   */\n      swap4\n      swap3\n      pop\n      pop\n      pop\n      jump\t// out\n        /* \"#utility.yul\":5845:5963   */\n    tag_201:\n        /* \"#utility.yul\":5932:5956   */\n      tag_322\n        /* \"#utility.yul\":5950:5955   */\n      dup2\n        /* \"#utility.yul\":5932:5956   */\n      tag_182\n      jump\t// in\n    tag_322:\n        /* \"#utility.yul\":5927:5930   */\n      dup3\n        /* \"#utility.yul\":5920:5957   */\n      mstore\n        /* \"#utility.yul\":5845:5963   */\n      pop\n      pop\n      jump\t// out\n        /* \"#utility.yul\":5969:6191   */\n    tag_23:\n        /* \"#utility.yul\":6062:6066   */\n      0x00\n        /* \"#utility.yul\":6100:6102   */\n      0x20\n        /* \"#utility.yul\":6089:6098   */\n      dup3\n        /* \"#utility.yul\":6085:6103   */\n      add\n        /* \"#utility.yul\":6077:6103   */\n      swap1\n      pop\n        /* \"#utility.yul\":6113:6184   */\n      tag_324\n        /* \"#utility.yul\":6181:6182   */\n      0x00\n        /* \"#utility.yul\":6170:6179   */\n      dup4\n        /* \"#utility.yul\":6166:6183   */\n      add\n        /* \"#utility.yul\":6157:6163   */\n      dup5\n        /* \"#utility.yul\":6113:6184   */\n      tag_201\n      jump\t// in\n    tag_324:\n        /* \"#utility.yul\":5969:6191   */\n      swap3\n      swap2\n      pop\n      pop\n      jump\t// out\n        /* \"#utility.yul\":6197:6526   */\n    tag_26:\n        /* \"#utility.yul\":6256:6262   */\n      0x00\n        /* \"#utility.yul\":6305:6307   */\n      0x20\n        /* \"#utility.yul\":6293:6302   */\n      dup3\n        /* \"#utility.yul\":6284:6291   */\n      dup5\n        /* \"#utility.yul\":6280:6303   */\n      sub\n        /* \"#utility.yul\":6276:6308   */\n      slt\n        /* \"#utility.yul\":6273:6392   */\n      iszero\n      tag_326\n      jumpi\n        /* \"#utility.yul\":6311:6390   */\n      tag_327\n      tag_180\n      jump\t// in\n    tag_327:\n        /* \"#utility.yul\":6273:6392   */\n    tag_326:\n        /* \"#utility.yul\":6431:6432   */\n      0x00\n        /* \"#utility.yul\":6456:6509   */\n      tag_328\n        /* \"#utility.yul\":6501:6508   */\n      dup5\n        /* \"#utility.yul\":6492:6498   */\n      dup3\n        /* \"#utility.yul\":6481:6490   */\n      dup6\n        /* \"#utility.yul\":6477:6499   */\n      add\n        /* \"#utility.yul\":6456:6509   */\n      tag_184\n      jump\t// in\n    tag_328:\n        /* \"#utility.yul\":6446:6509   */\n      swap2\n      pop\n        /* \"#utility.yul\":6402:6519   */\n      pop\n        /* \"#utility.yul\":6197:6526   */\n      swap3\n      swap2\n      pop\n      pop\n      jump\t// out\n        /* \"#utility.yul\":6532:6622   */\n    tag_202:\n        /* \"#utility.yul\":6566:6573   */\n      0x00\n        /* \"#utility.yul\":6609:6614   */\n      dup2\n        /* \"#utility.yul\":6602:6615   */\n      iszero\n        /* \"#utility.yul\":6595:6616   */\n      iszero\n        /* \"#utility.yul\":6584:6616   */\n      swap1\n      pop\n        /* \"#utility.yul\":6532:6622   */\n      swap2\n      swap1\n      pop\n      jump\t// out\n        /* \"#utility.yul\":6628:6737   */\n    tag_203:\n        /* \"#utility.yul\":6709:6730   */\n      tag_331\n        /* \"#utility.yul\":6724:6729   */\n      dup2\n        /* \"#utility.yul\":6709:6730   */\n      tag_202\n      jump\t// in\n    tag_331:\n        /* \"#utility.yul\":6704:6707   */\n      dup3\n        /* \"#utility.yul\":6697:6731   */\n      mstore\n        /* \"#utility.yul\":6628:6737   */\n      pop\n      pop\n      jump\t// out\n        /* \"#utility.yul\":6743:6953   */\n    tag_29:\n        /* \"#utility.yul\":6830:6834   */\n      0x00\n        /* \"#utility.yul\":6868:6870   */\n      0x20\n        /* \"#utility.yul\":6857:6866   */\n      dup3\n        /* \"#utility.yul\":6853:6871   */\n      add\n        /* \"#utility.yul\":6845:6871   */\n      swap1\n      pop\n        /* \"#utility.yul\":6881:6946   */\n      tag_333\n        /* \"#utility.yul\":6943:6944   */\n      0x00\n        /* \"#utility.yul\":6932:6941   */\n      dup4\n        /* \"#utility.yul\":6928:6945   */\n      add\n        /* \"#utility.yul\":6919:6925   */\n      dup5\n        /* \"#utility.yul\":6881:6946   */\n      tag_203\n      jump\t// in\n    tag_333:\n        /* \"#utility.yul\":6743:6953   */\n      swap3\n      swap2\n      pop\n      pop\n      jump\t// out\n        /* \"#utility.yul\":6959:7058   */\n    tag_204:\n        /* \"#utility.yul\":7011:7017   */\n      0x00\n        /* \"#utility.yul\":7045:7050   */\n      dup2\n        /* \"#utility.yul\":7039:7051   */\n      mload\n        /* \"#utility.yul\":7029:7051   */\n      swap1\n      pop\n        /* \"#utility.yul\":6959:7058   */\n      swap2\n      swap1\n      pop\n      jump\t// out\n        /* \"#utility.yul\":7064:7233   */\n    tag_205:\n        /* \"#utility.yul\":7148:7159   */\n      0x00\n        /* \"#utility.yul\":7182:7188   */\n      dup3\n        /* \"#utility.yul\":7177:7180   */\n      dup3\n        /* \"#utility.yul\":7170:7189   */\n      mstore\n        /* \"#utility.yul\":7222:7226   */\n      0x20\n        /* \"#utility.yul\":7217:7220   */\n      dup3\n        /* \"#utility.yul\":7213:7227   */\n      add\n        /* \"#utility.yul\":7198:7227   */\n      swap1\n      pop\n        /* \"#utility.yul\":7064:7233   */\n      swap3\n      swap2\n      pop\n      pop\n      jump\t// out\n        /* \"#utility.yul\":7239:7378   */\n    tag_206:\n        /* \"#utility.yul\":7328:7334   */\n      dup3\n        /* \"#utility.yul\":7323:7326   */\n      dup2\n        /* \"#utility.yul\":7318:7321   */\n      dup4\n        /* \"#utility.yul\":7312:7335   */\n      mcopy\n        /* \"#utility.yul\":7369:7370   */\n      0x00\n        /* \"#utility.yul\":7360:7366   */\n      dup4\n        /* \"#utility.yul\":7355:7358   */\n      dup4\n        /* \"#utility.yul\":7351:7367   */\n      add\n        /* \"#utility.yul\":7344:7371   */\n      mstore\n        /* \"#utility.yul\":7239:7378   */\n      pop\n      pop\n      pop\n      jump\t// out\n        /* \"#utility.yul\":7384:7761   */\n    tag_207:\n        /* \"#utility.yul\":7472:7475   */\n      0x00\n        /* \"#utility.yul\":7500:7539   */\n      tag_338\n        /* \"#utility.yul\":7533:7538   */\n      dup3\n        /* \"#utility.yul\":7500:7539   */\n      tag_204\n      jump\t// in\n    tag_338:\n        /* \"#utility.yul\":7555:7626   */\n      tag_339\n        /* \"#utility.yul\":7619:7625   */\n      dup2\n        /* \"#utility.yul\":7614:7617   */\n      dup6\n        /* \"#utility.yul\":7555:7626   */\n      tag_205\n      jump\t// in\n    tag_339:\n        /* \"#utility.yul\":7548:7626   */\n      swap4\n      pop\n        /* \"#utility.yul\":7635:7700   */\n      tag_340\n        /* \"#utility.yul\":7693:7699   */\n      dup2\n        /* \"#utility.yul\":7688:7691   */\n      dup6\n        /* \"#utility.yul\":7681:7685   */\n      0x20\n        /* \"#utility.yul\":7674:7679   */\n      dup7\n        /* \"#utility.yul\":7670:7686   */\n      add\n        /* \"#utility.yul\":7635:7700   */\n      tag_206\n      jump\t// in\n    tag_340:\n        /* \"#utility.yul\":7725:7754   */\n      tag_341\n        /* \"#utility.yul\":7747:7753   */\n      dup2\n        /* \"#utility.yul\":7725:7754   */\n      tag_187\n      jump\t// in\n    tag_341:\n        /* \"#utility.yul\":7720:7723   */\n      dup5\n        /* \"#utility.yul\":7716:7755   */\n      add\n        /* \"#utility.yul\":7709:7755   */\n      swap2\n      pop\n        /* \"#utility.yul\":7476:7761   */\n      pop\n        /* \"#utility.yul\":7384:7761   */\n      swap3\n      swap2\n      pop\n      pop\n      jump\t// out\n        /* \"#utility.yul\":7767:8926   */\n    tag_34:\n        /* \"#utility.yul\":8088:8092   */\n      0x00\n        /* \"#utility.yul\":8126:8129   */\n      0xe0\n        /* \"#utility.yul\":8115:8124   */\n      dup3\n        /* \"#utility.yul\":8111:8130   */\n      add\n        /* \"#utility.yul\":8103:8130   */\n      swap1\n      pop\n        /* \"#utility.yul\":8176:8185   */\n      dup2\n        /* \"#utility.yul\":8170:8174   */\n      dup2\n        /* \"#utility.yul\":8166:8186   */\n      sub\n        /* \"#utility.yul\":8162:8163   */\n      0x00\n        /* \"#utility.yul\":8151:8160   */\n      dup4\n        /* \"#utility.yul\":8147:8164   */\n      add\n        /* \"#utility.yul\":8140:8187   */\n      mstore\n        /* \"#utility.yul\":8204:8282   */\n      tag_343\n        /* \"#utility.yul\":8277:8281   */\n      dup2\n        /* \"#utility.yul\":8268:8274   */\n      dup11\n        /* \"#utility.yul\":8204:8282   */\n      tag_207\n      jump\t// in\n    tag_343:\n        /* \"#utility.yul\":8196:8282   */\n      swap1\n      pop\n        /* \"#utility.yul\":8292:8364   */\n      tag_344\n        /* \"#utility.yul\":8360:8362   */\n      0x20\n        /* \"#utility.yul\":8349:8358   */\n      dup4\n        /* \"#utility.yul\":8345:8363   */\n      add\n        /* \"#utility.yul\":8336:8342   */\n      dup10\n        /* \"#utility.yul\":8292:8364   */\n      tag_201\n      jump\t// in\n    tag_344:\n        /* \"#utility.yul\":8411:8420   */\n      dup2\n        /* \"#utility.yul\":8405:8409   */\n      dup2\n        /* \"#utility.yul\":8401:8421   */\n      sub\n        /* \"#utility.yul\":8396:8398   */\n      0x40\n        /* \"#utility.yul\":8385:8394   */\n      dup4\n        /* \"#utility.yul\":8381:8399   */\n      add\n        /* \"#utility.yul\":8374:8422   */\n      mstore\n        /* \"#utility.yul\":8439:8517   */\n      tag_345\n        /* \"#utility.yul\":8512:8516   */\n      dup2\n        /* \"#utility.yul\":8503:8509   */\n      dup9\n        /* \"#utility.yul\":8439:8517   */\n      tag_207\n      jump\t// in\n    tag_345:\n        /* \"#utility.yul\":8431:8517   */\n      swap1\n      pop\n        /* \"#utility.yul\":8564:8573   */\n      dup2\n        /* \"#utility.yul\":8558:8562   */\n      dup2\n        /* \"#utility.yul\":8554:8574   */\n      sub\n        /* \"#utility.yul\":8549:8551   */\n      0x60\n        /* \"#utility.yul\":8538:8547   */\n      dup4\n        /* \"#utility.yul\":8534:8552   */\n      add\n        /* \"#utility.yul\":8527:8575   */\n      mstore\n        /* \"#utility.yul\":8592:8670   */\n      tag_346\n        /* \"#utility.yul\":8665:8669   */\n      dup2\n        /* \"#utility.yul\":8656:8662   */\n      dup8\n        /* \"#utility.yul\":8592:8670   */\n      tag_207\n      jump\t// in\n    tag_346:\n        /* \"#utility.yul\":8584:8670   */\n      swap1\n      pop\n        /* \"#utility.yul\":8680:8753   */\n      tag_347\n        /* \"#utility.yul\":8748:8751   */\n      0x80\n        /* \"#utility.yul\":8737:8746   */\n      dup4\n        /* \"#utility.yul\":8733:8752   */\n      add\n        /* \"#utility.yul\":8724:8730   */\n      dup7\n        /* \"#utility.yul\":8680:8753   */\n      tag_201\n      jump\t// in\n    tag_347:\n        /* \"#utility.yul\":8763:8836   */\n      tag_348\n        /* \"#utility.yul\":8831:8834   */\n      0xa0\n        /* \"#utility.yul\":8820:8829   */\n      dup4\n        /* \"#utility.yul\":8816:8835   */\n      add\n        /* \"#utility.yul\":8807:8813   */\n      dup6\n        /* \"#utility.yul\":8763:8836   */\n      tag_201\n      jump\t// in\n    tag_348:\n        /* \"#utility.yul\":8846:8919   */\n      tag_349\n        /* \"#utility.yul\":8914:8917   */\n      0xc0\n        /* \"#utility.yul\":8903:8912   */\n      dup4\n        /* \"#utility.yul\":8899:8918   */\n      add\n        /* \"#utility.yul\":8890:8896   */\n      dup5\n        /* \"#utility.yul\":8846:8919   */\n      tag_201\n      jump\t// in\n    tag_349:\n        /* \"#utility.yul\":7767:8926   */\n      swap9\n      swap8\n      pop\n      pop\n      pop\n      pop\n      pop\n      pop\n      pop\n      pop\n      jump\t// out\n        /* \"#utility.yul\":8932:10237   */\n    tag_37:\n        /* \"#utility.yul\":9048:9054   */\n      0x00\n        /* \"#utility.yul\":9056:9062   */\n      dup1\n        /* \"#utility.yul\":9064:9070   */\n      0x00\n        /* \"#utility.yul\":9072:9078   */\n      dup1\n        /* \"#utility.yul\":9121:9124   */\n      0x80\n        /* \"#utility.yul\":9109:9118   */\n      dup6\n        /* \"#utility.yul\":9100:9107   */\n      dup8\n        /* \"#utility.yul\":9096:9119   */\n      sub\n        /* \"#utility.yul\":9092:9125   */\n      slt\n        /* \"#utility.yul\":9089:9209   */\n      iszero\n      tag_351\n      jumpi\n        /* \"#utility.yul\":9128:9207   */\n      tag_352\n      tag_180\n      jump\t// in\n    tag_352:\n        /* \"#utility.yul\":9089:9209   */\n    tag_351:\n        /* \"#utility.yul\":9276:9277   */\n      0x00\n        /* \"#utility.yul\":9265:9274   */\n      dup6\n        /* \"#utility.yul\":9261:9278   */\n      add\n        /* \"#utility.yul\":9248:9279   */\n      calldataload\n        /* \"#utility.yul\":9306:9324   */\n      0xffffffffffffffff\n        /* \"#utility.yul\":9298:9304   */\n      dup2\n        /* \"#utility.yul\":9295:9325   */\n      gt\n        /* \"#utility.yul\":9292:9409   */\n      iszero\n      tag_353\n      jumpi\n        /* \"#utility.yul\":9328:9407   */\n      tag_354\n      tag_181\n      jump\t// in\n    tag_354:\n        /* \"#utility.yul\":9292:9409   */\n    tag_353:\n        /* \"#utility.yul\":9433:9496   */\n      tag_355\n        /* \"#utility.yul\":9488:9495   */\n      dup8\n        /* \"#utility.yul\":9479:9485   */\n      dup3\n        /* \"#utility.yul\":9468:9477   */\n      dup9\n        /* \"#utility.yul\":9464:9486   */\n      add\n        /* \"#utility.yul\":9433:9496   */\n      tag_193\n      jump\t// in\n    tag_355:\n        /* \"#utility.yul\":9423:9496   */\n      swap5\n      pop\n        /* \"#utility.yul\":9219:9506   */\n      pop\n        /* \"#utility.yul\":9545:9547   */\n      0x20\n        /* \"#utility.yul\":9571:9624   */\n      tag_356\n        /* \"#utility.yul\":9616:9623   */\n      dup8\n        /* \"#utility.yul\":9607:9613   */\n      dup3\n        /* \"#utility.yul\":9596:9605   */\n      dup9\n        /* \"#utility.yul\":9592:9614   */\n      add\n        /* \"#utility.yul\":9571:9624   */\n      tag_184\n      jump\t// in\n    tag_356:\n        /* \"#utility.yul\":9561:9624   */\n      swap4\n      pop\n        /* \"#utility.yul\":9516:9634   */\n      pop\n        /* \"#utility.yul\":9701:9703   */\n      0x40\n        /* \"#utility.yul\":9690:9699   */\n      dup6\n        /* \"#utility.yul\":9686:9704   */\n      add\n        /* \"#utility.yul\":9673:9705   */\n      calldataload\n        /* \"#utility.yul\":9732:9750   */\n      0xffffffffffffffff\n        /* \"#utility.yul\":9724:9730   */\n      dup2\n        /* \"#utility.yul\":9721:9751   */\n      gt\n        /* \"#utility.yul\":9718:9835   */\n      iszero\n      tag_357\n      jumpi\n        /* \"#utility.yul\":9754:9833   */\n      tag_358\n      tag_181\n      jump\t// in\n    tag_358:\n        /* \"#utility.yul\":9718:9835   */\n    tag_357:\n        /* \"#utility.yul\":9859:9922   */\n      tag_359\n        /* \"#utility.yul\":9914:9921   */\n      dup8\n        /* \"#utility.yul\":9905:9911   */\n      dup3\n        /* \"#utility.yul\":9894:9903   */\n      dup9\n        /* \"#utility.yul\":9890:9912   */\n      add\n        /* \"#utility.yul\":9859:9922   */\n      tag_193\n      jump\t// in\n    tag_359:\n        /* \"#utility.yul\":9849:9922   */\n      swap3\n      pop\n        /* \"#utility.yul\":9644:9932   */\n      pop\n        /* \"#utility.yul\":9999:10001   */\n      0x60\n        /* \"#utility.yul\":9988:9997   */\n      dup6\n        /* \"#utility.yul\":9984:10002   */\n      add\n        /* \"#utility.yul\":9971:10003   */\n      calldataload\n        /* \"#utility.yul\":10030:10048   */\n      0xffffffffffffffff\n        /* \"#utility.yul\":10022:10028   */\n      dup2\n        /* \"#utility.yul\":10019:10049   */\n      gt\n        /* \"#utility.yul\":10016:10133   */\n      iszero\n      tag_360\n      jumpi\n        /* \"#utility.yul\":10052:10131   */\n      tag_361\n      tag_181\n      jump\t// in\n    tag_361:\n        /* \"#utility.yul\":10016:10133   */\n    tag_360:\n        /* \"#utility.yul\":10157:10220   */\n      tag_362\n        /* \"#utility.yul\":10212:10219   */\n      dup8\n        /* \"#utility.yul\":10203:10209   */\n      dup3\n        /* \"#utility.yul\":10192:10201   */\n      dup9\n        /* \"#utility.yul\":10188:10210   */\n      add\n        /* \"#utility.yul\":10157:10220   */\n      tag_193\n      jump\t// in\n    tag_362:\n        /* \"#utility.yul\":10147:10220   */\n      swap2\n      pop\n        /* \"#utility.yul\":9942:10230   */\n      pop\n        /* \"#utility.yul\":8932:10237   */\n      swap3\n      swap6\n      swap2\n      swap5\n      pop\n      swap3\n      pop\n      jump\t// out\n        /* \"#utility.yul\":10243:10369   */\n    tag_208:\n        /* \"#utility.yul\":10280:10287   */\n      0x00\n        /* \"#utility.yul\":10320:10362   */\n      0xffffffffffffffffffffffffffffffffffffffff\n        /* \"#utility.yul\":10313:10318   */\n      dup3\n        /* \"#utility.yul\":10309:10363   */\n      and\n        /* \"#utility.yul\":10298:10363   */\n      swap1\n      pop\n        /* \"#utility.yul\":10243:10369   */\n      swap2\n      swap1\n      pop\n      jump\t// out\n        /* \"#utility.yul\":10375:10471   */\n    tag_209:\n        /* \"#utility.yul\":10412:10419   */\n      0x00\n        /* \"#utility.yul\":10441:10465   */\n      tag_365\n        /* \"#utility.yul\":10459:10464   */\n      dup3\n        /* \"#utility.yul\":10441:10465   */\n      tag_208\n      jump\t// in\n    tag_365:\n        /* \"#utility.yul\":10430:10465   */\n      swap1\n      pop\n        /* \"#utility.yul\":10375:10471   */\n      swap2\n      swap1\n      pop\n      jump\t// out\n        /* \"#utility.yul\":10477:10595   */\n    tag_210:\n        /* \"#utility.yul\":10564:10588   */\n      tag_367\n        /* \"#utility.yul\":10582:10587   */\n      dup2\n        /* \"#utility.yul\":10564:10588   */\n      tag_209\n      jump\t// in\n    tag_367:\n        /* \"#utility.yul\":10559:10562   */\n      dup3\n        /* \"#utility.yul\":10552:10589   */\n      mstore\n        /* \"#utility.yul\":10477:10595   */\n      pop\n      pop\n      jump\t// out\n        /* \"#utility.yul\":10601:10823   */\n    tag_42:\n        /* \"#utility.yul\":10694:10698   */\n      0x00\n        /* \"#utility.yul\":10732:10734   */\n      0x20\n        /* \"#utility.yul\":10721:10730   */\n      dup3\n        /* \"#utility.yul\":10717:10735   */\n      add\n        /* \"#utility.yul\":10709:10735   */\n      swap1\n      pop\n        /* \"#utility.yul\":10745:10816   */\n      tag_369\n        /* \"#utility.yul\":10813:10814   */\n      0x00\n        /* \"#utility.yul\":10802:10811   */\n      dup4\n        /* \"#utility.yul\":10798:10815   */\n      add\n        /* \"#utility.yul\":10789:10795   */\n      dup5\n        /* \"#utility.yul\":10745:10816   */\n      tag_210\n      jump\t// in\n    tag_369:\n        /* \"#utility.yul\":10601:10823   */\n      swap3\n      swap2\n      pop\n      pop\n      jump\t// out\n        /* \"#utility.yul\":10829:10964   */\n    tag_211:\n        /* \"#utility.yul\":10917:10923   */\n      0x00\n        /* \"#utility.yul\":10951:10956   */\n      dup2\n        /* \"#utility.yul\":10945:10957   */\n      mload\n        /* \"#utility.yul\":10935:10957   */\n      swap1\n      pop\n        /* \"#utility.yul\":10829:10964   */\n      swap2\n      swap1\n      pop\n      jump\t// out\n        /* \"#utility.yul\":10970:11175   */\n    tag_212:\n        /* \"#utility.yul\":11090:11101   */\n      0x00\n        /* \"#utility.yul\":11124:11130   */\n      dup3\n        /* \"#utility.yul\":11119:11122   */\n      dup3\n        /* \"#utility.yul\":11112:11131   */\n      mstore\n        /* \"#utility.yul\":11164:11168   */\n      0x20\n        /* \"#utility.yul\":11159:11162   */\n      dup3\n        /* \"#utility.yul\":11155:11169   */\n      add\n        /* \"#utility.yul\":11140:11169   */\n      swap1\n      pop\n        /* \"#utility.yul\":10970:11175   */\n      swap3\n      swap2\n      pop\n      pop\n      jump\t// out\n        /* \"#utility.yul\":11181:11334   */\n    tag_213:\n        /* \"#utility.yul\":11269:11273   */\n      0x00\n        /* \"#utility.yul\":11292:11295   */\n      dup2\n        /* \"#utility.yul\":11284:11295   */\n      swap1\n      pop\n        /* \"#utility.yul\":11322:11326   */\n      0x20\n        /* \"#utility.yul\":11317:11320   */\n      dup3\n        /* \"#utility.yul\":11313:11327   */\n      add\n        /* \"#utility.yul\":11305:11327   */\n      swap1\n      pop\n        /* \"#utility.yul\":11181:11334   */\n      swap2\n      swap1\n      pop\n      jump\t// out\n        /* \"#utility.yul\":11340:11448   */\n    tag_214:\n        /* \"#utility.yul\":11417:11441   */\n      tag_374\n        /* \"#utility.yul\":11435:11440   */\n      dup2\n        /* \"#utility.yul\":11417:11441   */\n      tag_209\n      jump\t// in\n    tag_374:\n        /* \"#utility.yul\":11412:11415   */\n      dup3\n        /* \"#utility.yul\":11405:11442   */\n      mstore\n        /* \"#utility.yul\":11340:11448   */\n      pop\n      pop\n      jump\t// out\n        /* \"#utility.yul\":11454:11613   */\n    tag_215:\n        /* \"#utility.yul\":11528:11539   */\n      0x00\n        /* \"#utility.yul\":11562:11568   */\n      dup3\n        /* \"#utility.yul\":11557:11560   */\n      dup3\n        /* \"#utility.yul\":11550:11569   */\n      mstore\n        /* \"#utility.yul\":11602:11606   */\n      0x20\n        /* \"#utility.yul\":11597:11600   */\n      dup3\n        /* \"#utility.yul\":11593:11607   */\n      add\n        /* \"#utility.yul\":11578:11607   */\n      swap1\n      pop\n        /* \"#utility.yul\":11454:11613   */\n      swap3\n      swap2\n      pop\n      pop\n      jump\t// out\n        /* \"#utility.yul\":11619:11976   */\n    tag_216:\n        /* \"#utility.yul\":11697:11700   */\n      0x00\n        /* \"#utility.yul\":11725:11764   */\n      tag_377\n        /* \"#utility.yul\":11758:11763   */\n      dup3\n        /* \"#utility.yul\":11725:11764   */\n      tag_204\n      jump\t// in\n    tag_377:\n        /* \"#utility.yul\":11780:11841   */\n      tag_378\n        /* \"#utility.yul\":11834:11840   */\n      dup2\n        /* \"#utility.yul\":11829:11832   */\n      dup6\n        /* \"#utility.yul\":11780:11841   */\n      tag_215\n      jump\t// in\n    tag_378:\n        /* \"#utility.yul\":11773:11841   */\n      swap4\n      pop\n        /* \"#utility.yul\":11850:11915   */\n      tag_379\n        /* \"#utility.yul\":11908:11914   */\n      dup2\n        /* \"#utility.yul\":11903:11906   */\n      dup6\n        /* \"#utility.yul\":11896:11900   */\n      0x20\n        /* \"#utility.yul\":11889:11894   */\n      dup7\n        /* \"#utility.yul\":11885:11901   */\n      add\n        /* \"#utility.yul\":11850:11915   */\n      tag_206\n      jump\t// in\n    tag_379:\n        /* \"#utility.yul\":11940:11969   */\n      tag_380\n        /* \"#utility.yul\":11962:11968   */\n      dup2\n        /* \"#utility.yul\":11940:11969   */\n      tag_187\n      jump\t// in\n    tag_380:\n        /* \"#utility.yul\":11935:11938   */\n      dup5\n        /* \"#utility.yul\":11931:11970   */\n      add\n        /* \"#utility.yul\":11924:11970   */\n      swap2\n      pop\n        /* \"#utility.yul\":11701:11976   */\n      pop\n        /* \"#utility.yul\":11619:11976   */\n      swap3\n      swap2\n      pop\n      pop\n      jump\t// out\n        /* \"#utility.yul\":12032:12797   */\n    tag_217:\n        /* \"#utility.yul\":12133:12136   */\n      0x00\n        /* \"#utility.yul\":12169:12173   */\n      0x60\n        /* \"#utility.yul\":12164:12167   */\n      dup4\n        /* \"#utility.yul\":12160:12174   */\n      add\n        /* \"#utility.yul\":12257:12261   */\n      0x00\n        /* \"#utility.yul\":12250:12255   */\n      dup4\n        /* \"#utility.yul\":12246:12262   */\n      add\n        /* \"#utility.yul\":12240:12263   */\n      mload\n        /* \"#utility.yul\":12276:12339   */\n      tag_382\n        /* \"#utility.yul\":12333:12337   */\n      0x00\n        /* \"#utility.yul\":12328:12331   */\n      dup7\n        /* \"#utility.yul\":12324:12338   */\n      add\n        /* \"#utility.yul\":12310:12322   */\n      dup3\n        /* \"#utility.yul\":12276:12339   */\n      tag_214\n      jump\t// in\n    tag_382:\n        /* \"#utility.yul\":12184:12349   */\n      pop\n        /* \"#utility.yul\":12433:12437   */\n      0x20\n        /* \"#utility.yul\":12426:12431   */\n      dup4\n        /* \"#utility.yul\":12422:12438   */\n      add\n        /* \"#utility.yul\":12416:12439   */\n      mload\n        /* \"#utility.yul\":12486:12489   */\n      dup5\n        /* \"#utility.yul\":12480:12484   */\n      dup3\n        /* \"#utility.yul\":12476:12490   */\n      sub\n        /* \"#utility.yul\":12469:12473   */\n      0x20\n        /* \"#utility.yul\":12464:12467   */\n      dup7\n        /* \"#utility.yul\":12460:12474   */\n      add\n        /* \"#utility.yul\":12453:12491   */\n      mstore\n        /* \"#utility.yul\":12512:12585   */\n      tag_383\n        /* \"#utility.yul\":12580:12584   */\n      dup3\n        /* \"#utility.yul\":12566:12578   */\n      dup3\n        /* \"#utility.yul\":12512:12585   */\n      tag_216\n      jump\t// in\n    tag_383:\n        /* \"#utility.yul\":12504:12585   */\n      swap2\n      pop\n        /* \"#utility.yul\":12359:12596   */\n      pop\n        /* \"#utility.yul\":12678:12682   */\n      0x40\n        /* \"#utility.yul\":12671:12676   */\n      dup4\n        /* \"#utility.yul\":12667:12683   */\n      add\n        /* \"#utility.yul\":12661:12684   */\n      mload\n        /* \"#utility.yul\":12697:12760   */\n      tag_384\n        /* \"#utility.yul\":12754:12758   */\n      0x40\n        /* \"#utility.yul\":12749:12752   */\n      dup7\n        /* \"#utility.yul\":12745:12759   */\n      add\n        /* \"#utility.yul\":12731:12743   */\n      dup3\n        /* \"#utility.yul\":12697:12760   */\n      tag_197\n      jump\t// in\n    tag_384:\n        /* \"#utility.yul\":12606:12770   */\n      pop\n        /* \"#utility.yul\":12787:12791   */\n      dup1\n        /* \"#utility.yul\":12780:12791   */\n      swap2\n      pop\n        /* \"#utility.yul\":12138:12797   */\n      pop\n        /* \"#utility.yul\":12032:12797   */\n      swap3\n      swap2\n      pop\n      pop\n      jump\t// out\n        /* \"#utility.yul\":12803:13043   */\n    tag_218:\n        /* \"#utility.yul\":12914:12924   */\n      0x00\n        /* \"#utility.yul\":12949:13037   */\n      tag_386\n        /* \"#utility.yul\":13033:13036   */\n      dup4\n        /* \"#utility.yul\":13025:13031   */\n      dup4\n        /* \"#utility.yul\":12949:13037   */\n      tag_217\n      jump\t// in\n    tag_386:\n        /* \"#utility.yul\":12935:13037   */\n      swap1\n      pop\n        /* \"#utility.yul\":12803:13043   */\n      swap3\n      swap2\n      pop\n      pop\n      jump\t// out\n        /* \"#utility.yul\":13049:13183   */\n    tag_219:\n        /* \"#utility.yul\":13140:13144   */\n      0x00\n        /* \"#utility.yul\":13172:13176   */\n      0x20\n        /* \"#utility.yul\":13167:13170   */\n      dup3\n        /* \"#utility.yul\":13163:13177   */\n      add\n        /* \"#utility.yul\":13155:13177   */\n      swap1\n      pop\n        /* \"#utility.yul\":13049:13183   */\n      swap2\n      swap1\n      pop\n      jump\t// out\n        /* \"#utility.yul\":13243:14322   */\n    tag_220:\n        /* \"#utility.yul\":13404:13407   */\n      0x00\n        /* \"#utility.yul\":13433:13508   */\n      tag_389\n        /* \"#utility.yul\":13502:13507   */\n      dup3\n        /* \"#utility.yul\":13433:13508   */\n      tag_211\n      jump\t// in\n    tag_389:\n        /* \"#utility.yul\":13524:13631   */\n      tag_390\n        /* \"#utility.yul\":13624:13630   */\n      dup2\n        /* \"#utility.yul\":13619:13622   */\n      dup6\n        /* \"#utility.yul\":13524:13631   */\n      tag_212\n      jump\t// in\n    tag_390:\n        /* \"#utility.yul\":13517:13631   */\n      swap4\n      pop\n        /* \"#utility.yul\":13657:13660   */\n      dup4\n        /* \"#utility.yul\":13702:13706   */\n      0x20\n        /* \"#utility.yul\":13694:13700   */\n      dup3\n        /* \"#utility.yul\":13690:13707   */\n      mul\n        /* \"#utility.yul\":13685:13688   */\n      dup6\n        /* \"#utility.yul\":13681:13708   */\n      add\n        /* \"#utility.yul\":13732:13809   */\n      tag_391\n        /* \"#utility.yul\":13803:13808   */\n      dup6\n        /* \"#utility.yul\":13732:13809   */\n      tag_213\n      jump\t// in\n    tag_391:\n        /* \"#utility.yul\":13832:13839   */\n      dup1\n        /* \"#utility.yul\":13863:13864   */\n      0x00\n        /* \"#utility.yul\":13848:14277   */\n    tag_392:\n        /* \"#utility.yul\":13873:13879   */\n      dup6\n        /* \"#utility.yul\":13870:13871   */\n      dup2\n        /* \"#utility.yul\":13867:13880   */\n      lt\n        /* \"#utility.yul\":13848:14277   */\n      iszero\n      tag_394\n      jumpi\n        /* \"#utility.yul\":13944:13953   */\n      dup5\n        /* \"#utility.yul\":13938:13942   */\n      dup5\n        /* \"#utility.yul\":13934:13954   */\n      sub\n        /* \"#utility.yul\":13929:13932   */\n      dup10\n        /* \"#utility.yul\":13922:13955   */\n      mstore\n        /* \"#utility.yul\":13995:14001   */\n      dup2\n        /* \"#utility.yul\":13989:14002   */\n      mload\n        /* \"#utility.yul\":14023:14129   */\n      tag_395\n        /* \"#utility.yul\":14124:14128   */\n      dup6\n        /* \"#utility.yul\":14109:14122   */\n      dup3\n        /* \"#utility.yul\":14023:14129   */\n      tag_218\n      jump\t// in\n    tag_395:\n        /* \"#utility.yul\":14015:14129   */\n      swap5\n      pop\n        /* \"#utility.yul\":14152:14233   */\n      tag_396\n        /* \"#utility.yul\":14226:14232   */\n      dup4\n        /* \"#utility.yul\":14152:14233   */\n      tag_219\n      jump\t// in\n    tag_396:\n        /* \"#utility.yul\":14142:14233   */\n      swap3\n      pop\n        /* \"#utility.yul\":14262:14266   */\n      0x20\n        /* \"#utility.yul\":14257:14260   */\n      dup11\n        /* \"#utility.yul\":14253:14267   */\n      add\n        /* \"#utility.yul\":14246:14267   */\n      swap10\n      pop\n        /* \"#utility.yul\":13908:14277   */\n      pop\n        /* \"#utility.yul\":13895:13896   */\n      0x01\n        /* \"#utility.yul\":13892:13893   */\n      dup2\n        /* \"#utility.yul\":13888:13897   */\n      add\n        /* \"#utility.yul\":13883:13897   */\n      swap1\n      pop\n        /* \"#utility.yul\":13848:14277   */\n      jump(tag_392)\n    tag_394:\n        /* \"#utility.yul\":13852:13866   */\n      pop\n        /* \"#utility.yul\":14293:14297   */\n      dup3\n        /* \"#utility.yul\":14286:14297   */\n      swap8\n      pop\n        /* \"#utility.yul\":14313:14316   */\n      dup8\n        /* \"#utility.yul\":14306:14316   */\n      swap6\n      pop\n        /* \"#utility.yul\":13409:14322   */\n      pop\n      pop\n      pop\n      pop\n      pop\n        /* \"#utility.yul\":13243:14322   */\n      swap3\n      swap2\n      pop\n      pop\n      jump\t// out\n        /* \"#utility.yul\":14328:14785   */\n    tag_47:\n        /* \"#utility.yul\":14513:14517   */\n      0x00\n        /* \"#utility.yul\":14551:14553   */\n      0x20\n        /* \"#utility.yul\":14540:14549   */\n      dup3\n        /* \"#utility.yul\":14536:14554   */\n      add\n        /* \"#utility.yul\":14528:14554   */\n      swap1\n      pop\n        /* \"#utility.yul\":14600:14609   */\n      dup2\n        /* \"#utility.yul\":14594:14598   */\n      dup2\n        /* \"#utility.yul\":14590:14610   */\n      sub\n        /* \"#utility.yul\":14586:14587   */\n      0x00\n        /* \"#utility.yul\":14575:14584   */\n      dup4\n        /* \"#utility.yul\":14571:14588   */\n      add\n        /* \"#utility.yul\":14564:14611   */\n      mstore\n        /* \"#utility.yul\":14628:14778   */\n      tag_398\n        /* \"#utility.yul\":14773:14777   */\n      dup2\n        /* \"#utility.yul\":14764:14770   */\n      dup5\n        /* \"#utility.yul\":14628:14778   */\n      tag_220\n      jump\t// in\n    tag_398:\n        /* \"#utility.yul\":14620:14778   */\n      swap1\n      pop\n        /* \"#utility.yul\":14328:14785   */\n      swap3\n      swap2\n      pop\n      pop\n      jump\t// out\n        /* \"#utility.yul\":14791:14963   */\n    tag_221:\n        /* \"#utility.yul\":14931:14955   */\n      0x506f6c6c696e6720646f7365206e6f7420657869737400000000000000000000\n        /* \"#utility.yul\":14927:14928   */\n      0x00\n        /* \"#utility.yul\":14919:14925   */\n      dup3\n        /* \"#utility.yul\":14915:14929   */\n      add\n        /* \"#utility.yul\":14908:14956   */\n      mstore\n        /* \"#utility.yul\":14791:14963   */\n      pop\n      jump\t// out\n        /* \"#utility.yul\":14969:15335   */\n    tag_222:\n        /* \"#utility.yul\":15111:15114   */\n      0x00\n        /* \"#utility.yul\":15132:15199   */\n      tag_401\n        /* \"#utility.yul\":15196:15198   */\n      0x16\n        /* \"#utility.yul\":15191:15194   */\n      dup4\n        /* \"#utility.yul\":15132:15199   */\n      tag_205\n      jump\t// in\n    tag_401:\n        /* \"#utility.yul\":15125:15199   */\n      swap2\n      pop\n        /* \"#utility.yul\":15208:15301   */\n      tag_402\n        /* \"#utility.yul\":15297:15300   */\n      dup3\n        /* \"#utility.yul\":15208:15301   */\n      tag_221\n      jump\t// in\n    tag_402:\n        /* \"#utility.yul\":15326:15328   */\n      0x20\n        /* \"#utility.yul\":15321:15324   */\n      dup3\n        /* \"#utility.yul\":15317:15329   */\n      add\n        /* \"#utility.yul\":15310:15329   */\n      swap1\n      pop\n        /* \"#utility.yul\":14969:15335   */\n      swap2\n      swap1\n      pop\n      jump\t// out\n        /* \"#utility.yul\":15341:15760   */\n    tag_51:\n        /* \"#utility.yul\":15507:15511   */\n      0x00\n        /* \"#utility.yul\":15545:15547   */\n      0x20\n        /* \"#utility.yul\":15534:15543   */\n      dup3\n        /* \"#utility.yul\":15530:15548   */\n      add\n        /* \"#utility.yul\":15522:15548   */\n      swap1\n      pop\n        /* \"#utility.yul\":15594:15603   */\n      dup2\n        /* \"#utility.yul\":15588:15592   */\n      dup2\n        /* \"#utility.yul\":15584:15604   */\n      sub\n        /* \"#utility.yul\":15580:15581   */\n      0x00\n        /* \"#utility.yul\":15569:15578   */\n      dup4\n        /* \"#utility.yul\":15565:15582   */\n      add\n        /* \"#utility.yul\":15558:15605   */\n      mstore\n        /* \"#utility.yul\":15622:15753   */\n      tag_404\n        /* \"#utility.yul\":15748:15752   */\n      dup2\n        /* \"#utility.yul\":15622:15753   */\n      tag_222\n      jump\t// in\n    tag_404:\n        /* \"#utility.yul\":15614:15753   */\n      swap1\n      pop\n        /* \"#utility.yul\":15341:15760   */\n      swap2\n      swap1\n      pop\n      jump\t// out\n        /* \"#utility.yul\":15766:15933   */\n    tag_223:\n        /* \"#utility.yul\":15906:15925   */\n      0x506f6c6c696e672068617320456e646564000000000000000000000000000000\n        /* \"#utility.yul\":15902:15903   */\n      0x00\n        /* \"#utility.yul\":15894:15900   */\n      dup3\n        /* \"#utility.yul\":15890:15904   */\n      add\n        /* \"#utility.yul\":15883:15926   */\n      mstore\n        /* \"#utility.yul\":15766:15933   */\n      pop\n      jump\t// out\n        /* \"#utility.yul\":15939:16305   */\n    tag_224:\n        /* \"#utility.yul\":16081:16084   */\n      0x00\n        /* \"#utility.yul\":16102:16169   */\n      tag_407\n        /* \"#utility.yul\":16166:16168   */\n      0x11\n        /* \"#utility.yul\":16161:16164   */\n      dup4\n        /* \"#utility.yul\":16102:16169   */\n      tag_205\n      jump\t// in\n    tag_407:\n        /* \"#utility.yul\":16095:16169   */\n      swap2\n      pop\n        /* \"#utility.yul\":16178:16271   */\n      tag_408\n        /* \"#utility.yul\":16267:16270   */\n      dup3\n        /* \"#utility.yul\":16178:16271   */\n      tag_223\n      jump\t// in\n    tag_408:\n        /* \"#utility.yul\":16296:16298   */\n      0x20\n        /* \"#utility.yul\":16291:16294   */\n      dup3\n        /* \"#utility.yul\":16287:16299   */\n      add\n        /* \"#utility.yul\":16280:16299   */\n      swap1\n      pop\n        /* \"#utility.yul\":15939:16305   */\n      swap2\n      swap1\n      pop\n      jump\t// out\n        /* \"#utility.yul\":16311:16730   */\n    tag_55:\n        /* \"#utility.yul\":16477:16481   */\n      0x00\n        /* \"#utility.yul\":16515:16517   */\n      0x20\n        /* \"#utility.yul\":16504:16513   */\n      dup3\n        /* \"#utility.yul\":16500:16518   */\n      add\n        /* \"#utility.yul\":16492:16518   */\n      swap1\n      pop\n        /* \"#utility.yul\":16564:16573   */\n      dup2\n        /* \"#utility.yul\":16558:16562   */\n      dup2\n        /* \"#utility.yul\":16554:16574   */\n      sub\n        /* \"#utility.yul\":16550:16551   */\n      0x00\n        /* \"#utility.yul\":16539:16548   */\n      dup4\n        /* \"#utility.yul\":16535:16552   */\n      add\n        /* \"#utility.yul\":16528:16575   */\n      mstore\n        /* \"#utility.yul\":16592:16723   */\n      tag_410\n        /* \"#utility.yul\":16718:16722   */\n      dup2\n        /* \"#utility.yul\":16592:16723   */\n      tag_224\n      jump\t// in\n    tag_410:\n        /* \"#utility.yul\":16584:16723   */\n      swap1\n      pop\n        /* \"#utility.yul\":16311:16730   */\n      swap2\n      swap1\n      pop\n      jump\t// out\n        /* \"#utility.yul\":16736:16908   */\n    tag_225:\n        /* \"#utility.yul\":16876:16900   */\n      0x596f75206861766520416c726561647920566f74656400000000000000000000\n        /* \"#utility.yul\":16872:16873   */\n      0x00\n        /* \"#utility.yul\":16864:16870   */\n      dup3\n        /* \"#utility.yul\":16860:16874   */\n      add\n        /* \"#utility.yul\":16853:16901   */\n      mstore\n        /* \"#utility.yul\":16736:16908   */\n      pop\n      jump\t// out\n        /* \"#utility.yul\":16914:17280   */\n    tag_226:\n        /* \"#utility.yul\":17056:17059   */\n      0x00\n        /* \"#utility.yul\":17077:17144   */\n      tag_413\n        /* \"#utility.yul\":17141:17143   */\n      0x16\n        /* \"#utility.yul\":17136:17139   */\n      dup4\n        /* \"#utility.yul\":17077:17144   */\n      tag_205\n      jump\t// in\n    tag_413:\n        /* \"#utility.yul\":17070:17144   */\n      swap2\n      pop\n        /* \"#utility.yul\":17153:17246   */\n      tag_414\n        /* \"#utility.yul\":17242:17245   */\n      dup3\n        /* \"#utility.yul\":17153:17246   */\n      tag_225\n      jump\t// in\n    tag_414:\n        /* \"#utility.yul\":17271:17273   */\n      0x20\n        /* \"#utility.yul\":17266:17269   */\n      dup3\n        /* \"#utility.yul\":17262:17274   */\n      add\n        /* \"#utility.yul\":17255:17274   */\n      swap1\n      pop\n        /* \"#utility.yul\":16914:17280   */\n      swap2\n      swap1\n      pop\n      jump\t// out\n        /* \"#utility.yul\":17286:17705   */\n    tag_59:\n        /* \"#utility.yul\":17452:17456   */\n      0x00\n        /* \"#utility.yul\":17490:17492   */\n      0x20\n        /* \"#utility.yul\":17479:17488   */\n      dup3\n        /* \"#utility.yul\":17475:17493   */\n      add\n        /* \"#utility.yul\":17467:17493   */\n      swap1\n      pop\n        /* \"#utility.yul\":17539:17548   */\n      dup2\n        /* \"#utility.yul\":17533:17537   */\n      dup2\n        /* \"#utility.yul\":17529:17549   */\n      sub\n        /* \"#utility.yul\":17525:17526   */\n      0x00\n        /* \"#utility.yul\":17514:17523   */\n      dup4\n        /* \"#utility.yul\":17510:17527   */\n      add\n        /* \"#utility.yul\":17503:17550   */\n      mstore\n        /* \"#utility.yul\":17567:17698   */\n      tag_416\n        /* \"#utility.yul\":17693:17697   */\n      dup2\n        /* \"#utility.yul\":17567:17698   */\n      tag_226\n      jump\t// in\n    tag_416:\n        /* \"#utility.yul\":17559:17698   */\n      swap1\n      pop\n        /* \"#utility.yul\":17286:17705   */\n      swap2\n      swap1\n      pop\n      jump\t// out\n        /* \"#utility.yul\":17711:17859   */\n    tag_227:\n        /* \"#utility.yul\":17813:17824   */\n      0x00\n        /* \"#utility.yul\":17850:17853   */\n      dup2\n        /* \"#utility.yul\":17835:17853   */\n      swap1\n      pop\n        /* \"#utility.yul\":17711:17859   */\n      swap3\n      swap2\n      pop\n      pop\n      jump\t// out\n        /* \"#utility.yul\":17865:18255   */\n    tag_228:\n        /* \"#utility.yul\":17971:17974   */\n      0x00\n        /* \"#utility.yul\":17999:18038   */\n      tag_419\n        /* \"#utility.yul\":18032:18037   */\n      dup3\n        /* \"#utility.yul\":17999:18038   */\n      tag_204\n      jump\t// in\n    tag_419:\n        /* \"#utility.yul\":18054:18143   */\n      tag_420\n        /* \"#utility.yul\":18136:18142   */\n      dup2\n        /* \"#utility.yul\":18131:18134   */\n      dup6\n        /* \"#utility.yul\":18054:18143   */\n      tag_227\n      jump\t// in\n    tag_420:\n        /* \"#utility.yul\":18047:18143   */\n      swap4\n      pop\n        /* \"#utility.yul\":18152:18217   */\n      tag_421\n        /* \"#utility.yul\":18210:18216   */\n      dup2\n        /* \"#utility.yul\":18205:18208   */\n      dup6\n        /* \"#utility.yul\":18198:18202   */\n      0x20\n        /* \"#utility.yul\":18191:18196   */\n      dup7\n        /* \"#utility.yul\":18187:18203   */\n      add\n        /* \"#utility.yul\":18152:18217   */\n      tag_206\n      jump\t// in\n    tag_421:\n        /* \"#utility.yul\":18242:18248   */\n      dup1\n        /* \"#utility.yul\":18237:18240   */\n      dup5\n        /* \"#utility.yul\":18233:18249   */\n      add\n        /* \"#utility.yul\":18226:18249   */\n      swap2\n      pop\n        /* \"#utility.yul\":17975:18255   */\n      pop\n        /* \"#utility.yul\":17865:18255   */\n      swap3\n      swap2\n      pop\n      pop\n      jump\t// out\n        /* \"#utility.yul\":18261:18536   */\n    tag_62:\n        /* \"#utility.yul\":18393:18396   */\n      0x00\n        /* \"#utility.yul\":18415:18510   */\n      tag_423\n        /* \"#utility.yul\":18506:18509   */\n      dup3\n        /* \"#utility.yul\":18497:18503   */\n      dup5\n        /* \"#utility.yul\":18415:18510   */\n      tag_228\n      jump\t// in\n    tag_423:\n        /* \"#utility.yul\":18408:18510   */\n      swap2\n      pop\n        /* \"#utility.yul\":18527:18530   */\n      dup2\n        /* \"#utility.yul\":18520:18530   */\n      swap1\n      pop\n        /* \"#utility.yul\":18261:18536   */\n      swap3\n      swap2\n      pop\n      pop\n      jump\t// out\n        /* \"#utility.yul\":18542:18713   */\n    tag_229:\n        /* \"#utility.yul\":18682:18705   */\n      0x496e7661696c6420566f74696e672043686f6963650000000000000000000000\n        /* \"#utility.yul\":18678:18679   */\n      0x00\n        /* \"#utility.yul\":18670:18676   */\n      dup3\n        /* \"#utility.yul\":18666:18680   */\n      add\n        /* \"#utility.yul\":18659:18706   */\n      mstore\n        /* \"#utility.yul\":18542:18713   */\n      pop\n      jump\t// out\n        /* \"#utility.yul\":18719:19085   */\n    tag_230:\n        /* \"#utility.yul\":18861:18864   */\n      0x00\n        /* \"#utility.yul\":18882:18949   */\n      tag_426\n        /* \"#utility.yul\":18946:18948   */\n      0x15\n        /* \"#utility.yul\":18941:18944   */\n      dup4\n        /* \"#utility.yul\":18882:18949   */\n      tag_205\n      jump\t// in\n    tag_426:\n        /* \"#utility.yul\":18875:18949   */\n      swap2\n      pop\n        /* \"#utility.yul\":18958:19051   */\n      tag_427\n        /* \"#utility.yul\":19047:19050   */\n      dup3\n        /* \"#utility.yul\":18958:19051   */\n      tag_229\n      jump\t// in\n    tag_427:\n        /* \"#utility.yul\":19076:19078   */\n      0x20\n        /* \"#utility.yul\":19071:19074   */\n      dup3\n        /* \"#utility.yul\":19067:19079   */\n      add\n        /* \"#utility.yul\":19060:19079   */\n      swap1\n      pop\n        /* \"#utility.yul\":18719:19085   */\n      swap2\n      swap1\n      pop\n      jump\t// out\n        /* \"#utility.yul\":19091:19510   */\n    tag_69:\n        /* \"#utility.yul\":19257:19261   */\n      0x00\n        /* \"#utility.yul\":19295:19297   */\n      0x20\n        /* \"#utility.yul\":19284:19293   */\n      dup3\n        /* \"#utility.yul\":19280:19298   */\n      add\n        /* \"#utility.yul\":19272:19298   */\n      swap1\n      pop\n        /* \"#utility.yul\":19344:19353   */\n      dup2\n        /* \"#utility.yul\":19338:19342   */\n      dup2\n        /* \"#utility.yul\":19334:19354   */\n      sub\n        /* \"#utility.yul\":19330:19331   */\n      0x00\n        /* \"#utility.yul\":19319:19328   */\n      dup4\n        /* \"#utility.yul\":19315:19332   */\n      add\n        /* \"#utility.yul\":19308:19355   */\n      mstore\n        /* \"#utility.yul\":19372:19503   */\n      tag_429\n        /* \"#utility.yul\":19498:19502   */\n      dup2\n        /* \"#utility.yul\":19372:19503   */\n      tag_230\n      jump\t// in\n    tag_429:\n        /* \"#utility.yul\":19364:19503   */\n      swap1\n      pop\n        /* \"#utility.yul\":19091:19510   */\n      swap2\n      swap1\n      pop\n      jump\t// out\n        /* \"#utility.yul\":19516:19696   */\n    tag_231:\n        /* \"#utility.yul\":19564:19641   */\n      0x4e487b7100000000000000000000000000000000000000000000000000000000\n        /* \"#utility.yul\":19561:19562   */\n      0x00\n        /* \"#utility.yul\":19554:19642   */\n      mstore\n        /* \"#utility.yul\":19661:19665   */\n      0x11\n        /* \"#utility.yul\":19658:19659   */\n      0x04\n        /* \"#utility.yul\":19651:19666   */\n      mstore\n        /* \"#utility.yul\":19685:19689   */\n      0x24\n        /* \"#utility.yul\":19682:19683   */\n      0x00\n        /* \"#utility.yul\":19675:19690   */\n      revert\n        /* \"#utility.yul\":19702:19935   */\n    tag_73:\n        /* \"#utility.yul\":19741:19744   */\n      0x00\n        /* \"#utility.yul\":19764:19788   */\n      tag_432\n        /* \"#utility.yul\":19782:19787   */\n      dup3\n        /* \"#utility.yul\":19764:19788   */\n      tag_182\n      jump\t// in\n    tag_432:\n        /* \"#utility.yul\":19755:19788   */\n      swap2\n      pop\n        /* \"#utility.yul\":19810:19876   */\n      0xffffffffffffffffffffffffffffffffffffffffffffffffffffffffffffffff\n        /* \"#utility.yul\":19803:19808   */\n      dup3\n        /* \"#utility.yul\":19800:19877   */\n      sub\n        /* \"#utility.yul\":19797:19900   */\n      tag_433\n      jumpi\n        /* \"#utility.yul\":19880:19898   */\n      tag_434\n      tag_231\n      jump\t// in\n    tag_434:\n        /* \"#utility.yul\":19797:19900   */\n    tag_433:\n        /* \"#utility.yul\":19927:19928   */\n      0x01\n        /* \"#utility.yul\":19920:19925   */\n      dup3\n        /* \"#utility.yul\":19916:19929   */\n      add\n        /* \"#utility.yul\":19909:19929   */\n      swap1\n      pop\n        /* \"#utility.yul\":19702:19935   */\n      swap2\n      swap1\n      pop\n      jump\t// out\n        /* \"#utility.yul\":19941:20121   */\n    tag_232:\n        /* \"#utility.yul\":19989:20066   */\n      0x4e487b7100000000000000000000000000000000000000000000000000000000\n        /* \"#utility.yul\":19986:19987   */\n      0x00\n        /* \"#utility.yul\":19979:20067   */\n      mstore\n        /* \"#utility.yul\":20086:20090   */\n      0x22\n        /* \"#utility.yul\":20083:20084   */\n      0x04\n        /* \"#utility.yul\":20076:20091   */\n      mstore\n        /* \"#utility.yul\":20110:20114   */\n      0x24\n        /* \"#utility.yul\":20107:20108   */\n      0x00\n        /* \"#utility.yul\":20100:20115   */\n      revert\n        /* \"#utility.yul\":20127:20447   */\n    tag_125:\n        /* \"#utility.yul\":20171:20177   */\n      0x00\n        /* \"#utility.yul\":20208:20209   */\n      0x02\n        /* \"#utility.yul\":20202:20206   */\n      dup3\n        /* \"#utility.yul\":20198:20210   */\n      div\n        /* \"#utility.yul\":20188:20210   */\n      swap1\n      pop\n        /* \"#utility.yul\":20255:20256   */\n      0x01\n        /* \"#utility.yul\":20249:20253   */\n      dup3\n        /* \"#utility.yul\":20245:20257   */\n      and\n        /* \"#utility.yul\":20276:20294   */\n      dup1\n        /* \"#utility.yul\":20266:20347   */\n      tag_437\n      jumpi\n        /* \"#utility.yul\":20332:20336   */\n      0x7f\n        /* \"#utility.yul\":20324:20330   */\n      dup3\n        /* \"#utility.yul\":20320:20337   */\n      and\n        /* \"#utility.yul\":20310:20337   */\n      swap2\n      pop\n        /* \"#utility.yul\":20266:20347   */\n    tag_437:\n        /* \"#utility.yul\":20394:20396   */\n      0x20\n        /* \"#utility.yul\":20386:20392   */\n      dup3\n        /* \"#utility.yul\":20383:20397   */\n      lt\n        /* \"#utility.yul\":20363:20381   */\n      dup2\n        /* \"#utility.yul\":20360:20398   */\n      sub\n        /* \"#utility.yul\":20357:20441   */\n      tag_438\n      jumpi\n        /* \"#utility.yul\":20413:20431   */\n      tag_439\n      tag_232\n      jump\t// in\n    tag_439:\n        /* \"#utility.yul\":20357:20441   */\n    tag_438:\n        /* \"#utility.yul\":20178:20447   */\n      pop\n        /* \"#utility.yul\":20127:20447   */\n      swap2\n      swap1\n      pop\n      jump\t// out\n        /* \"#utility.yul\":20453:20594   */\n    tag_233:\n        /* \"#utility.yul\":20502:20506   */\n      0x00\n        /* \"#utility.yul\":20525:20528   */\n      dup2\n        /* \"#utility.yul\":20517:20528   */\n      swap1\n      pop\n        /* \"#utility.yul\":20548:20551   */\n      dup2\n        /* \"#utility.yul\":20545:20546   */\n      0x00\n        /* \"#utility.yul\":20538:20552   */\n      mstore\n        /* \"#utility.yul\":20582:20586   */\n      0x20\n        /* \"#utility.yul\":20579:20580   */\n      0x00\n        /* \"#utility.yul\":20569:20587   */\n      keccak256\n        /* \"#utility.yul\":20561:20587   */\n      swap1\n      pop\n        /* \"#utility.yul\":20453:20594   */\n      swap2\n      swap1\n      pop\n      jump\t// out\n        /* \"#utility.yul\":20600:20693   */\n    tag_234:\n        /* \"#utility.yul\":20637:20643   */\n      0x00\n        /* \"#utility.yul\":20684:20686   */\n      0x20\n        /* \"#utility.yul\":20679:20681   */\n      0x1f\n        /* \"#utility.yul\":20672:20677   */\n      dup4\n        /* \"#utility.yul\":20668:20682   */\n      add\n        /* \"#utility.yul\":20664:20687   */\n      div\n        /* \"#utility.yul\":20654:20687   */\n      swap1\n      pop\n        /* \"#utility.yul\":20600:20693   */\n      swap2\n      swap1\n      pop\n      jump\t// out\n        /* \"#utility.yul\":20699:20806   */\n    tag_235:\n        /* \"#utility.yul\":20743:20751   */\n      0x00\n        /* \"#utility.yul\":20793:20798   */\n      dup3\n        /* \"#utility.yul\":20787:20791   */\n      dup3\n        /* \"#utility.yul\":20783:20799   */\n      shl\n        /* \"#utility.yul\":20762:20799   */\n      swap1\n      pop\n        /* \"#utility.yul\":20699:20806   */\n      swap3\n      swap2\n      pop\n      pop\n      jump\t// out\n        /* \"#utility.yul\":20812:21205   */\n    tag_236:\n        /* \"#utility.yul\":20881:20887   */\n      0x00\n        /* \"#utility.yul\":20931:20932   */\n      0x08\n        /* \"#utility.yul\":20919:20929   */\n      dup4\n        /* \"#utility.yul\":20915:20933   */\n      mul\n        /* \"#utility.yul\":20954:21051   */\n      tag_444\n        /* \"#utility.yul\":20984:21050   */\n      0xffffffffffffffffffffffffffffffffffffffffffffffffffffffffffffffff\n        /* \"#utility.yul\":20973:20982   */\n      dup3\n        /* \"#utility.yul\":20954:21051   */\n      tag_235\n      jump\t// in\n    tag_444:\n        /* \"#utility.yul\":21072:21111   */\n      tag_445\n        /* \"#utility.yul\":21102:21110   */\n      dup7\n        /* \"#utility.yul\":21091:21100   */\n      dup4\n        /* \"#utility.yul\":21072:21111   */\n      tag_235\n      jump\t// in\n    tag_445:\n        /* \"#utility.yul\":21060:21111   */\n      swap6\n      pop\n        /* \"#utility.yul\":21144:21148   */\n      dup1\n        /* \"#utility.yul\":21140:21149   */\n      not\n        /* \"#utility.yul\":21133:21138   */\n      dup5\n        /* \"#utility.yul\":21129:21150   */\n      and\n        /* \"#utility.yul\":21120:21150   */\n      swap4\n      pop\n        /* \"#utility.yul\":21193:21197   */\n      dup1\n        /* \"#utility.yul\":21183:21191   */\n      dup7\n        /* \"#utility.yul\":21179:21198   */\n      and\n        /* \"#utility.yul\":21172:21177   */\n      dup5\n        /* \"#utility.yul\":21169:21199   */\n      or\n        /* \"#utility.yul\":21159:21199   */\n      swap3\n      pop\n        /* \"#utility.yul\":20888:21205   */\n      pop\n      pop\n        /* \"#utility.yul\":20812:21205   */\n      swap4\n      swap3\n      pop\n      pop\n      pop\n      jump\t// out\n        /* \"#utility.yul\":21211:21271   */\n    tag_237:\n        /* \"#utility.yul\":21239:21242   */\n      0x00\n        /* \"#utility.yul\":21260:21265   */\n      dup2\n        /* \"#utility.yul\":21253:21265   */\n      swap1\n      pop\n        /* \"#utility.yul\":21211:21271   */\n      swap2\n      swap1\n      pop\n      jump\t// out\n        /* \"#utility.yul\":21277:21419   */\n    tag_238:\n        /* \"#utility.yul\":21327:21336   */\n      0x00\n        /* \"#utility.yul\":21360:21413   */\n      tag_448\n        /* \"#utility.yul\":21378:21412   */\n      tag_449\n        /* \"#utility.yul\":21387:21411   */\n      tag_450\n        /* \"#utility.yul\":21405:21410   */\n      dup5\n        /* \"#utility.yul\":21387:21411   */\n      tag_182\n      jump\t// in\n    tag_450:\n        /* \"#utility.yul\":21378:21412   */\n      tag_237\n      jump\t// in\n    tag_449:\n        /* \"#utility.yul\":21360:21413   */\n      tag_182\n      jump\t// in\n    tag_448:\n        /* \"#utility.yul\":21347:21413   */\n      swap1\n      pop\n        /* \"#utility.yul\":21277:21419   */\n      swap2\n      swap1\n      pop\n      jump\t// out\n        /* \"#utility.yul\":21425:21500   */\n    tag_239:\n        /* \"#utility.yul\":21468:21471   */\n      0x00\n        /* \"#utility.yul\":21489:21494   */\n      dup2\n        /* \"#utility.yul\":21482:21494   */\n      swap1\n      pop\n        /* \"#utility.yul\":21425:21500   */\n      swap2\n      swap1\n      pop\n      jump\t// out\n        /* \"#utility.yul\":21506:21775   */\n    tag_240:\n        /* \"#utility.yul\":21616:21655   */\n      tag_453\n        /* \"#utility.yul\":21647:21654   */\n      dup4\n        /* \"#utility.yul\":21616:21655   */\n      tag_238\n      jump\t// in\n    tag_453:\n        /* \"#utility.yul\":21677:21768   */\n      tag_454\n        /* \"#utility.yul\":21726:21767   */\n      tag_455\n        /* \"#utility.yul\":21750:21766   */\n      dup3\n        /* \"#utility.yul\":21726:21767   */\n      tag_239\n      jump\t// in\n    tag_455:\n        /* \"#utility.yul\":21718:21724   */\n      dup5\n        /* \"#utility.yul\":21711:21715   */\n      dup5\n        /* \"#utility.yul\":21705:21716   */\n      sload\n        /* \"#utility.yul\":21677:21768   */\n      tag_236\n      jump\t// in\n    tag_454:\n        /* \"#utility.yul\":21671:21675   */\n      dup3\n        /* \"#utility.yul\":21664:21769   */\n      sstore\n        /* \"#utility.yul\":21582:21775   */\n      pop\n        /* \"#utility.yul\":21506:21775   */\n      pop\n      pop\n      pop\n      jump\t// out\n        /* \"#utility.yul\":21781:21854   */\n    tag_241:\n        /* \"#utility.yul\":21826:21829   */\n      0x00\n        /* \"#utility.yul\":21781:21854   */\n      swap1\n      jump\t// out\n        /* \"#utility.yul\":21860:22049   */\n    tag_242:\n        /* \"#utility.yul\":21937:21969   */\n      tag_458\n      tag_241\n      jump\t// in\n    tag_458:\n        /* \"#utility.yul\":21978:22043   */\n      tag_459\n        /* \"#utility.yul\":22036:22042   */\n      dup2\n        /* \"#utility.yul\":22028:22034   */\n      dup5\n        /* \"#utility.yul\":22022:22026   */\n      dup5\n        /* \"#utility.yul\":21978:22043   */\n      tag_240\n      jump\t// in\n    tag_459:\n        /* \"#utility.yul\":21913:22049   */\n      pop\n        /* \"#utility.yul\":21860:22049   */\n      pop\n      pop\n      jump\t// out\n        /* \"#utility.yul\":22055:22241   */\n    tag_243:\n        /* \"#utility.yul\":22115:22235   */\n    tag_461:\n        /* \"#utility.yul\":22132:22135   */\n      dup2\n        /* \"#utility.yul\":22125:22130   */\n      dup2\n        /* \"#utility.yul\":22122:22136   */\n      lt\n        /* \"#utility.yul\":22115:22235   */\n      iszero\n      tag_463\n      jumpi\n        /* \"#utility.yul\":22186:22225   */\n      tag_464\n        /* \"#utility.yul\":22223:22224   */\n      0x00\n        /* \"#utility.yul\":22216:22221   */\n      dup3\n        /* \"#utility.yul\":22186:22225   */\n      tag_242\n      jump\t// in\n    tag_464:\n        /* \"#utility.yul\":22159:22160   */\n      0x01\n        /* \"#utility.yul\":22152:22157   */\n      dup2\n        /* \"#utility.yul\":22148:22161   */\n      add\n        /* \"#utility.yul\":22139:22161   */\n      swap1\n      pop\n        /* \"#utility.yul\":22115:22235   */\n      jump(tag_461)\n    tag_463:\n        /* \"#utility.yul\":22055:22241   */\n      pop\n      pop\n      jump\t// out\n        /* \"#utility.yul\":22247:22790   */\n    tag_244:\n        /* \"#utility.yul\":22348:22350   */\n      0x1f\n        /* \"#utility.yul\":22343:22346   */\n      dup3\n        /* \"#utility.yul\":22340:22351   */\n      gt\n        /* \"#utility.yul\":22337:22783   */\n      iszero\n      tag_466\n      jumpi\n        /* \"#utility.yul\":22382:22420   */\n      tag_467\n        /* \"#utility.yul\":22414:22419   */\n      dup2\n        /* \"#utility.yul\":22382:22420   */\n      tag_233\n      jump\t// in\n    tag_467:\n        /* \"#utility.yul\":22466:22495   */\n      tag_468\n        /* \"#utility.yul\":22484:22494   */\n      dup5\n        /* \"#utility.yul\":22466:22495   */\n      tag_234\n      jump\t// in\n    tag_468:\n        /* \"#utility.yul\":22456:22464   */\n      dup2\n        /* \"#utility.yul\":22452:22496   */\n      add\n        /* \"#utility.yul\":22649:22651   */\n      0x20\n        /* \"#utility.yul\":22637:22647   */\n      dup6\n        /* \"#utility.yul\":22634:22652   */\n      lt\n        /* \"#utility.yul\":22631:22680   */\n      iszero\n      tag_469\n      jumpi\n        /* \"#utility.yul\":22670:22678   */\n      dup2\n        /* \"#utility.yul\":22655:22678   */\n      swap1\n      pop\n        /* \"#utility.yul\":22631:22680   */\n    tag_469:\n        /* \"#utility.yul\":22693:22773   */\n      tag_470\n        /* \"#utility.yul\":22749:22771   */\n      tag_471\n        /* \"#utility.yul\":22767:22770   */\n      dup6\n        /* \"#utility.yul\":22749:22771   */\n      tag_234\n      jump\t// in\n    tag_471:\n        /* \"#utility.yul\":22739:22747   */\n      dup4\n        /* \"#utility.yul\":22735:22772   */\n      add\n        /* \"#utility.yul\":22722:22733   */\n      dup3\n        /* \"#utility.yul\":22693:22773   */\n      tag_243\n      jump\t// in\n    tag_470:\n        /* \"#utility.yul\":22352:22783   */\n      pop\n      pop\n        /* \"#utility.yul\":22337:22783   */\n    tag_466:\n        /* \"#utility.yul\":22247:22790   */\n      pop\n      pop\n      pop\n      jump\t// out\n        /* \"#utility.yul\":22796:22913   */\n    tag_245:\n        /* \"#utility.yul\":22850:22858   */\n      0x00\n        /* \"#utility.yul\":22900:22905   */\n      dup3\n        /* \"#utility.yul\":22894:22898   */\n      dup3\n        /* \"#utility.yul\":22890:22906   */\n      shr\n        /* \"#utility.yul\":22869:22906   */\n      swap1\n      pop\n        /* \"#utility.yul\":22796:22913   */\n      swap3\n      swap2\n      pop\n      pop\n      jump\t// out\n        /* \"#utility.yul\":22919:23088   */\n    tag_246:\n        /* \"#utility.yul\":22963:22969   */\n      0x00\n        /* \"#utility.yul\":22996:23047   */\n      tag_474\n        /* \"#utility.yul\":23044:23045   */\n      0x00\n        /* \"#utility.yul\":23040:23046   */\n      not\n        /* \"#utility.yul\":23032:23037   */\n      dup5\n        /* \"#utility.yul\":23029:23030   */\n      0x08\n        /* \"#utility.yul\":23025:23038   */\n      mul\n        /* \"#utility.yul\":22996:23047   */\n      tag_245\n      jump\t// in\n    tag_474:\n        /* \"#utility.yul\":22992:23048   */\n      not\n        /* \"#utility.yul\":23077:23081   */\n      dup1\n        /* \"#utility.yul\":23071:23075   */\n      dup4\n        /* \"#utility.yul\":23067:23082   */\n      and\n        /* \"#utility.yul\":23057:23082   */\n      swap2\n      pop\n        /* \"#utility.yul\":22970:23088   */\n      pop\n        /* \"#utility.yul\":22919:23088   */\n      swap3\n      swap2\n      pop\n      pop\n      jump\t// out\n        /* \"#utility.yul\":23093:23388   */\n    tag_247:\n        /* \"#utility.yul\":23169:23173   */\n      0x00\n        /* \"#utility.yul\":23315:23344   */\n      tag_476\n        /* \"#utility.yul\":23340:23343   */\n      dup4\n        /* \"#utility.yul\":23334:23338   */\n      dup4\n        /* \"#utility.yul\":23315:23344   */\n      tag_246\n      jump\t// in\n    tag_476:\n        /* \"#utility.yul\":23307:23344   */\n      swap2\n      pop\n        /* \"#utility.yul\":23377:23380   */\n      dup3\n        /* \"#utility.yul\":23374:23375   */\n      0x02\n        /* \"#utility.yul\":23370:23381   */\n      mul\n        /* \"#utility.yul\":23364:23368   */\n      dup3\n        /* \"#utility.yul\":23361:23382   */\n      or\n        /* \"#utility.yul\":23353:23382   */\n      swap1\n      pop\n        /* \"#utility.yul\":23093:23388   */\n      swap3\n      swap2\n      pop\n      pop\n      jump\t// out\n        /* \"#utility.yul\":23393:24788   */\n    tag_85:\n        /* \"#utility.yul\":23510:23547   */\n      tag_478\n        /* \"#utility.yul\":23543:23546   */\n      dup3\n        /* \"#utility.yul\":23510:23547   */\n      tag_204\n      jump\t// in\n    tag_478:\n        /* \"#utility.yul\":23612:23630   */\n      0xffffffffffffffff\n        /* \"#utility.yul\":23604:23610   */\n      dup2\n        /* \"#utility.yul\":23601:23631   */\n      gt\n        /* \"#utility.yul\":23598:23654   */\n      iszero\n      tag_479\n      jumpi\n        /* \"#utility.yul\":23634:23652   */\n      tag_480\n      tag_101\n      jump\t// in\n    tag_480:\n        /* \"#utility.yul\":23598:23654   */\n    tag_479:\n        /* \"#utility.yul\":23678:23716   */\n      tag_481\n        /* \"#utility.yul\":23710:23714   */\n      dup3\n        /* \"#utility.yul\":23704:23715   */\n      sload\n        /* \"#utility.yul\":23678:23716   */\n      tag_125\n      jump\t// in\n    tag_481:\n        /* \"#utility.yul\":23763:23830   */\n      tag_482\n        /* \"#utility.yul\":23823:23829   */\n      dup3\n        /* \"#utility.yul\":23815:23821   */\n      dup3\n        /* \"#utility.yul\":23809:23813   */\n      dup6\n        /* \"#utility.yul\":23763:23830   */\n      tag_244\n      jump\t// in\n    tag_482:\n        /* \"#utility.yul\":23857:23858   */\n      0x00\n        /* \"#utility.yul\":23881:23885   */\n      0x20\n        /* \"#utility.yul\":23868:23885   */\n      swap1\n      pop\n        /* \"#utility.yul\":23913:23915   */\n      0x1f\n        /* \"#utility.yul\":23905:23911   */\n      dup4\n        /* \"#utility.yul\":23902:23916   */\n      gt\n        /* \"#utility.yul\":23930:23931   */\n      0x01\n        /* \"#utility.yul\":23925:24543   */\n      dup2\n      eq\n      tag_484\n      jumpi\n        /* \"#utility.yul\":24587:24588   */\n      0x00\n        /* \"#utility.yul\":24604:24610   */\n      dup5\n        /* \"#utility.yul\":24601:24678   */\n      iszero\n      tag_485\n      jumpi\n        /* \"#utility.yul\":24653:24662   */\n      dup3\n        /* \"#utility.yul\":24648:24651   */\n      dup8\n        /* \"#utility.yul\":24644:24663   */\n      add\n        /* \"#utility.yul\":24638:24664   */\n      mload\n        /* \"#utility.yul\":24629:24664   */\n      swap1\n      pop\n        /* \"#utility.yul\":24601:24678   */\n    tag_485:\n        /* \"#utility.yul\":24704:24771   */\n      tag_486\n        /* \"#utility.yul\":24764:24770   */\n      dup6\n        /* \"#utility.yul\":24757:24762   */\n      dup3\n        /* \"#utility.yul\":24704:24771   */\n      tag_247\n      jump\t// in\n    tag_486:\n        /* \"#utility.yul\":24698:24702   */\n      dup7\n        /* \"#utility.yul\":24691:24772   */\n      sstore\n        /* \"#utility.yul\":24560:24782   */\n      pop\n        /* \"#utility.yul\":23895:24782   */\n      jump(tag_483)\n        /* \"#utility.yul\":23925:24543   */\n    tag_484:\n        /* \"#utility.yul\":23977:23981   */\n      0x1f\n        /* \"#utility.yul\":23973:23982   */\n      not\n        /* \"#utility.yul\":23965:23971   */\n      dup5\n        /* \"#utility.yul\":23961:23983   */\n      and\n        /* \"#utility.yul\":24011:24048   */\n      tag_487\n        /* \"#utility.yul\":24043:24047   */\n      dup7\n        /* \"#utility.yul\":24011:24048   */\n      tag_233\n      jump\t// in\n    tag_487:\n        /* \"#utility.yul\":24070:24071   */\n      0x00\n        /* \"#utility.yul\":24084:24292   */\n    tag_488:\n        /* \"#utility.yul\":24098:24105   */\n      dup3\n        /* \"#utility.yul\":24095:24096   */\n      dup2\n        /* \"#utility.yul\":24092:24106   */\n      lt\n        /* \"#utility.yul\":24084:24292   */\n      iszero\n      tag_490\n      jumpi\n        /* \"#utility.yul\":24177:24186   */\n      dup5\n        /* \"#utility.yul\":24172:24175   */\n      dup10\n        /* \"#utility.yul\":24168:24187   */\n      add\n        /* \"#utility.yul\":24162:24188   */\n      mload\n        /* \"#utility.yul\":24154:24160   */\n      dup3\n        /* \"#utility.yul\":24147:24189   */\n      sstore\n        /* \"#utility.yul\":24228:24229   */\n      0x01\n        /* \"#utility.yul\":24220:24226   */\n      dup3\n        /* \"#utility.yul\":24216:24230   */\n      add\n        /* \"#utility.yul\":24206:24230   */\n      swap2\n      pop\n        /* \"#utility.yul\":24275:24277   */\n      0x20\n        /* \"#utility.yul\":24264:24273   */\n      dup6\n        /* \"#utility.yul\":24260:24278   */\n      add\n        /* \"#utility.yul\":24247:24278   */\n      swap5\n      pop\n        /* \"#utility.yul\":24121:24125   */\n      0x20\n        /* \"#utility.yul\":24118:24119   */\n      dup2\n        /* \"#utility.yul\":24114:24126   */\n      add\n        /* \"#utility.yul\":24109:24126   */\n      swap1\n      pop\n        /* \"#utility.yul\":24084:24292   */\n      jump(tag_488)\n    tag_490:\n        /* \"#utility.yul\":24320:24326   */\n      dup7\n        /* \"#utility.yul\":24311:24318   */\n      dup4\n        /* \"#utility.yul\":24308:24327   */\n      lt\n        /* \"#utility.yul\":24305:24484   */\n      iszero\n      tag_491\n      jumpi\n        /* \"#utility.yul\":24378:24387   */\n      dup5\n        /* \"#utility.yul\":24373:24376   */\n      dup10\n        /* \"#utility.yul\":24369:24388   */\n      add\n        /* \"#utility.yul\":24363:24389   */\n      mload\n        /* \"#utility.yul\":24421:24469   */\n      tag_492\n        /* \"#utility.yul\":24463:24467   */\n      0x1f\n        /* \"#utility.yul\":24455:24461   */\n      dup10\n        /* \"#utility.yul\":24451:24468   */\n      and\n        /* \"#utility.yul\":24440:24449   */\n      dup3\n        /* \"#utility.yul\":24421:24469   */\n      tag_246\n      jump\t// in\n    tag_492:\n        /* \"#utility.yul\":24413:24419   */\n      dup4\n        /* \"#utility.yul\":24406:24470   */\n      sstore\n        /* \"#utility.yul\":24328:24484   */\n      pop\n        /* \"#utility.yul\":24305:24484   */\n    tag_491:\n        /* \"#utility.yul\":24530:24531   */\n      0x01\n        /* \"#utility.yul\":24526:24527   */\n      0x02\n        /* \"#utility.yul\":24518:24524   */\n      dup9\n        /* \"#utility.yul\":24514:24528   */\n      mul\n        /* \"#utility.yul\":24510:24532   */\n      add\n        /* \"#utility.yul\":24504:24508   */\n      dup9\n        /* \"#utility.yul\":24497:24533   */\n      sstore\n        /* \"#utility.yul\":23932:24543   */\n      pop\n      pop\n      pop\n        /* \"#utility.yul\":23895:24782   */\n    tag_483:\n      pop\n        /* \"#utility.yul\":23485:24788   */\n      pop\n      pop\n      pop\n        /* \"#utility.yul\":23393:24788   */\n      pop\n      pop\n      jump\t// out\n        /* \"#utility.yul\":24794:25217   */\n    tag_87:\n        /* \"#utility.yul\":24935:24939   */\n      0x00\n        /* \"#utility.yul\":24973:24975   */\n      0x40\n        /* \"#utility.yul\":24962:24971   */\n      dup3\n        /* \"#utility.yul\":24958:24976   */\n      add\n        /* \"#utility.yul\":24950:24976   */\n      swap1\n      pop\n        /* \"#utility.yul\":25022:25031   */\n      dup2\n        /* \"#utility.yul\":25016:25020   */\n      dup2\n        /* \"#utility.yul\":25012:25032   */\n      sub\n        /* \"#utility.yul\":25008:25009   */\n      0x00\n        /* \"#utility.yul\":24997:25006   */\n      dup4\n        /* \"#utility.yul\":24993:25010   */\n      add\n        /* \"#utility.yul\":24986:25033   */\n      mstore\n        /* \"#utility.yul\":25050:25128   */\n      tag_494\n        /* \"#utility.yul\":25123:25127   */\n      dup2\n        /* \"#utility.yul\":25114:25120   */\n      dup6\n        /* \"#utility.yul\":25050:25128   */\n      tag_207\n      jump\t// in\n    tag_494:\n        /* \"#utility.yul\":25042:25128   */\n      swap1\n      pop\n        /* \"#utility.yul\":25138:25210   */\n      tag_495\n        /* \"#utility.yul\":25206:25208   */\n      0x20\n        /* \"#utility.yul\":25195:25204   */\n      dup4\n        /* \"#utility.yul\":25191:25209   */\n      add\n        /* \"#utility.yul\":25182:25188   */\n      dup5\n        /* \"#utility.yul\":25138:25210   */\n      tag_201\n      jump\t// in\n    tag_495:\n        /* \"#utility.yul\":24794:25217   */\n      swap4\n      swap3\n      pop\n      pop\n      pop\n      jump\t// out\n        /* \"#utility.yul\":25223:25403   */\n    tag_112:\n        /* \"#utility.yul\":25271:25348   */\n      0x4e487b7100000000000000000000000000000000000000000000000000000000\n        /* \"#utility.yul\":25268:25269   */\n      0x00\n        /* \"#utility.yul\":25261:25349   */\n      mstore\n        /* \"#utility.yul\":25368:25372   */\n      0x32\n        /* \"#utility.yul\":25365:25366   */\n      0x04\n        /* \"#utility.yul\":25358:25373   */\n      mstore\n        /* \"#utility.yul\":25392:25396   */\n      0x24\n        /* \"#utility.yul\":25389:25390   */\n      0x00\n        /* \"#utility.yul\":25382:25397   */\n      revert\n        /* \"#utility.yul\":25409:25633   */\n    tag_248:\n        /* \"#utility.yul\":25549:25583   */\n      0x4f6e6c792041646d696e2043616e206372656174652054686973204f70657261\n        /* \"#utility.yul\":25545:25546   */\n      0x00\n        /* \"#utility.yul\":25537:25543   */\n      dup3\n        /* \"#utility.yul\":25533:25547   */\n      add\n        /* \"#utility.yul\":25526:25584   */\n      mstore\n        /* \"#utility.yul\":25618:25625   */\n      0x74696f6e73000000000000000000000000000000000000000000000000000000\n        /* \"#utility.yul\":25613:25615   */\n      0x20\n        /* \"#utility.yul\":25605:25611   */\n      dup3\n        /* \"#utility.yul\":25601:25616   */\n      add\n        /* \"#utility.yul\":25594:25626   */\n      mstore\n        /* \"#utility.yul\":25409:25633   */\n      pop\n      jump\t// out\n        /* \"#utility.yul\":25639:26005   */\n    tag_249:\n        /* \"#utility.yul\":25781:25784   */\n      0x00\n        /* \"#utility.yul\":25802:25869   */\n      tag_499\n        /* \"#utility.yul\":25866:25868   */\n      0x25\n        /* \"#utility.yul\":25861:25864   */\n      dup4\n        /* \"#utility.yul\":25802:25869   */\n      tag_205\n      jump\t// in\n    tag_499:\n        /* \"#utility.yul\":25795:25869   */\n      swap2\n      pop\n        /* \"#utility.yul\":25878:25971   */\n      tag_500\n        /* \"#utility.yul\":25967:25970   */\n      dup3\n        /* \"#utility.yul\":25878:25971   */\n      tag_248\n      jump\t// in\n    tag_500:\n        /* \"#utility.yul\":25996:25998   */\n      0x40\n        /* \"#utility.yul\":25991:25994   */\n      dup3\n        /* \"#utility.yul\":25987:25999   */\n      add\n        /* \"#utility.yul\":25980:25999   */\n      swap1\n      pop\n        /* \"#utility.yul\":25639:26005   */\n      swap2\n      swap1\n      pop\n      jump\t// out\n        /* \"#utility.yul\":26011:26430   */\n    tag_143:\n        /* \"#utility.yul\":26177:26181   */\n      0x00\n        /* \"#utility.yul\":26215:26217   */\n      0x20\n        /* \"#utility.yul\":26204:26213   */\n      dup3\n        /* \"#utility.yul\":26200:26218   */\n      add\n        /* \"#utility.yul\":26192:26218   */\n      swap1\n      pop\n        /* \"#utility.yul\":26264:26273   */\n      dup2\n        /* \"#utility.yul\":26258:26262   */\n      dup2\n        /* \"#utility.yul\":26254:26274   */\n      sub\n        /* \"#utility.yul\":26250:26251   */\n      0x00\n        /* \"#utility.yul\":26239:26248   */\n      dup4\n        /* \"#utility.yul\":26235:26252   */\n      add\n        /* \"#utility.yul\":26228:26275   */\n      mstore\n        /* \"#utility.yul\":26292:26423   */\n      tag_502\n        /* \"#utility.yul\":26418:26422   */\n      dup2\n        /* \"#utility.yul\":26292:26423   */\n      tag_249\n      jump\t// in\n    tag_502:\n        /* \"#utility.yul\":26284:26423   */\n      swap1\n      pop\n        /* \"#utility.yul\":26011:26430   */\n      swap2\n      swap1\n      pop\n      jump\t// out\n        /* \"#utility.yul\":26436:26618   */\n    tag_250:\n        /* \"#utility.yul\":26576:26610   */\n      0x4475726174696f6e206d757374207665206772656174686572205468616e2030\n        /* \"#utility.yul\":26572:26573   */\n      0x00\n        /* \"#utility.yul\":26564:26570   */\n      dup3\n        /* \"#utility.yul\":26560:26574   */\n      add\n        /* \"#utility.yul\":26553:26611   */\n      mstore\n        /* \"#utility.yul\":26436:26618   */\n      pop\n      jump\t// out\n        /* \"#utility.yul\":26624:26990   */\n    tag_251:\n        /* \"#utility.yul\":26766:26769   */\n      0x00\n        /* \"#utility.yul\":26787:26854   */\n      tag_505\n        /* \"#utility.yul\":26851:26853   */\n      0x20\n        /* \"#utility.yul\":26846:26849   */\n      dup4\n        /* \"#utility.yul\":26787:26854   */\n      tag_205\n      jump\t// in\n    tag_505:\n        /* \"#utility.yul\":26780:26854   */\n      swap2\n      pop\n        /* \"#utility.yul\":26863:26956   */\n      tag_506\n        /* \"#utility.yul\":26952:26955   */\n      dup3\n        /* \"#utility.yul\":26863:26956   */\n      tag_250\n      jump\t// in\n    tag_506:\n        /* \"#utility.yul\":26981:26983   */\n      0x20\n        /* \"#utility.yul\":26976:26979   */\n      dup3\n        /* \"#utility.yul\":26972:26984   */\n      add\n        /* \"#utility.yul\":26965:26984   */\n      swap1\n      pop\n        /* \"#utility.yul\":26624:26990   */\n      swap2\n      swap1\n      pop\n      jump\t// out\n        /* \"#utility.yul\":26996:27415   */\n    tag_147:\n        /* \"#utility.yul\":27162:27166   */\n      0x00\n        /* \"#utility.yul\":27200:27202   */\n      0x20\n        /* \"#utility.yul\":27189:27198   */\n      dup3\n        /* \"#utility.yul\":27185:27203   */\n      add\n        /* \"#utility.yul\":27177:27203   */\n      swap1\n      pop\n        /* \"#utility.yul\":27249:27258   */\n      dup2\n        /* \"#utility.yul\":27243:27247   */\n      dup2\n        /* \"#utility.yul\":27239:27259   */\n      sub\n        /* \"#utility.yul\":27235:27236   */\n      0x00\n        /* \"#utility.yul\":27224:27233   */\n      dup4\n        /* \"#utility.yul\":27220:27237   */\n      add\n        /* \"#utility.yul\":27213:27260   */\n      mstore\n        /* \"#utility.yul\":27277:27408   */\n      tag_508\n        /* \"#utility.yul\":27403:27407   */\n      dup2\n        /* \"#utility.yul\":27277:27408   */\n      tag_251\n      jump\t// in\n    tag_508:\n        /* \"#utility.yul\":27269:27408   */\n      swap1\n      pop\n        /* \"#utility.yul\":26996:27415   */\n      swap2\n      swap1\n      pop\n      jump\t// out\n        /* \"#utility.yul\":27421:27601   */\n    tag_252:\n        /* \"#utility.yul\":27561:27593   */\n      0x5f7469746c65206d757374207665206772656174686572205468616e20330000\n        /* \"#utility.yul\":27557:27558   */\n      0x00\n        /* \"#utility.yul\":27549:27555   */\n      dup3\n        /* \"#utility.yul\":27545:27559   */\n      add\n        /* \"#utility.yul\":27538:27594   */\n      mstore\n        /* \"#utility.yul\":27421:27601   */\n      pop\n      jump\t// out\n        /* \"#utility.yul\":27607:27973   */\n    tag_253:\n        /* \"#utility.yul\":27749:27752   */\n      0x00\n        /* \"#utility.yul\":27770:27837   */\n      tag_511\n        /* \"#utility.yul\":27834:27836   */\n      0x1e\n        /* \"#utility.yul\":27829:27832   */\n      dup4\n        /* \"#utility.yul\":27770:27837   */\n      tag_205\n      jump\t// in\n    tag_511:\n        /* \"#utility.yul\":27763:27837   */\n      swap2\n      pop\n        /* \"#utility.yul\":27846:27939   */\n      tag_512\n        /* \"#utility.yul\":27935:27938   */\n      dup3\n        /* \"#utility.yul\":27846:27939   */\n      tag_252\n      jump\t// in\n    tag_512:\n        /* \"#utility.yul\":27964:27966   */\n      0x20\n        /* \"#utility.yul\":27959:27962   */\n      dup3\n        /* \"#utility.yul\":27955:27967   */\n      add\n        /* \"#utility.yul\":27948:27967   */\n      swap1\n      pop\n        /* \"#utility.yul\":27607:27973   */\n      swap2\n      swap1\n      pop\n      jump\t// out\n        /* \"#utility.yul\":27979:28398   */\n    tag_150:\n        /* \"#utility.yul\":28145:28149   */\n      0x00\n        /* \"#utility.yul\":28183:28185   */\n      0x20\n        /* \"#utility.yul\":28172:28181   */\n      dup3\n        /* \"#utility.yul\":28168:28186   */\n      add\n        /* \"#utility.yul\":28160:28186   */\n      swap1\n      pop\n        /* \"#utility.yul\":28232:28241   */\n      dup2\n        /* \"#utility.yul\":28226:28230   */\n      dup2\n        /* \"#utility.yul\":28222:28242   */\n      sub\n        /* \"#utility.yul\":28218:28219   */\n      0x00\n        /* \"#utility.yul\":28207:28216   */\n      dup4\n        /* \"#utility.yul\":28203:28220   */\n      add\n        /* \"#utility.yul\":28196:28243   */\n      mstore\n        /* \"#utility.yul\":28260:28391   */\n      tag_514\n        /* \"#utility.yul\":28386:28390   */\n      dup2\n        /* \"#utility.yul\":28260:28391   */\n      tag_253\n      jump\t// in\n    tag_514:\n        /* \"#utility.yul\":28252:28391   */\n      swap1\n      pop\n        /* \"#utility.yul\":27979:28398   */\n      swap2\n      swap1\n      pop\n      jump\t// out\n        /* \"#utility.yul\":28404:28625   */\n    tag_254:\n        /* \"#utility.yul\":28544:28578   */\n      0x5f696d61676548617368206d757374207665206772656174686572205468616e\n        /* \"#utility.yul\":28540:28541   */\n      0x00\n        /* \"#utility.yul\":28532:28538   */\n      dup3\n        /* \"#utility.yul\":28528:28542   */\n      add\n        /* \"#utility.yul\":28521:28579   */\n      mstore\n        /* \"#utility.yul\":28613:28617   */\n      0x2033000000000000000000000000000000000000000000000000000000000000\n        /* \"#utility.yul\":28608:28610   */\n      0x20\n        /* \"#utility.yul\":28600:28606   */\n      dup3\n        /* \"#utility.yul\":28596:28611   */\n      add\n        /* \"#utility.yul\":28589:28618   */\n      mstore\n        /* \"#utility.yul\":28404:28625   */\n      pop\n      jump\t// out\n        /* \"#utility.yul\":28631:28997   */\n    tag_255:\n        /* \"#utility.yul\":28773:28776   */\n      0x00\n        /* \"#utility.yul\":28794:28861   */\n      tag_517\n        /* \"#utility.yul\":28858:28860   */\n      0x22\n        /* \"#utility.yul\":28853:28856   */\n      dup4\n        /* \"#utility.yul\":28794:28861   */\n      tag_205\n      jump\t// in\n    tag_517:\n        /* \"#utility.yul\":28787:28861   */\n      swap2\n      pop\n        /* \"#utility.yul\":28870:28963   */\n      tag_518\n        /* \"#utility.yul\":28959:28962   */\n      dup3\n        /* \"#utility.yul\":28870:28963   */\n      tag_254\n      jump\t// in\n    tag_518:\n        /* \"#utility.yul\":28988:28990   */\n      0x40\n        /* \"#utility.yul\":28983:28986   */\n      dup3\n        /* \"#utility.yul\":28979:28991   */\n      add\n        /* \"#utility.yul\":28972:28991   */\n      swap1\n      pop\n        /* \"#utility.yul\":28631:28997   */\n      swap2\n      swap1\n      pop\n      jump\t// out\n        /* \"#utility.yul\":29003:29422   */\n    tag_153:\n        /* \"#utility.yul\":29169:29173   */\n      0x00\n        /* \"#utility.yul\":29207:29209   */\n      0x20\n        /* \"#utility.yul\":29196:29205   */\n      dup3\n        /* \"#utility.yul\":29192:29210   */\n      add\n        /* \"#utility.yul\":29184:29210   */\n      swap1\n      pop\n        /* \"#utility.yul\":29256:29265   */\n      dup2\n        /* \"#utility.yul\":29250:29254   */\n      dup2\n        /* \"#utility.yul\":29246:29266   */\n      sub\n        /* \"#utility.yul\":29242:29243   */\n      0x00\n        /* \"#utility.yul\":29231:29240   */\n      dup4\n        /* \"#utility.yul\":29227:29244   */\n      add\n        /* \"#utility.yul\":29220:29267   */\n      mstore\n        /* \"#utility.yul\":29284:29415   */\n      tag_520\n        /* \"#utility.yul\":29410:29414   */\n      dup2\n        /* \"#utility.yul\":29284:29415   */\n      tag_255\n      jump\t// in\n    tag_520:\n        /* \"#utility.yul\":29276:29415   */\n      swap1\n      pop\n        /* \"#utility.yul\":29003:29422   */\n      swap2\n      swap1\n      pop\n      jump\t// out\n        /* \"#utility.yul\":29428:29651   */\n    tag_256:\n        /* \"#utility.yul\":29568:29602   */\n      0x5f6465736372697074696f6e206d757374207665206772656174686572205468\n        /* \"#utility.yul\":29564:29565   */\n      0x00\n        /* \"#utility.yul\":29556:29562   */\n      dup3\n        /* \"#utility.yul\":29552:29566   */\n      add\n        /* \"#utility.yul\":29545:29603   */\n      mstore\n        /* \"#utility.yul\":29637:29643   */\n      0x616e203300000000000000000000000000000000000000000000000000000000\n        /* \"#utility.yul\":29632:29634   */\n      0x20\n        /* \"#utility.yul\":29624:29630   */\n      dup3\n        /* \"#utility.yul\":29620:29635   */\n      add\n        /* \"#utility.yul\":29613:29644   */\n      mstore\n        /* \"#utility.yul\":29428:29651   */\n      pop\n      jump\t// out\n        /* \"#utility.yul\":29657:30023   */\n    tag_257:\n        /* \"#utility.yul\":29799:29802   */\n      0x00\n        /* \"#utility.yul\":29820:29887   */\n      tag_523\n        /* \"#utility.yul\":29884:29886   */\n      0x24\n        /* \"#utility.yul\":29879:29882   */\n      dup4\n        /* \"#utility.yul\":29820:29887   */\n      tag_205\n      jump\t// in\n    tag_523:\n        /* \"#utility.yul\":29813:29887   */\n      swap2\n      pop\n        /* \"#utility.yul\":29896:29989   */\n      tag_524\n        /* \"#utility.yul\":29985:29988   */\n      dup3\n        /* \"#utility.yul\":29896:29989   */\n      tag_256\n      jump\t// in\n    tag_524:\n        /* \"#utility.yul\":30014:30016   */\n      0x40\n        /* \"#utility.yul\":30009:30012   */\n      dup3\n        /* \"#utility.yul\":30005:30017   */\n      add\n        /* \"#utility.yul\":29998:30017   */\n      swap1\n      pop\n        /* \"#utility.yul\":29657:30023   */\n      swap2\n      swap1\n      pop\n      jump\t// out\n        /* \"#utility.yul\":30029:30448   */\n    tag_156:\n        /* \"#utility.yul\":30195:30199   */\n      0x00\n        /* \"#utility.yul\":30233:30235   */\n      0x20\n        /* \"#utility.yul\":30222:30231   */\n      dup3\n        /* \"#utility.yul\":30218:30236   */\n      add\n        /* \"#utility.yul\":30210:30236   */\n      swap1\n      pop\n        /* \"#utility.yul\":30282:30291   */\n      dup2\n        /* \"#utility.yul\":30276:30280   */\n      dup2\n        /* \"#utility.yul\":30272:30292   */\n      sub\n        /* \"#utility.yul\":30268:30269   */\n      0x00\n        /* \"#utility.yul\":30257:30266   */\n      dup4\n        /* \"#utility.yul\":30253:30270   */\n      add\n        /* \"#utility.yul\":30246:30293   */\n      mstore\n        /* \"#utility.yul\":30310:30441   */\n      tag_526\n        /* \"#utility.yul\":30436:30440   */\n      dup2\n        /* \"#utility.yul\":30310:30441   */\n      tag_257\n      jump\t// in\n    tag_526:\n        /* \"#utility.yul\":30302:30441   */\n      swap1\n      pop\n        /* \"#utility.yul\":30029:30448   */\n      swap2\n      swap1\n      pop\n      jump\t// out\n        /* \"#utility.yul\":30454:30645   */\n    tag_163:\n        /* \"#utility.yul\":30494:30497   */\n      0x00\n        /* \"#utility.yul\":30513:30533   */\n      tag_528\n        /* \"#utility.yul\":30531:30532   */\n      dup3\n        /* \"#utility.yul\":30513:30533   */\n      tag_182\n      jump\t// in\n    tag_528:\n        /* \"#utility.yul\":30508:30533   */\n      swap2\n      pop\n        /* \"#utility.yul\":30547:30567   */\n      tag_529\n        /* \"#utility.yul\":30565:30566   */\n      dup4\n        /* \"#utility.yul\":30547:30567   */\n      tag_182\n      jump\t// in\n    tag_529:\n        /* \"#utility.yul\":30542:30567   */\n      swap3\n      pop\n        /* \"#utility.yul\":30590:30591   */\n      dup3\n        /* \"#utility.yul\":30587:30588   */\n      dup3\n        /* \"#utility.yul\":30583:30592   */\n      add\n        /* \"#utility.yul\":30576:30592   */\n      swap1\n      pop\n        /* \"#utility.yul\":30611:30614   */\n      dup1\n        /* \"#utility.yul\":30608:30609   */\n      dup3\n        /* \"#utility.yul\":30605:30615   */\n      gt\n        /* \"#utility.yul\":30602:30638   */\n      iszero\n      tag_530\n      jumpi\n        /* \"#utility.yul\":30618:30636   */\n      tag_531\n      tag_231\n      jump\t// in\n    tag_531:\n        /* \"#utility.yul\":30602:30638   */\n    tag_530:\n        /* \"#utility.yul\":30454:30645   */\n      swap3\n      swap2\n      pop\n      pop\n      jump\t// out\n        /* \"#utility.yul\":30651:31184   */\n    tag_167:\n        /* \"#utility.yul\":30820:30824   */\n      0x00\n        /* \"#utility.yul\":30858:30860   */\n      0x60\n        /* \"#utility.yul\":30847:30856   */\n      dup3\n        /* \"#utility.yul\":30843:30861   */\n      add\n        /* \"#utility.yul\":30835:30861   */\n      swap1\n      pop\n        /* \"#utility.yul\":30907:30916   */\n      dup2\n        /* \"#utility.yul\":30901:30905   */\n      dup2\n        /* \"#utility.yul\":30897:30917   */\n      sub\n        /* \"#utility.yul\":30893:30894   */\n      0x00\n        /* \"#utility.yul\":30882:30891   */\n      dup4\n        /* \"#utility.yul\":30878:30895   */\n      add\n        /* \"#utility.yul\":30871:30918   */\n      mstore\n        /* \"#utility.yul\":30935:31013   */\n      tag_533\n        /* \"#utility.yul\":31008:31012   */\n      dup2\n        /* \"#utility.yul\":30999:31005   */\n      dup7\n        /* \"#utility.yul\":30935:31013   */\n      tag_207\n      jump\t// in\n    tag_533:\n        /* \"#utility.yul\":30927:31013   */\n      swap1\n      pop\n        /* \"#utility.yul\":31023:31095   */\n      tag_534\n        /* \"#utility.yul\":31091:31093   */\n      0x20\n        /* \"#utility.yul\":31080:31089   */\n      dup4\n        /* \"#utility.yul\":31076:31094   */\n      add\n        /* \"#utility.yul\":31067:31073   */\n      dup6\n        /* \"#utility.yul\":31023:31095   */\n      tag_201\n      jump\t// in\n    tag_534:\n        /* \"#utility.yul\":31105:31177   */\n      tag_535\n        /* \"#utility.yul\":31173:31175   */\n      0x40\n        /* \"#utility.yul\":31162:31171   */\n      dup4\n        /* \"#utility.yul\":31158:31176   */\n      add\n        /* \"#utility.yul\":31149:31155   */\n      dup5\n        /* \"#utility.yul\":31105:31177   */\n      tag_201\n      jump\t// in\n    tag_535:\n        /* \"#utility.yul\":30651:31184   */\n      swap5\n      swap4\n      pop\n      pop\n      pop\n      pop\n      jump\t// out\n\n    auxdata: 0xa2646970667358221220fb8b7c60cee6470f67cc25717c926bc0ba2baf7a54da8cd262c0285545cd5fbc64736f6c634300081a0033\n}\n",
				"bytecode": {
					"linkReferences": {},
					"object": "6080604052348015600e575f80fd5b503360015f6101000a81548173ffffffffffffffffffffffffffffffffffffffff021916908373ffffffffffffffffffffffffffffffffffffffff160217905550611fcb8061005c5f395ff3fe608060405234801561000f575f80fd5b5060043610610086575f3560e01c8063648a2e9211610059578063648a2e92146101135780638cb0f49d14610149578063f851a44014610165578063ff9810991461018357610086565b8063241084751461008a578063408f5a7f146100a65780634248bcf3146100c55780635c3d868f146100e3575b5f80fd5b6100a4600480360381019061009f91906111e7565b6101b3565b005b6100ae610795565b6040516100bc9291906112f8565b60405180910390f35b6100cd610945565b6040516100da919061133c565b60405180910390f35b6100fd60048036038101906100f89190611355565b61094f565b60405161010a919061139a565b60405180910390f35b61012d60048036038101906101289190611355565b61096e565b6040516101409796959493929190611413565b60405180910390f35b610163600480360381019061015e9190611495565b610bc4565b005b61016d610ec4565b60405161017a919061158c565b60405180910390f35b61019d60048036038101906101989190611355565b610ee9565b6040516101aa9190611704565b60405180910390f35b8160025f8281526020019081526020015f206008015f9054906101000a900460ff16610214576040517f08c379a000000000000000000000000000000000000000000000000000000000815260040161020b9061176e565b60405180910390fd5b8260025f8281526020019081526020015f2060010154421061026b576040517f08c379a0000000000000000000000000000000000000000000000000000000008152600401610262906117d6565b60405180910390fd5b8360025f8281526020019081526020015f206004015f3373ffffffffffffffffffffffffffffffffffffffff1673ffffffffffffffffffffffffffffffffffffffff1681526020019081526020015f205f9054906101000a900460ff1615610308576040517f08c379a00000000000000000000000000000000000000000000000000000000081526004016102ff9061183e565b60405180910390fd5b7f84e4f592e52dc6e339ebb9a3f379f4dcf988a1253042a8ba9f03099551864bf08460405160200161033a9190611896565b6040516020818303038152906040528051906020012014806103a157507f267aa6f4694ec65b4167a753966ad7f8f38d1152f8a81ccf0d941bd0680eb852846040516020016103899190611896565b60405160208183030381529060405280519060200120145b806103f157507fec909a09e1b13c18ded9f3beadbaf9a4fb3e3f1fbd6cd0e0f273dd90b6d789a2846040516020016103d99190611896565b60405160208183030381529060405280519060200120145b610430576040517f08c379a0000000000000000000000000000000000000000000000000000000008152600401610427906118f6565b60405180910390fd5b7f84e4f592e52dc6e339ebb9a3f379f4dcf988a1253042a8ba9f03099551864bf0846040516020016104629190611896565b60405160208183030381529060405280519060200120036104ab5760025f8681526020019081526020015f206006015f8154809291906104a190611941565b919050555061059f565b7f267aa6f4694ec65b4167a753966ad7f8f38d1152f8a81ccf0d941bd0680eb852846040516020016104dd9190611896565b60405160208183030381529060405280519060200120036105265760025f8681526020019081526020015f206005015f81548092919061051c90611941565b919050555061059e565b7fec909a09e1b13c18ded9f3beadbaf9a4fb3e3f1fbd6cd0e0f273dd90b6d789a2846040516020016105589190611896565b604051602081830303815290604052805190602001200361059d5760025f8681526020019081526020015f206007015f81548092919061059790611941565b91905055505b5b5b600160025f8781526020019081526020015f206004015f3373ffffffffffffffffffffffffffffffffffffffff1673ffffffffffffffffffffffffffffffffffffffff1681526020019081526020015f205f6101000a81548160ff02191690831515021790555060035f3373ffffffffffffffffffffffffffffffffffffffff1673ffffffffffffffffffffffffffffffffffffffff1681526020019081526020015f2085908060018154018082558091505060019003905f5260205f20015f90919091909150555f60405180606001604052803373ffffffffffffffffffffffffffffffffffffffff16815260200186815260200142815250905060025f8781526020019081526020015f2060090181908060018154018082558091505060019003905f5260205f2090600302015f909190919091505f820151815f015f6101000a81548173ffffffffffffffffffffffffffffffffffffffff021916908373ffffffffffffffffffffffffffffffffffffffff160217905550602082015181600101908161072f9190611b82565b506040820151816002015550503373ffffffffffffffffffffffffffffffffffffffff16867f3ae89ec44d6750209e1164a2659a766e3cfe3476e908a19cb5e928974ef5e4ec8742604051610785929190611c51565b60405180910390a3505050505050565b6060805f6107a25f611047565b90505f805f600190505b838111610804574260025f8381526020019081526020015f206001015411156107e25782806107da90611941565b9350506107f1565b81806107ed90611941565b9250505b80806107fc90611941565b9150506107ac565b508167ffffffffffffffff81111561081f5761081e6110c3565b5b60405190808252806020026020018201604052801561084d5781602001602082028036833780820191505090505b5094508067ffffffffffffffff81111561086a576108696110c3565b5b6040519080825280602002602001820160405280156108985781602001602082028036833780820191505090505b5093505f805f600190505b85811161093b574260025f8381526020019081526020015f206001015411156108f957808884815181106108da576108d9611c7f565b5b60200260200101818152505082806108f190611941565b935050610928565b8087838151811061090d5761090c611c7f565b5b602002602001018181525050818061092490611941565b9250505b808061093390611941565b9150506108a3565b5050505050509091565b5f805f0154905081565b5f60025f8381526020019081526020015f206001015442109050919050565b60605f6060805f805f8760025f8281526020019081526020015f206008015f9054906101000a900460ff166109d8576040517f08c379a00000000000000000000000000000000000000000000000000000000081526004016109cf9061176e565b60405180910390fd5b5f60025f8b81526020019081526020015f209050805f0181600101548260020183600301846005015485600601548660070154868054610a17906119b5565b80601f0160208091040260200160405190810160405280929190818152602001828054610a43906119b5565b8015610a8e5780601f10610a6557610100808354040283529160200191610a8e565b820191905f5260205f20905b815481529060010190602001808311610a7157829003601f168201915b50505050509650848054610aa1906119b5565b80601f0160208091040260200160405190810160405280929190818152602001828054610acd906119b5565b8015610b185780601f10610aef57610100808354040283529160200191610b18565b820191905f5260205f20905b815481529060010190602001808311610afb57829003601f168201915b50505050509450838054610b2b906119b5565b80601f0160208091040260200160405190810160405280929190818152602001828054610b57906119b5565b8015610ba25780601f10610b7957610100808354040283529160200191610ba2565b820191905f5260205f20905b815481529060010190602001808311610b8557829003601f168201915b5050505050935098509850985098509850985098505050919395979092949650565b60015f9054906101000a900473ffffffffffffffffffffffffffffffffffffffff1673ffffffffffffffffffffffffffffffffffffffff163373ffffffffffffffffffffffffffffffffffffffff1614610c53576040517f08c379a0000000000000000000000000000000000000000000000000000000008152600401610c4a90611d1c565b60405180910390fd5b5f8311610c95576040517f08c379a0000000000000000000000000000000000000000000000000000000008152600401610c8c90611d84565b60405180910390fd5b6003845111610cd9576040517f08c379a0000000000000000000000000000000000000000000000000000000008152600401610cd090611dec565b60405180910390fd5b6003825111610d1d576040517f08c379a0000000000000000000000000000000000000000000000000000000008152600401610d1490611e7a565b60405180910390fd5b6003815111610d61576040517f08c379a0000000000000000000000000000000000000000000000000000000008152600401610d5890611f08565b60405180910390fd5b610d6a5f611053565b5f610d745f611047565b90508460025f8381526020019081526020015f205f019081610d969190611b82565b508160025f8381526020019081526020015f206003019081610db89190611b82565b508342610dc59190611f26565b60025f8381526020019081526020015f20600101819055508260025f8381526020019081526020015f206002019081610dfe9190611b82565b505f60025f8381526020019081526020015f20600501819055505f60025f8381526020019081526020015f20600601819055505f60025f8381526020019081526020015f2060070181905550600160025f8381526020019081526020015f206008015f6101000a81548160ff021916908315150217905550807fc12ed8d302ff006db51c496d9dc9f900ffc6f4d54f461eb0cd812b0a08b80804868642610ea59190611f26565b42604051610eb593929190611f59565b60405180910390a25050505050565b60015f9054906101000a900473ffffffffffffffffffffffffffffffffffffffff1681565b606060025f8381526020019081526020015f20600901805480602002602001604051908101604052809291908181526020015f905b8282101561103c578382905f5260205f2090600302016040518060600160405290815f82015f9054906101000a900473ffffffffffffffffffffffffffffffffffffffff1673ffffffffffffffffffffffffffffffffffffffff1673ffffffffffffffffffffffffffffffffffffffff168152602001600182018054610fa3906119b5565b80601f0160208091040260200160405190810160405280929190818152602001828054610fcf906119b5565b801561101a5780601f10610ff15761010080835404028352916020019161101a565b820191905f5260205f20905b815481529060010190602001808311610ffd57829003601f168201915b5050505050815260200160028201548152505081526020019060010190610f1e565b505050509050919050565b5f815f01549050919050565b6001815f015f828254019250508190555050565b5f604051905090565b5f80fd5b5f80fd5b5f819050919050565b61108a81611078565b8114611094575f80fd5b50565b5f813590506110a581611081565b92915050565b5f80fd5b5f80fd5b5f601f19601f8301169050919050565b7f4e487b71000000000000000000000000000000000000000000000000000000005f52604160045260245ffd5b6110f9826110b3565b810181811067ffffffffffffffff82111715611118576111176110c3565b5b80604052505050565b5f61112a611067565b905061113682826110f0565b919050565b5f67ffffffffffffffff821115611155576111546110c3565b5b61115e826110b3565b9050602081019050919050565b828183375f83830152505050565b5f61118b6111868461113b565b611121565b9050828152602081018484840111156111a7576111a66110af565b5b6111b284828561116b565b509392505050565b5f82601f8301126111ce576111cd6110ab565b5b81356111de848260208601611179565b91505092915050565b5f80604083850312156111fd576111fc611070565b5b5f61120a85828601611097565b925050602083013567ffffffffffffffff81111561122b5761122a611074565b5b611237858286016111ba565b9150509250929050565b5f81519050919050565b5f82825260208201905092915050565b5f819050602082019050919050565b61127381611078565b82525050565b5f611284838361126a565b60208301905092915050565b5f602082019050919050565b5f6112a682611241565b6112b0818561124b565b93506112bb8361125b565b805f5b838110156112eb5781516112d28882611279565b97506112dd83611290565b9250506001810190506112be565b5085935050505092915050565b5f6040820190508181035f830152611310818561129c565b90508181036020830152611324818461129c565b90509392505050565b61133681611078565b82525050565b5f60208201905061134f5f83018461132d565b92915050565b5f6020828403121561136a57611369611070565b5b5f61137784828501611097565b91505092915050565b5f8115159050919050565b61139481611380565b82525050565b5f6020820190506113ad5f83018461138b565b92915050565b5f81519050919050565b5f82825260208201905092915050565b8281835e5f83830152505050565b5f6113e5826113b3565b6113ef81856113bd565b93506113ff8185602086016113cd565b611408816110b3565b840191505092915050565b5f60e0820190508181035f83015261142b818a6113db565b905061143a602083018961132d565b818103604083015261144c81886113db565b9050818103606083015261146081876113db565b905061146f608083018661132d565b61147c60a083018561132d565b61148960c083018461132d565b98975050505050505050565b5f805f80608085870312156114ad576114ac611070565b5b5f85013567ffffffffffffffff8111156114ca576114c9611074565b5b6114d6878288016111ba565b94505060206114e787828801611097565b935050604085013567ffffffffffffffff81111561150857611507611074565b5b611514878288016111ba565b925050606085013567ffffffffffffffff81111561153557611534611074565b5b611541878288016111ba565b91505092959194509250565b5f73ffffffffffffffffffffffffffffffffffffffff82169050919050565b5f6115768261154d565b9050919050565b6115868161156c565b82525050565b5f60208201905061159f5f83018461157d565b92915050565b5f81519050919050565b5f82825260208201905092915050565b5f819050602082019050919050565b6115d78161156c565b82525050565b5f82825260208201905092915050565b5f6115f7826113b3565b61160181856115dd565b93506116118185602086016113cd565b61161a816110b3565b840191505092915050565b5f606083015f83015161163a5f8601826115ce565b506020830151848203602086015261165282826115ed565b9150506040830151611667604086018261126a565b508091505092915050565b5f61167d8383611625565b905092915050565b5f602082019050919050565b5f61169b826115a5565b6116a581856115af565b9350836020820285016116b7856115bf565b805f5b858110156116f257848403895281516116d38582611672565b94506116de83611685565b925060208a019950506001810190506116ba565b50829750879550505050505092915050565b5f6020820190508181035f83015261171c8184611691565b905092915050565b7f506f6c6c696e6720646f7365206e6f74206578697374000000000000000000005f82015250565b5f6117586016836113bd565b915061176382611724565b602082019050919050565b5f6020820190508181035f8301526117858161174c565b9050919050565b7f506f6c6c696e672068617320456e6465640000000000000000000000000000005f82015250565b5f6117c06011836113bd565b91506117cb8261178c565b602082019050919050565b5f6020820190508181035f8301526117ed816117b4565b9050919050565b7f596f75206861766520416c726561647920566f746564000000000000000000005f82015250565b5f6118286016836113bd565b9150611833826117f4565b602082019050919050565b5f6020820190508181035f8301526118558161181c565b9050919050565b5f81905092915050565b5f611870826113b3565b61187a818561185c565b935061188a8185602086016113cd565b80840191505092915050565b5f6118a18284611866565b915081905092915050565b7f496e7661696c6420566f74696e672043686f69636500000000000000000000005f82015250565b5f6118e06015836113bd565b91506118eb826118ac565b602082019050919050565b5f6020820190508181035f83015261190d816118d4565b9050919050565b7f4e487b71000000000000000000000000000000000000000000000000000000005f52601160045260245ffd5b5f61194b82611078565b91507fffffffffffffffffffffffffffffffffffffffffffffffffffffffffffffffff820361197d5761197c611914565b5b600182019050919050565b7f4e487b71000000000000000000000000000000000000000000000000000000005f52602260045260245ffd5b5f60028204905060018216806119cc57607f821691505b6020821081036119df576119de611988565b5b50919050565b5f819050815f5260205f209050919050565b5f6020601f8301049050919050565b5f82821b905092915050565b5f60088302611a417fffffffffffffffffffffffffffffffffffffffffffffffffffffffffffffffff82611a06565b611a4b8683611a06565b95508019841693508086168417925050509392505050565b5f819050919050565b5f611a86611a81611a7c84611078565b611a63565b611078565b9050919050565b5f819050919050565b611a9f83611a6c565b611ab3611aab82611a8d565b848454611a12565b825550505050565b5f90565b611ac7611abb565b611ad2818484611a96565b505050565b5b81811015611af557611aea5f82611abf565b600181019050611ad8565b5050565b601f821115611b3a57611b0b816119e5565b611b14846119f7565b81016020851015611b23578190505b611b37611b2f856119f7565b830182611ad7565b50505b505050565b5f82821c905092915050565b5f611b5a5f1984600802611b3f565b1980831691505092915050565b5f611b728383611b4b565b9150826002028217905092915050565b611b8b826113b3565b67ffffffffffffffff811115611ba457611ba36110c3565b5b611bae82546119b5565b611bb9828285611af9565b5f60209050601f831160018114611bea575f8415611bd8578287015190505b611be28582611b67565b865550611c49565b601f198416611bf8866119e5565b5f5b82811015611c1f57848901518255600182019150602085019450602081019050611bfa565b86831015611c3c5784890151611c38601f891682611b4b565b8355505b6001600288020188555050505b505050505050565b5f6040820190508181035f830152611c6981856113db565b9050611c78602083018461132d565b9392505050565b7f4e487b71000000000000000000000000000000000000000000000000000000005f52603260045260245ffd5b7f4f6e6c792041646d696e2043616e206372656174652054686973204f706572615f8201527f74696f6e73000000000000000000000000000000000000000000000000000000602082015250565b5f611d066025836113bd565b9150611d1182611cac565b604082019050919050565b5f6020820190508181035f830152611d3381611cfa565b9050919050565b7f4475726174696f6e206d757374207665206772656174686572205468616e20305f82015250565b5f611d6e6020836113bd565b9150611d7982611d3a565b602082019050919050565b5f6020820190508181035f830152611d9b81611d62565b9050919050565b7f5f7469746c65206d757374207665206772656174686572205468616e203300005f82015250565b5f611dd6601e836113bd565b9150611de182611da2565b602082019050919050565b5f6020820190508181035f830152611e0381611dca565b9050919050565b7f5f696d61676548617368206d757374207665206772656174686572205468616e5f8201527f2033000000000000000000000000000000000000000000000000000000000000602082015250565b5f611e646022836113bd565b9150611e6f82611e0a565b604082019050919050565b5f6020820190508181035f830152611e9181611e58565b9050919050565b7f5f6465736372697074696f6e206d7573742076652067726561746865722054685f8201527f616e203300000000000000000000000000000000000000000000000000000000602082015250565b5f611ef26024836113bd565b9150611efd82611e98565b604082019050919050565b5f6020820190508181035f830152611f1f81611ee6565b9050919050565b5f611f3082611078565b9150611f3b83611078565b9250828201905080821115611f5357611f52611914565b5b92915050565b5f6060820190508181035f830152611f7181866113db565b9050611f80602083018561132d565b611f8d604083018461132d565b94935050505056fea2646970667358221220fb8b7c60cee6470f67cc25717c926bc0ba2baf7a54da8cd262c0285545cd5fbc64736f6c634300081a0033",
					"opcodes": "PUSH1 0x80 PUSH1 0x40 MSTORE CALLVALUE DUP1 ISZERO PUSH1 0xE JUMPI PUSH0 DUP1 REVERT JUMPDEST POP CALLER PUSH1 0x1 PUSH0 PUSH2 0x100 EXP DUP2 SLOAD DUP2 PUSH20 0xFFFFFFFFFFFFFFFFFFFFFFFFFFFFFFFFFFFFFFFF MUL NOT AND SWAP1 DUP4 PUSH20 0xFFFFFFFFFFFFFFFFFFFFFFFFFFFFFFFFFFFFFFFF AND MUL OR SWAP1 SSTORE POP PUSH2 0x1FCB DUP1 PUSH2 0x5C PUSH0 CODECOPY PUSH0 RETURN INVALID PUSH1 0x80 PUSH1 0x40 MSTORE CALLVALUE DUP1 ISZERO PUSH2 0xF JUMPI PUSH0 DUP1 REVERT JUMPDEST POP PUSH1 0x4 CALLDATASIZE LT PUSH2 0x86 JUMPI PUSH0 CALLDATALOAD PUSH1 0xE0 SHR DUP1 PUSH4 0x648A2E92 GT PUSH2 0x59 JUMPI DUP1 PUSH4 0x648A2E92 EQ PUSH2 0x113 JUMPI DUP1 PUSH4 0x8CB0F49D EQ PUSH2 0x149 JUMPI DUP1 PUSH4 0xF851A440 EQ PUSH2 0x165 JUMPI DUP1 PUSH4 0xFF981099 EQ PUSH2 0x183 JUMPI PUSH2 0x86 JUMP JUMPDEST DUP1 PUSH4 0x24108475 EQ PUSH2 0x8A JUMPI DUP1 PUSH4 0x408F5A7F EQ PUSH2 0xA6 JUMPI DUP1 PUSH4 0x4248BCF3 EQ PUSH2 0xC5 JUMPI DUP1 PUSH4 0x5C3D868F EQ PUSH2 0xE3 JUMPI JUMPDEST PUSH0 DUP1 REVERT JUMPDEST PUSH2 0xA4 PUSH1 0x4 DUP1 CALLDATASIZE SUB DUP2 ADD SWAP1 PUSH2 0x9F SWAP2 SWAP1 PUSH2 0x11E7 JUMP JUMPDEST PUSH2 0x1B3 JUMP JUMPDEST STOP JUMPDEST PUSH2 0xAE PUSH2 0x795 JUMP JUMPDEST PUSH1 0x40 MLOAD PUSH2 0xBC SWAP3 SWAP2 SWAP1 PUSH2 0x12F8 JUMP JUMPDEST PUSH1 0x40 MLOAD DUP1 SWAP2 SUB SWAP1 RETURN JUMPDEST PUSH2 0xCD PUSH2 0x945 JUMP JUMPDEST PUSH1 0x40 MLOAD PUSH2 0xDA SWAP2 SWAP1 PUSH2 0x133C JUMP JUMPDEST PUSH1 0x40 MLOAD DUP1 SWAP2 SUB SWAP1 RETURN JUMPDEST PUSH2 0xFD PUSH1 0x4 DUP1 CALLDATASIZE SUB DUP2 ADD SWAP1 PUSH2 0xF8 SWAP2 SWAP1 PUSH2 0x1355 JUMP JUMPDEST PUSH2 0x94F JUMP JUMPDEST PUSH1 0x40 MLOAD PUSH2 0x10A SWAP2 SWAP1 PUSH2 0x139A JUMP JUMPDEST PUSH1 0x40 MLOAD DUP1 SWAP2 SUB SWAP1 RETURN JUMPDEST PUSH2 0x12D PUSH1 0x4 DUP1 CALLDATASIZE SUB DUP2 ADD SWAP1 PUSH2 0x128 SWAP2 SWAP1 PUSH2 0x1355 JUMP JUMPDEST PUSH2 0x96E JUMP JUMPDEST PUSH1 0x40 MLOAD PUSH2 0x140 SWAP8 SWAP7 SWAP6 SWAP5 SWAP4 SWAP3 SWAP2 SWAP1 PUSH2 0x1413 JUMP JUMPDEST PUSH1 0x40 MLOAD DUP1 SWAP2 SUB SWAP1 RETURN JUMPDEST PUSH2 0x163 PUSH1 0x4 DUP1 CALLDATASIZE SUB DUP2 ADD SWAP1 PUSH2 0x15E SWAP2 SWAP1 PUSH2 0x1495 JUMP JUMPDEST PUSH2 0xBC4 JUMP JUMPDEST STOP JUMPDEST PUSH2 0x16D PUSH2 0xEC4 JUMP JUMPDEST PUSH1 0x40 MLOAD PUSH2 0x17A SWAP2 SWAP1 PUSH2 0x158C JUMP JUMPDEST PUSH1 0x40 MLOAD DUP1 SWAP2 SUB SWAP1 RETURN JUMPDEST PUSH2 0x19D PUSH1 0x4 DUP1 CALLDATASIZE SUB DUP2 ADD SWAP1 PUSH2 0x198 SWAP2 SWAP1 PUSH2 0x1355 JUMP JUMPDEST PUSH2 0xEE9 JUMP JUMPDEST PUSH1 0x40 MLOAD PUSH2 0x1AA SWAP2 SWAP1 PUSH2 0x1704 JUMP JUMPDEST PUSH1 0x40 MLOAD DUP1 SWAP2 SUB SWAP1 RETURN JUMPDEST DUP2 PUSH1 0x2 PUSH0 DUP3 DUP2 MSTORE PUSH1 0x20 ADD SWAP1 DUP2 MSTORE PUSH1 0x20 ADD PUSH0 KECCAK256 PUSH1 0x8 ADD PUSH0 SWAP1 SLOAD SWAP1 PUSH2 0x100 EXP SWAP1 DIV PUSH1 0xFF AND PUSH2 0x214 JUMPI PUSH1 0x40 MLOAD PUSH32 0x8C379A000000000000000000000000000000000000000000000000000000000 DUP2 MSTORE PUSH1 0x4 ADD PUSH2 0x20B SWAP1 PUSH2 0x176E JUMP JUMPDEST PUSH1 0x40 MLOAD DUP1 SWAP2 SUB SWAP1 REVERT JUMPDEST DUP3 PUSH1 0x2 PUSH0 DUP3 DUP2 MSTORE PUSH1 0x20 ADD SWAP1 DUP2 MSTORE PUSH1 0x20 ADD PUSH0 KECCAK256 PUSH1 0x1 ADD SLOAD TIMESTAMP LT PUSH2 0x26B JUMPI PUSH1 0x40 MLOAD PUSH32 0x8C379A000000000000000000000000000000000000000000000000000000000 DUP2 MSTORE PUSH1 0x4 ADD PUSH2 0x262 SWAP1 PUSH2 0x17D6 JUMP JUMPDEST PUSH1 0x40 MLOAD DUP1 SWAP2 SUB SWAP1 REVERT JUMPDEST DUP4 PUSH1 0x2 PUSH0 DUP3 DUP2 MSTORE PUSH1 0x20 ADD SWAP1 DUP2 MSTORE PUSH1 0x20 ADD PUSH0 KECCAK256 PUSH1 0x4 ADD PUSH0 CALLER PUSH20 0xFFFFFFFFFFFFFFFFFFFFFFFFFFFFFFFFFFFFFFFF AND PUSH20 0xFFFFFFFFFFFFFFFFFFFFFFFFFFFFFFFFFFFFFFFF AND DUP2 MSTORE PUSH1 0x20 ADD SWAP1 DUP2 MSTORE PUSH1 0x20 ADD PUSH0 KECCAK256 PUSH0 SWAP1 SLOAD SWAP1 PUSH2 0x100 EXP SWAP1 DIV PUSH1 0xFF AND ISZERO PUSH2 0x308 JUMPI PUSH1 0x40 MLOAD PUSH32 0x8C379A000000000000000000000000000000000000000000000000000000000 DUP2 MSTORE PUSH1 0x4 ADD PUSH2 0x2FF SWAP1 PUSH2 0x183E JUMP JUMPDEST PUSH1 0x40 MLOAD DUP1 SWAP2 SUB SWAP1 REVERT JUMPDEST PUSH32 0x84E4F592E52DC6E339EBB9A3F379F4DCF988A1253042A8BA9F03099551864BF0 DUP5 PUSH1 0x40 MLOAD PUSH1 0x20 ADD PUSH2 0x33A SWAP2 SWAP1 PUSH2 0x1896 JUMP JUMPDEST PUSH1 0x40 MLOAD PUSH1 0x20 DUP2 DUP4 SUB SUB DUP2 MSTORE SWAP1 PUSH1 0x40 MSTORE DUP1 MLOAD SWAP1 PUSH1 0x20 ADD KECCAK256 EQ DUP1 PUSH2 0x3A1 JUMPI POP PUSH32 0x267AA6F4694EC65B4167A753966AD7F8F38D1152F8A81CCF0D941BD0680EB852 DUP5 PUSH1 0x40 MLOAD PUSH1 0x20 ADD PUSH2 0x389 SWAP2 SWAP1 PUSH2 0x1896 JUMP JUMPDEST PUSH1 0x40 MLOAD PUSH1 0x20 DUP2 DUP4 SUB SUB DUP2 MSTORE SWAP1 PUSH1 0x40 MSTORE DUP1 MLOAD SWAP1 PUSH1 0x20 ADD KECCAK256 EQ JUMPDEST DUP1 PUSH2 0x3F1 JUMPI POP PUSH32 0xEC909A09E1B13C18DED9F3BEADBAF9A4FB3E3F1FBD6CD0E0F273DD90B6D789A2 DUP5 PUSH1 0x40 MLOAD PUSH1 0x20 ADD PUSH2 0x3D9 SWAP2 SWAP1 PUSH2 0x1896 JUMP JUMPDEST PUSH1 0x40 MLOAD PUSH1 0x20 DUP2 DUP4 SUB SUB DUP2 MSTORE SWAP1 PUSH1 0x40 MSTORE DUP1 MLOAD SWAP1 PUSH1 0x20 ADD KECCAK256 EQ JUMPDEST PUSH2 0x430 JUMPI PUSH1 0x40 MLOAD PUSH32 0x8C379A000000000000000000000000000000000000000000000000000000000 DUP2 MSTORE PUSH1 0x4 ADD PUSH2 0x427 SWAP1 PUSH2 0x18F6 JUMP JUMPDEST PUSH1 0x40 MLOAD DUP1 SWAP2 SUB SWAP1 REVERT JUMPDEST PUSH32 0x84E4F592E52DC6E339EBB9A3F379F4DCF988A1253042A8BA9F03099551864BF0 DUP5 PUSH1 0x40 MLOAD PUSH1 0x20 ADD PUSH2 0x462 SWAP2 SWAP1 PUSH2 0x1896 JUMP JUMPDEST PUSH1 0x40 MLOAD PUSH1 0x20 DUP2 DUP4 SUB SUB DUP2 MSTORE SWAP1 PUSH1 0x40 MSTORE DUP1 MLOAD SWAP1 PUSH1 0x20 ADD KECCAK256 SUB PUSH2 0x4AB JUMPI PUSH1 0x2 PUSH0 DUP7 DUP2 MSTORE PUSH1 0x20 ADD SWAP1 DUP2 MSTORE PUSH1 0x20 ADD PUSH0 KECCAK256 PUSH1 0x6 ADD PUSH0 DUP2 SLOAD DUP1 SWAP3 SWAP2 SWAP1 PUSH2 0x4A1 SWAP1 PUSH2 0x1941 JUMP JUMPDEST SWAP2 SWAP1 POP SSTORE POP PUSH2 0x59F JUMP JUMPDEST PUSH32 0x267AA6F4694EC65B4167A753966AD7F8F38D1152F8A81CCF0D941BD0680EB852 DUP5 PUSH1 0x40 MLOAD PUSH1 0x20 ADD PUSH2 0x4DD SWAP2 SWAP1 PUSH2 0x1896 JUMP JUMPDEST PUSH1 0x40 MLOAD PUSH1 0x20 DUP2 DUP4 SUB SUB DUP2 MSTORE SWAP1 PUSH1 0x40 MSTORE DUP1 MLOAD SWAP1 PUSH1 0x20 ADD KECCAK256 SUB PUSH2 0x526 JUMPI PUSH1 0x2 PUSH0 DUP7 DUP2 MSTORE PUSH1 0x20 ADD SWAP1 DUP2 MSTORE PUSH1 0x20 ADD PUSH0 KECCAK256 PUSH1 0x5 ADD PUSH0 DUP2 SLOAD DUP1 SWAP3 SWAP2 SWAP1 PUSH2 0x51C SWAP1 PUSH2 0x1941 JUMP JUMPDEST SWAP2 SWAP1 POP SSTORE POP PUSH2 0x59E JUMP JUMPDEST PUSH32 0xEC909A09E1B13C18DED9F3BEADBAF9A4FB3E3F1FBD6CD0E0F273DD90B6D789A2 DUP5 PUSH1 0x40 MLOAD PUSH1 0x20 ADD PUSH2 0x558 SWAP2 SWAP1 PUSH2 0x1896 JUMP JUMPDEST PUSH1 0x40 MLOAD PUSH1 0x20 DUP2 DUP4 SUB SUB DUP2 MSTORE SWAP1 PUSH1 0x40 MSTORE DUP1 MLOAD SWAP1 PUSH1 0x20 ADD KECCAK256 SUB PUSH2 0x59D JUMPI PUSH1 0x2 PUSH0 DUP7 DUP2 MSTORE PUSH1 0x20 ADD SWAP1 DUP2 MSTORE PUSH1 0x20 ADD PUSH0 KECCAK256 PUSH1 0x7 ADD PUSH0 DUP2 SLOAD DUP1 SWAP3 SWAP2 SWAP1 PUSH2 0x597 SWAP1 PUSH2 0x1941 JUMP JUMPDEST SWAP2 SWAP1 POP SSTORE POP JUMPDEST JUMPDEST JUMPDEST PUSH1 0x1 PUSH1 0x2 PUSH0 DUP8 DUP2 MSTORE PUSH1 0x20 ADD SWAP1 DUP2 MSTORE PUSH1 0x20 ADD PUSH0 KECCAK256 PUSH1 0x4 ADD PUSH0 CALLER PUSH20 0xFFFFFFFFFFFFFFFFFFFFFFFFFFFFFFFFFFFFFFFF AND PUSH20 0xFFFFFFFFFFFFFFFFFFFFFFFFFFFFFFFFFFFFFFFF AND DUP2 MSTORE PUSH1 0x20 ADD SWAP1 DUP2 MSTORE PUSH1 0x20 ADD PUSH0 KECCAK256 PUSH0 PUSH2 0x100 EXP DUP2 SLOAD DUP2 PUSH1 0xFF MUL NOT AND SWAP1 DUP4 ISZERO ISZERO MUL OR SWAP1 SSTORE POP PUSH1 0x3 PUSH0 CALLER PUSH20 0xFFFFFFFFFFFFFFFFFFFFFFFFFFFFFFFFFFFFFFFF AND PUSH20 0xFFFFFFFFFFFFFFFFFFFFFFFFFFFFFFFFFFFFFFFF AND DUP2 MSTORE PUSH1 0x20 ADD SWAP1 DUP2 MSTORE PUSH1 0x20 ADD PUSH0 KECCAK256 DUP6 SWAP1 DUP1 PUSH1 0x1 DUP2 SLOAD ADD DUP1 DUP3 SSTORE DUP1 SWAP2 POP POP PUSH1 0x1 SWAP1 SUB SWAP1 PUSH0 MSTORE PUSH1 0x20 PUSH0 KECCAK256 ADD PUSH0 SWAP1 SWAP2 SWAP1 SWAP2 SWAP1 SWAP2 POP SSTORE PUSH0 PUSH1 0x40 MLOAD DUP1 PUSH1 0x60 ADD PUSH1 0x40 MSTORE DUP1 CALLER PUSH20 0xFFFFFFFFFFFFFFFFFFFFFFFFFFFFFFFFFFFFFFFF AND DUP2 MSTORE PUSH1 0x20 ADD DUP7 DUP2 MSTORE PUSH1 0x20 ADD TIMESTAMP DUP2 MSTORE POP SWAP1 POP PUSH1 0x2 PUSH0 DUP8 DUP2 MSTORE PUSH1 0x20 ADD SWAP1 DUP2 MSTORE PUSH1 0x20 ADD PUSH0 KECCAK256 PUSH1 0x9 ADD DUP2 SWAP1 DUP1 PUSH1 0x1 DUP2 SLOAD ADD DUP1 DUP3 SSTORE DUP1 SWAP2 POP POP PUSH1 0x1 SWAP1 SUB SWAP1 PUSH0 MSTORE PUSH1 0x20 PUSH0 KECCAK256 SWAP1 PUSH1 0x3 MUL ADD PUSH0 SWAP1 SWAP2 SWAP1 SWAP2 SWAP1 SWAP2 POP PUSH0 DUP3 ADD MLOAD DUP2 PUSH0 ADD PUSH0 PUSH2 0x100 EXP DUP2 SLOAD DUP2 PUSH20 0xFFFFFFFFFFFFFFFFFFFFFFFFFFFFFFFFFFFFFFFF MUL NOT AND SWAP1 DUP4 PUSH20 0xFFFFFFFFFFFFFFFFFFFFFFFFFFFFFFFFFFFFFFFF AND MUL OR SWAP1 SSTORE POP PUSH1 0x20 DUP3 ADD MLOAD DUP2 PUSH1 0x1 ADD SWAP1 DUP2 PUSH2 0x72F SWAP2 SWAP1 PUSH2 0x1B82 JUMP JUMPDEST POP PUSH1 0x40 DUP3 ADD MLOAD DUP2 PUSH1 0x2 ADD SSTORE POP POP CALLER PUSH20 0xFFFFFFFFFFFFFFFFFFFFFFFFFFFFFFFFFFFFFFFF AND DUP7 PUSH32 0x3AE89EC44D6750209E1164A2659A766E3CFE3476E908A19CB5E928974EF5E4EC DUP8 TIMESTAMP PUSH1 0x40 MLOAD PUSH2 0x785 SWAP3 SWAP2 SWAP1 PUSH2 0x1C51 JUMP JUMPDEST PUSH1 0x40 MLOAD DUP1 SWAP2 SUB SWAP1 LOG3 POP POP POP POP POP POP JUMP JUMPDEST PUSH1 0x60 DUP1 PUSH0 PUSH2 0x7A2 PUSH0 PUSH2 0x1047 JUMP JUMPDEST SWAP1 POP PUSH0 DUP1 PUSH0 PUSH1 0x1 SWAP1 POP JUMPDEST DUP4 DUP2 GT PUSH2 0x804 JUMPI TIMESTAMP PUSH1 0x2 PUSH0 DUP4 DUP2 MSTORE PUSH1 0x20 ADD SWAP1 DUP2 MSTORE PUSH1 0x20 ADD PUSH0 KECCAK256 PUSH1 0x1 ADD SLOAD GT ISZERO PUSH2 0x7E2 JUMPI DUP3 DUP1 PUSH2 0x7DA SWAP1 PUSH2 0x1941 JUMP JUMPDEST SWAP4 POP POP PUSH2 0x7F1 JUMP JUMPDEST DUP2 DUP1 PUSH2 0x7ED SWAP1 PUSH2 0x1941 JUMP JUMPDEST SWAP3 POP POP JUMPDEST DUP1 DUP1 PUSH2 0x7FC SWAP1 PUSH2 0x1941 JUMP JUMPDEST SWAP2 POP POP PUSH2 0x7AC JUMP JUMPDEST POP DUP2 PUSH8 0xFFFFFFFFFFFFFFFF DUP2 GT ISZERO PUSH2 0x81F JUMPI PUSH2 0x81E PUSH2 0x10C3 JUMP JUMPDEST JUMPDEST PUSH1 0x40 MLOAD SWAP1 DUP1 DUP3 MSTORE DUP1 PUSH1 0x20 MUL PUSH1 0x20 ADD DUP3 ADD PUSH1 0x40 MSTORE DUP1 ISZERO PUSH2 0x84D JUMPI DUP2 PUSH1 0x20 ADD PUSH1 0x20 DUP3 MUL DUP1 CALLDATASIZE DUP4 CALLDATACOPY DUP1 DUP3 ADD SWAP2 POP POP SWAP1 POP JUMPDEST POP SWAP5 POP DUP1 PUSH8 0xFFFFFFFFFFFFFFFF DUP2 GT ISZERO PUSH2 0x86A JUMPI PUSH2 0x869 PUSH2 0x10C3 JUMP JUMPDEST JUMPDEST PUSH1 0x40 MLOAD SWAP1 DUP1 DUP3 MSTORE DUP1 PUSH1 0x20 MUL PUSH1 0x20 ADD DUP3 ADD PUSH1 0x40 MSTORE DUP1 ISZERO PUSH2 0x898 JUMPI DUP2 PUSH1 0x20 ADD PUSH1 0x20 DUP3 MUL DUP1 CALLDATASIZE DUP4 CALLDATACOPY DUP1 DUP3 ADD SWAP2 POP POP SWAP1 POP JUMPDEST POP SWAP4 POP PUSH0 DUP1 PUSH0 PUSH1 0x1 SWAP1 POP JUMPDEST DUP6 DUP2 GT PUSH2 0x93B JUMPI TIMESTAMP PUSH1 0x2 PUSH0 DUP4 DUP2 MSTORE PUSH1 0x20 ADD SWAP1 DUP2 MSTORE PUSH1 0x20 ADD PUSH0 KECCAK256 PUSH1 0x1 ADD SLOAD GT ISZERO PUSH2 0x8F9 JUMPI DUP1 DUP9 DUP5 DUP2 MLOAD DUP2 LT PUSH2 0x8DA JUMPI PUSH2 0x8D9 PUSH2 0x1C7F JUMP JUMPDEST JUMPDEST PUSH1 0x20 MUL PUSH1 0x20 ADD ADD DUP2 DUP2 MSTORE POP POP DUP3 DUP1 PUSH2 0x8F1 SWAP1 PUSH2 0x1941 JUMP JUMPDEST SWAP4 POP POP PUSH2 0x928 JUMP JUMPDEST DUP1 DUP8 DUP4 DUP2 MLOAD DUP2 LT PUSH2 0x90D JUMPI PUSH2 0x90C PUSH2 0x1C7F JUMP JUMPDEST JUMPDEST PUSH1 0x20 MUL PUSH1 0x20 ADD ADD DUP2 DUP2 MSTORE POP POP DUP2 DUP1 PUSH2 0x924 SWAP1 PUSH2 0x1941 JUMP JUMPDEST SWAP3 POP POP JUMPDEST DUP1 DUP1 PUSH2 0x933 SWAP1 PUSH2 0x1941 JUMP JUMPDEST SWAP2 POP POP PUSH2 0x8A3 JUMP JUMPDEST POP POP POP POP POP POP SWAP1 SWAP2 JUMP JUMPDEST PUSH0 DUP1 PUSH0 ADD SLOAD SWAP1 POP DUP2 JUMP JUMPDEST PUSH0 PUSH1 0x2 PUSH0 DUP4 DUP2 MSTORE PUSH1 0x20 ADD SWAP1 DUP2 MSTORE PUSH1 0x20 ADD PUSH0 KECCAK256 PUSH1 0x1 ADD SLOAD TIMESTAMP LT SWAP1 POP SWAP2 SWAP1 POP JUMP JUMPDEST PUSH1 0x60 PUSH0 PUSH1 0x60 DUP1 PUSH0 DUP1 PUSH0 DUP8 PUSH1 0x2 PUSH0 DUP3 DUP2 MSTORE PUSH1 0x20 ADD SWAP1 DUP2 MSTORE PUSH1 0x20 ADD PUSH0 KECCAK256 PUSH1 0x8 ADD PUSH0 SWAP1 SLOAD SWAP1 PUSH2 0x100 EXP SWAP1 DIV PUSH1 0xFF AND PUSH2 0x9D8 JUMPI PUSH1 0x40 MLOAD PUSH32 0x8C379A000000000000000000000000000000000000000000000000000000000 DUP2 MSTORE PUSH1 0x4 ADD PUSH2 0x9CF SWAP1 PUSH2 0x176E JUMP JUMPDEST PUSH1 0x40 MLOAD DUP1 SWAP2 SUB SWAP1 REVERT JUMPDEST PUSH0 PUSH1 0x2 PUSH0 DUP12 DUP2 MSTORE PUSH1 0x20 ADD SWAP1 DUP2 MSTORE PUSH1 0x20 ADD PUSH0 KECCAK256 SWAP1 POP DUP1 PUSH0 ADD DUP2 PUSH1 0x1 ADD SLOAD DUP3 PUSH1 0x2 ADD DUP4 PUSH1 0x3 ADD DUP5 PUSH1 0x5 ADD SLOAD DUP6 PUSH1 0x6 ADD SLOAD DUP7 PUSH1 0x7 ADD SLOAD DUP7 DUP1 SLOAD PUSH2 0xA17 SWAP1 PUSH2 0x19B5 JUMP JUMPDEST DUP1 PUSH1 0x1F ADD PUSH1 0x20 DUP1 SWAP2 DIV MUL PUSH1 0x20 ADD PUSH1 0x40 MLOAD SWAP1 DUP2 ADD PUSH1 0x40 MSTORE DUP1 SWAP3 SWAP2 SWAP1 DUP2 DUP2 MSTORE PUSH1 0x20 ADD DUP3 DUP1 SLOAD PUSH2 0xA43 SWAP1 PUSH2 0x19B5 JUMP JUMPDEST DUP1 ISZERO PUSH2 0xA8E JUMPI DUP1 PUSH1 0x1F LT PUSH2 0xA65 JUMPI PUSH2 0x100 DUP1 DUP4 SLOAD DIV MUL DUP4 MSTORE SWAP2 PUSH1 0x20 ADD SWAP2 PUSH2 0xA8E JUMP JUMPDEST DUP3 ADD SWAP2 SWAP1 PUSH0 MSTORE PUSH1 0x20 PUSH0 KECCAK256 SWAP1 JUMPDEST DUP2 SLOAD DUP2 MSTORE SWAP1 PUSH1 0x1 ADD SWAP1 PUSH1 0x20 ADD DUP1 DUP4 GT PUSH2 0xA71 JUMPI DUP3 SWAP1 SUB PUSH1 0x1F AND DUP3 ADD SWAP2 JUMPDEST POP POP POP POP POP SWAP7 POP DUP5 DUP1 SLOAD PUSH2 0xAA1 SWAP1 PUSH2 0x19B5 JUMP JUMPDEST DUP1 PUSH1 0x1F ADD PUSH1 0x20 DUP1 SWAP2 DIV MUL PUSH1 0x20 ADD PUSH1 0x40 MLOAD SWAP1 DUP2 ADD PUSH1 0x40 MSTORE DUP1 SWAP3 SWAP2 SWAP1 DUP2 DUP2 MSTORE PUSH1 0x20 ADD DUP3 DUP1 SLOAD PUSH2 0xACD SWAP1 PUSH2 0x19B5 JUMP JUMPDEST DUP1 ISZERO PUSH2 0xB18 JUMPI DUP1 PUSH1 0x1F LT PUSH2 0xAEF JUMPI PUSH2 0x100 DUP1 DUP4 SLOAD DIV MUL DUP4 MSTORE SWAP2 PUSH1 0x20 ADD SWAP2 PUSH2 0xB18 JUMP JUMPDEST DUP3 ADD SWAP2 SWAP1 PUSH0 MSTORE PUSH1 0x20 PUSH0 KECCAK256 SWAP1 JUMPDEST DUP2 SLOAD DUP2 MSTORE SWAP1 PUSH1 0x1 ADD SWAP1 PUSH1 0x20 ADD DUP1 DUP4 GT PUSH2 0xAFB JUMPI DUP3 SWAP1 SUB PUSH1 0x1F AND DUP3 ADD SWAP2 JUMPDEST POP POP POP POP POP SWAP5 POP DUP4 DUP1 SLOAD PUSH2 0xB2B SWAP1 PUSH2 0x19B5 JUMP JUMPDEST DUP1 PUSH1 0x1F ADD PUSH1 0x20 DUP1 SWAP2 DIV MUL PUSH1 0x20 ADD PUSH1 0x40 MLOAD SWAP1 DUP2 ADD PUSH1 0x40 MSTORE DUP1 SWAP3 SWAP2 SWAP1 DUP2 DUP2 MSTORE PUSH1 0x20 ADD DUP3 DUP1 SLOAD PUSH2 0xB57 SWAP1 PUSH2 0x19B5 JUMP JUMPDEST DUP1 ISZERO PUSH2 0xBA2 JUMPI DUP1 PUSH1 0x1F LT PUSH2 0xB79 JUMPI PUSH2 0x100 DUP1 DUP4 SLOAD DIV MUL DUP4 MSTORE SWAP2 PUSH1 0x20 ADD SWAP2 PUSH2 0xBA2 JUMP JUMPDEST DUP3 ADD SWAP2 SWAP1 PUSH0 MSTORE PUSH1 0x20 PUSH0 KECCAK256 SWAP1 JUMPDEST DUP2 SLOAD DUP2 MSTORE SWAP1 PUSH1 0x1 ADD SWAP1 PUSH1 0x20 ADD DUP1 DUP4 GT PUSH2 0xB85 JUMPI DUP3 SWAP1 SUB PUSH1 0x1F AND DUP3 ADD SWAP2 JUMPDEST POP POP POP POP POP SWAP4 POP SWAP9 POP SWAP9 POP SWAP9 POP SWAP9 POP SWAP9 POP SWAP9 POP SWAP9 POP POP POP SWAP2 SWAP4 SWAP6 SWAP8 SWAP1 SWAP3 SWAP5 SWAP7 POP JUMP JUMPDEST PUSH1 0x1 PUSH0 SWAP1 SLOAD SWAP1 PUSH2 0x100 EXP SWAP1 DIV PUSH20 0xFFFFFFFFFFFFFFFFFFFFFFFFFFFFFFFFFFFFFFFF AND PUSH20 0xFFFFFFFFFFFFFFFFFFFFFFFFFFFFFFFFFFFFFFFF AND CALLER PUSH20 0xFFFFFFFFFFFFFFFFFFFFFFFFFFFFFFFFFFFFFFFF AND EQ PUSH2 0xC53 JUMPI PUSH1 0x40 MLOAD PUSH32 0x8C379A000000000000000000000000000000000000000000000000000000000 DUP2 MSTORE PUSH1 0x4 ADD PUSH2 0xC4A SWAP1 PUSH2 0x1D1C JUMP JUMPDEST PUSH1 0x40 MLOAD DUP1 SWAP2 SUB SWAP1 REVERT JUMPDEST PUSH0 DUP4 GT PUSH2 0xC95 JUMPI PUSH1 0x40 MLOAD PUSH32 0x8C379A000000000000000000000000000000000000000000000000000000000 DUP2 MSTORE PUSH1 0x4 ADD PUSH2 0xC8C SWAP1 PUSH2 0x1D84 JUMP JUMPDEST PUSH1 0x40 MLOAD DUP1 SWAP2 SUB SWAP1 REVERT JUMPDEST PUSH1 0x3 DUP5 MLOAD GT PUSH2 0xCD9 JUMPI PUSH1 0x40 MLOAD PUSH32 0x8C379A000000000000000000000000000000000000000000000000000000000 DUP2 MSTORE PUSH1 0x4 ADD PUSH2 0xCD0 SWAP1 PUSH2 0x1DEC JUMP JUMPDEST PUSH1 0x40 MLOAD DUP1 SWAP2 SUB SWAP1 REVERT JUMPDEST PUSH1 0x3 DUP3 MLOAD GT PUSH2 0xD1D JUMPI PUSH1 0x40 MLOAD PUSH32 0x8C379A000000000000000000000000000000000000000000000000000000000 DUP2 MSTORE PUSH1 0x4 ADD PUSH2 0xD14 SWAP1 PUSH2 0x1E7A JUMP JUMPDEST PUSH1 0x40 MLOAD DUP1 SWAP2 SUB SWAP1 REVERT JUMPDEST PUSH1 0x3 DUP2 MLOAD GT PUSH2 0xD61 JUMPI PUSH1 0x40 MLOAD PUSH32 0x8C379A000000000000000000000000000000000000000000000000000000000 DUP2 MSTORE PUSH1 0x4 ADD PUSH2 0xD58 SWAP1 PUSH2 0x1F08 JUMP JUMPDEST PUSH1 0x40 MLOAD DUP1 SWAP2 SUB SWAP1 REVERT JUMPDEST PUSH2 0xD6A PUSH0 PUSH2 0x1053 JUMP JUMPDEST PUSH0 PUSH2 0xD74 PUSH0 PUSH2 0x1047 JUMP JUMPDEST SWAP1 POP DUP5 PUSH1 0x2 PUSH0 DUP4 DUP2 MSTORE PUSH1 0x20 ADD SWAP1 DUP2 MSTORE PUSH1 0x20 ADD PUSH0 KECCAK256 PUSH0 ADD SWAP1 DUP2 PUSH2 0xD96 SWAP2 SWAP1 PUSH2 0x1B82 JUMP JUMPDEST POP DUP2 PUSH1 0x2 PUSH0 DUP4 DUP2 MSTORE PUSH1 0x20 ADD SWAP1 DUP2 MSTORE PUSH1 0x20 ADD PUSH0 KECCAK256 PUSH1 0x3 ADD SWAP1 DUP2 PUSH2 0xDB8 SWAP2 SWAP1 PUSH2 0x1B82 JUMP JUMPDEST POP DUP4 TIMESTAMP PUSH2 0xDC5 SWAP2 SWAP1 PUSH2 0x1F26 JUMP JUMPDEST PUSH1 0x2 PUSH0 DUP4 DUP2 MSTORE PUSH1 0x20 ADD SWAP1 DUP2 MSTORE PUSH1 0x20 ADD PUSH0 KECCAK256 PUSH1 0x1 ADD DUP2 SWAP1 SSTORE POP DUP3 PUSH1 0x2 PUSH0 DUP4 DUP2 MSTORE PUSH1 0x20 ADD SWAP1 DUP2 MSTORE PUSH1 0x20 ADD PUSH0 KECCAK256 PUSH1 0x2 ADD SWAP1 DUP2 PUSH2 0xDFE SWAP2 SWAP1 PUSH2 0x1B82 JUMP JUMPDEST POP PUSH0 PUSH1 0x2 PUSH0 DUP4 DUP2 MSTORE PUSH1 0x20 ADD SWAP1 DUP2 MSTORE PUSH1 0x20 ADD PUSH0 KECCAK256 PUSH1 0x5 ADD DUP2 SWAP1 SSTORE POP PUSH0 PUSH1 0x2 PUSH0 DUP4 DUP2 MSTORE PUSH1 0x20 ADD SWAP1 DUP2 MSTORE PUSH1 0x20 ADD PUSH0 KECCAK256 PUSH1 0x6 ADD DUP2 SWAP1 SSTORE POP PUSH0 PUSH1 0x2 PUSH0 DUP4 DUP2 MSTORE PUSH1 0x20 ADD SWAP1 DUP2 MSTORE PUSH1 0x20 ADD PUSH0 KECCAK256 PUSH1 0x7 ADD DUP2 SWAP1 SSTORE POP PUSH1 0x1 PUSH1 0x2 PUSH0 DUP4 DUP2 MSTORE PUSH1 0x20 ADD SWAP1 DUP2 MSTORE PUSH1 0x20 ADD PUSH0 KECCAK256 PUSH1 0x8 ADD PUSH0 PUSH2 0x100 EXP DUP2 SLOAD DUP2 PUSH1 0xFF MUL NOT AND SWAP1 DUP4 ISZERO ISZERO MUL OR SWAP1 SSTORE POP DUP1 PUSH32 0xC12ED8D302FF006DB51C496D9DC9F900FFC6F4D54F461EB0CD812B0A08B80804 DUP7 DUP7 TIMESTAMP PUSH2 0xEA5 SWAP2 SWAP1 PUSH2 0x1F26 JUMP JUMPDEST TIMESTAMP PUSH1 0x40 MLOAD PUSH2 0xEB5 SWAP4 SWAP3 SWAP2 SWAP1 PUSH2 0x1F59 JUMP JUMPDEST PUSH1 0x40 MLOAD DUP1 SWAP2 SUB SWAP1 LOG2 POP POP POP POP POP JUMP JUMPDEST PUSH1 0x1 PUSH0 SWAP1 SLOAD SWAP1 PUSH2 0x100 EXP SWAP1 DIV PUSH20 0xFFFFFFFFFFFFFFFFFFFFFFFFFFFFFFFFFFFFFFFF AND DUP2 JUMP JUMPDEST PUSH1 0x60 PUSH1 0x2 PUSH0 DUP4 DUP2 MSTORE PUSH1 0x20 ADD SWAP1 DUP2 MSTORE PUSH1 0x20 ADD PUSH0 KECCAK256 PUSH1 0x9 ADD DUP1 SLOAD DUP1 PUSH1 0x20 MUL PUSH1 0x20 ADD PUSH1 0x40 MLOAD SWAP1 DUP2 ADD PUSH1 0x40 MSTORE DUP1 SWAP3 SWAP2 SWAP1 DUP2 DUP2 MSTORE PUSH1 0x20 ADD PUSH0 SWAP1 JUMPDEST DUP3 DUP3 LT ISZERO PUSH2 0x103C JUMPI DUP4 DUP3 SWAP1 PUSH0 MSTORE PUSH1 0x20 PUSH0 KECCAK256 SWAP1 PUSH1 0x3 MUL ADD PUSH1 0x40 MLOAD DUP1 PUSH1 0x60 ADD PUSH1 0x40 MSTORE SWAP1 DUP2 PUSH0 DUP3 ADD PUSH0 SWAP1 SLOAD SWAP1 PUSH2 0x100 EXP SWAP1 DIV PUSH20 0xFFFFFFFFFFFFFFFFFFFFFFFFFFFFFFFFFFFFFFFF AND PUSH20 0xFFFFFFFFFFFFFFFFFFFFFFFFFFFFFFFFFFFFFFFF AND PUSH20 0xFFFFFFFFFFFFFFFFFFFFFFFFFFFFFFFFFFFFFFFF AND DUP2 MSTORE PUSH1 0x20 ADD PUSH1 0x1 DUP3 ADD DUP1 SLOAD PUSH2 0xFA3 SWAP1 PUSH2 0x19B5 JUMP JUMPDEST DUP1 PUSH1 0x1F ADD PUSH1 0x20 DUP1 SWAP2 DIV MUL PUSH1 0x20 ADD PUSH1 0x40 MLOAD SWAP1 DUP2 ADD PUSH1 0x40 MSTORE DUP1 SWAP3 SWAP2 SWAP1 DUP2 DUP2 MSTORE PUSH1 0x20 ADD DUP3 DUP1 SLOAD PUSH2 0xFCF SWAP1 PUSH2 0x19B5 JUMP JUMPDEST DUP1 ISZERO PUSH2 0x101A JUMPI DUP1 PUSH1 0x1F LT PUSH2 0xFF1 JUMPI PUSH2 0x100 DUP1 DUP4 SLOAD DIV MUL DUP4 MSTORE SWAP2 PUSH1 0x20 ADD SWAP2 PUSH2 0x101A JUMP JUMPDEST DUP3 ADD SWAP2 SWAP1 PUSH0 MSTORE PUSH1 0x20 PUSH0 KECCAK256 SWAP1 JUMPDEST DUP2 SLOAD DUP2 MSTORE SWAP1 PUSH1 0x1 ADD SWAP1 PUSH1 0x20 ADD DUP1 DUP4 GT PUSH2 0xFFD JUMPI DUP3 SWAP1 SUB PUSH1 0x1F AND DUP3 ADD SWAP2 JUMPDEST POP POP POP POP POP DUP2 MSTORE PUSH1 0x20 ADD PUSH1 0x2 DUP3 ADD SLOAD DUP2 MSTORE POP POP DUP2 MSTORE PUSH1 0x20 ADD SWAP1 PUSH1 0x1 ADD SWAP1 PUSH2 0xF1E JUMP JUMPDEST POP POP POP POP SWAP1 POP SWAP2 SWAP1 POP JUMP JUMPDEST PUSH0 DUP2 PUSH0 ADD SLOAD SWAP1 POP SWAP2 SWAP1 POP JUMP JUMPDEST PUSH1 0x1 DUP2 PUSH0 ADD PUSH0 DUP3 DUP3 SLOAD ADD SWAP3 POP POP DUP2 SWAP1 SSTORE POP POP JUMP JUMPDEST PUSH0 PUSH1 0x40 MLOAD SWAP1 POP SWAP1 JUMP JUMPDEST PUSH0 DUP1 REVERT JUMPDEST PUSH0 DUP1 REVERT JUMPDEST PUSH0 DUP2 SWAP1 POP SWAP2 SWAP1 POP JUMP JUMPDEST PUSH2 0x108A DUP2 PUSH2 0x1078 JUMP JUMPDEST DUP2 EQ PUSH2 0x1094 JUMPI PUSH0 DUP1 REVERT JUMPDEST POP JUMP JUMPDEST PUSH0 DUP2 CALLDATALOAD SWAP1 POP PUSH2 0x10A5 DUP2 PUSH2 0x1081 JUMP JUMPDEST SWAP3 SWAP2 POP POP JUMP JUMPDEST PUSH0 DUP1 REVERT JUMPDEST PUSH0 DUP1 REVERT JUMPDEST PUSH0 PUSH1 0x1F NOT PUSH1 0x1F DUP4 ADD AND SWAP1 POP SWAP2 SWAP1 POP JUMP JUMPDEST PUSH32 0x4E487B7100000000000000000000000000000000000000000000000000000000 PUSH0 MSTORE PUSH1 0x41 PUSH1 0x4 MSTORE PUSH1 0x24 PUSH0 REVERT JUMPDEST PUSH2 0x10F9 DUP3 PUSH2 0x10B3 JUMP JUMPDEST DUP2 ADD DUP2 DUP2 LT PUSH8 0xFFFFFFFFFFFFFFFF DUP3 GT OR ISZERO PUSH2 0x1118 JUMPI PUSH2 0x1117 PUSH2 0x10C3 JUMP JUMPDEST JUMPDEST DUP1 PUSH1 0x40 MSTORE POP POP POP JUMP JUMPDEST PUSH0 PUSH2 0x112A PUSH2 0x1067 JUMP JUMPDEST SWAP1 POP PUSH2 0x1136 DUP3 DUP3 PUSH2 0x10F0 JUMP JUMPDEST SWAP2 SWAP1 POP JUMP JUMPDEST PUSH0 PUSH8 0xFFFFFFFFFFFFFFFF DUP3 GT ISZERO PUSH2 0x1155 JUMPI PUSH2 0x1154 PUSH2 0x10C3 JUMP JUMPDEST JUMPDEST PUSH2 0x115E DUP3 PUSH2 0x10B3 JUMP JUMPDEST SWAP1 POP PUSH1 0x20 DUP2 ADD SWAP1 POP SWAP2 SWAP1 POP JUMP JUMPDEST DUP3 DUP2 DUP4 CALLDATACOPY PUSH0 DUP4 DUP4 ADD MSTORE POP POP POP JUMP JUMPDEST PUSH0 PUSH2 0x118B PUSH2 0x1186 DUP5 PUSH2 0x113B JUMP JUMPDEST PUSH2 0x1121 JUMP JUMPDEST SWAP1 POP DUP3 DUP2 MSTORE PUSH1 0x20 DUP2 ADD DUP5 DUP5 DUP5 ADD GT ISZERO PUSH2 0x11A7 JUMPI PUSH2 0x11A6 PUSH2 0x10AF JUMP JUMPDEST JUMPDEST PUSH2 0x11B2 DUP5 DUP3 DUP6 PUSH2 0x116B JUMP JUMPDEST POP SWAP4 SWAP3 POP POP POP JUMP JUMPDEST PUSH0 DUP3 PUSH1 0x1F DUP4 ADD SLT PUSH2 0x11CE JUMPI PUSH2 0x11CD PUSH2 0x10AB JUMP JUMPDEST JUMPDEST DUP2 CALLDATALOAD PUSH2 0x11DE DUP5 DUP3 PUSH1 0x20 DUP7 ADD PUSH2 0x1179 JUMP JUMPDEST SWAP2 POP POP SWAP3 SWAP2 POP POP JUMP JUMPDEST PUSH0 DUP1 PUSH1 0x40 DUP4 DUP6 SUB SLT ISZERO PUSH2 0x11FD JUMPI PUSH2 0x11FC PUSH2 0x1070 JUMP JUMPDEST JUMPDEST PUSH0 PUSH2 0x120A DUP6 DUP3 DUP7 ADD PUSH2 0x1097 JUMP JUMPDEST SWAP3 POP POP PUSH1 0x20 DUP4 ADD CALLDATALOAD PUSH8 0xFFFFFFFFFFFFFFFF DUP2 GT ISZERO PUSH2 0x122B JUMPI PUSH2 0x122A PUSH2 0x1074 JUMP JUMPDEST JUMPDEST PUSH2 0x1237 DUP6 DUP3 DUP7 ADD PUSH2 0x11BA JUMP JUMPDEST SWAP2 POP POP SWAP3 POP SWAP3 SWAP1 POP JUMP JUMPDEST PUSH0 DUP2 MLOAD SWAP1 POP SWAP2 SWAP1 POP JUMP JUMPDEST PUSH0 DUP3 DUP3 MSTORE PUSH1 0x20 DUP3 ADD SWAP1 POP SWAP3 SWAP2 POP POP JUMP JUMPDEST PUSH0 DUP2 SWAP1 POP PUSH1 0x20 DUP3 ADD SWAP1 POP SWAP2 SWAP1 POP JUMP JUMPDEST PUSH2 0x1273 DUP2 PUSH2 0x1078 JUMP JUMPDEST DUP3 MSTORE POP POP JUMP JUMPDEST PUSH0 PUSH2 0x1284 DUP4 DUP4 PUSH2 0x126A JUMP JUMPDEST PUSH1 0x20 DUP4 ADD SWAP1 POP SWAP3 SWAP2 POP POP JUMP JUMPDEST PUSH0 PUSH1 0x20 DUP3 ADD SWAP1 POP SWAP2 SWAP1 POP JUMP JUMPDEST PUSH0 PUSH2 0x12A6 DUP3 PUSH2 0x1241 JUMP JUMPDEST PUSH2 0x12B0 DUP2 DUP6 PUSH2 0x124B JUMP JUMPDEST SWAP4 POP PUSH2 0x12BB DUP4 PUSH2 0x125B JUMP JUMPDEST DUP1 PUSH0 JUMPDEST DUP4 DUP2 LT ISZERO PUSH2 0x12EB JUMPI DUP2 MLOAD PUSH2 0x12D2 DUP9 DUP3 PUSH2 0x1279 JUMP JUMPDEST SWAP8 POP PUSH2 0x12DD DUP4 PUSH2 0x1290 JUMP JUMPDEST SWAP3 POP POP PUSH1 0x1 DUP2 ADD SWAP1 POP PUSH2 0x12BE JUMP JUMPDEST POP DUP6 SWAP4 POP POP POP POP SWAP3 SWAP2 POP POP JUMP JUMPDEST PUSH0 PUSH1 0x40 DUP3 ADD SWAP1 POP DUP2 DUP2 SUB PUSH0 DUP4 ADD MSTORE PUSH2 0x1310 DUP2 DUP6 PUSH2 0x129C JUMP JUMPDEST SWAP1 POP DUP2 DUP2 SUB PUSH1 0x20 DUP4 ADD MSTORE PUSH2 0x1324 DUP2 DUP5 PUSH2 0x129C JUMP JUMPDEST SWAP1 POP SWAP4 SWAP3 POP POP POP JUMP JUMPDEST PUSH2 0x1336 DUP2 PUSH2 0x1078 JUMP JUMPDEST DUP3 MSTORE POP POP JUMP JUMPDEST PUSH0 PUSH1 0x20 DUP3 ADD SWAP1 POP PUSH2 0x134F PUSH0 DUP4 ADD DUP5 PUSH2 0x132D JUMP JUMPDEST SWAP3 SWAP2 POP POP JUMP JUMPDEST PUSH0 PUSH1 0x20 DUP3 DUP5 SUB SLT ISZERO PUSH2 0x136A JUMPI PUSH2 0x1369 PUSH2 0x1070 JUMP JUMPDEST JUMPDEST PUSH0 PUSH2 0x1377 DUP5 DUP3 DUP6 ADD PUSH2 0x1097 JUMP JUMPDEST SWAP2 POP POP SWAP3 SWAP2 POP POP JUMP JUMPDEST PUSH0 DUP2 ISZERO ISZERO SWAP1 POP SWAP2 SWAP1 POP JUMP JUMPDEST PUSH2 0x1394 DUP2 PUSH2 0x1380 JUMP JUMPDEST DUP3 MSTORE POP POP JUMP JUMPDEST PUSH0 PUSH1 0x20 DUP3 ADD SWAP1 POP PUSH2 0x13AD PUSH0 DUP4 ADD DUP5 PUSH2 0x138B JUMP JUMPDEST SWAP3 SWAP2 POP POP JUMP JUMPDEST PUSH0 DUP2 MLOAD SWAP1 POP SWAP2 SWAP1 POP JUMP JUMPDEST PUSH0 DUP3 DUP3 MSTORE PUSH1 0x20 DUP3 ADD SWAP1 POP SWAP3 SWAP2 POP POP JUMP JUMPDEST DUP3 DUP2 DUP4 MCOPY PUSH0 DUP4 DUP4 ADD MSTORE POP POP POP JUMP JUMPDEST PUSH0 PUSH2 0x13E5 DUP3 PUSH2 0x13B3 JUMP JUMPDEST PUSH2 0x13EF DUP2 DUP6 PUSH2 0x13BD JUMP JUMPDEST SWAP4 POP PUSH2 0x13FF DUP2 DUP6 PUSH1 0x20 DUP7 ADD PUSH2 0x13CD JUMP JUMPDEST PUSH2 0x1408 DUP2 PUSH2 0x10B3 JUMP JUMPDEST DUP5 ADD SWAP2 POP POP SWAP3 SWAP2 POP POP JUMP JUMPDEST PUSH0 PUSH1 0xE0 DUP3 ADD SWAP1 POP DUP2 DUP2 SUB PUSH0 DUP4 ADD MSTORE PUSH2 0x142B DUP2 DUP11 PUSH2 0x13DB JUMP JUMPDEST SWAP1 POP PUSH2 0x143A PUSH1 0x20 DUP4 ADD DUP10 PUSH2 0x132D JUMP JUMPDEST DUP2 DUP2 SUB PUSH1 0x40 DUP4 ADD MSTORE PUSH2 0x144C DUP2 DUP9 PUSH2 0x13DB JUMP JUMPDEST SWAP1 POP DUP2 DUP2 SUB PUSH1 0x60 DUP4 ADD MSTORE PUSH2 0x1460 DUP2 DUP8 PUSH2 0x13DB JUMP JUMPDEST SWAP1 POP PUSH2 0x146F PUSH1 0x80 DUP4 ADD DUP7 PUSH2 0x132D JUMP JUMPDEST PUSH2 0x147C PUSH1 0xA0 DUP4 ADD DUP6 PUSH2 0x132D JUMP JUMPDEST PUSH2 0x1489 PUSH1 0xC0 DUP4 ADD DUP5 PUSH2 0x132D JUMP JUMPDEST SWAP9 SWAP8 POP POP POP POP POP POP POP POP JUMP JUMPDEST PUSH0 DUP1 PUSH0 DUP1 PUSH1 0x80 DUP6 DUP8 SUB SLT ISZERO PUSH2 0x14AD JUMPI PUSH2 0x14AC PUSH2 0x1070 JUMP JUMPDEST JUMPDEST PUSH0 DUP6 ADD CALLDATALOAD PUSH8 0xFFFFFFFFFFFFFFFF DUP2 GT ISZERO PUSH2 0x14CA JUMPI PUSH2 0x14C9 PUSH2 0x1074 JUMP JUMPDEST JUMPDEST PUSH2 0x14D6 DUP8 DUP3 DUP9 ADD PUSH2 0x11BA JUMP JUMPDEST SWAP5 POP POP PUSH1 0x20 PUSH2 0x14E7 DUP8 DUP3 DUP9 ADD PUSH2 0x1097 JUMP JUMPDEST SWAP4 POP POP PUSH1 0x40 DUP6 ADD CALLDATALOAD PUSH8 0xFFFFFFFFFFFFFFFF DUP2 GT ISZERO PUSH2 0x1508 JUMPI PUSH2 0x1507 PUSH2 0x1074 JUMP JUMPDEST JUMPDEST PUSH2 0x1514 DUP8 DUP3 DUP9 ADD PUSH2 0x11BA JUMP JUMPDEST SWAP3 POP POP PUSH1 0x60 DUP6 ADD CALLDATALOAD PUSH8 0xFFFFFFFFFFFFFFFF DUP2 GT ISZERO PUSH2 0x1535 JUMPI PUSH2 0x1534 PUSH2 0x1074 JUMP JUMPDEST JUMPDEST PUSH2 0x1541 DUP8 DUP3 DUP9 ADD PUSH2 0x11BA JUMP JUMPDEST SWAP2 POP POP SWAP3 SWAP6 SWAP2 SWAP5 POP SWAP3 POP JUMP JUMPDEST PUSH0 PUSH20 0xFFFFFFFFFFFFFFFFFFFFFFFFFFFFFFFFFFFFFFFF DUP3 AND SWAP1 POP SWAP2 SWAP1 POP JUMP JUMPDEST PUSH0 PUSH2 0x1576 DUP3 PUSH2 0x154D JUMP JUMPDEST SWAP1 POP SWAP2 SWAP1 POP JUMP JUMPDEST PUSH2 0x1586 DUP2 PUSH2 0x156C JUMP JUMPDEST DUP3 MSTORE POP POP JUMP JUMPDEST PUSH0 PUSH1 0x20 DUP3 ADD SWAP1 POP PUSH2 0x159F PUSH0 DUP4 ADD DUP5 PUSH2 0x157D JUMP JUMPDEST SWAP3 SWAP2 POP POP JUMP JUMPDEST PUSH0 DUP2 MLOAD SWAP1 POP SWAP2 SWAP1 POP JUMP JUMPDEST PUSH0 DUP3 DUP3 MSTORE PUSH1 0x20 DUP3 ADD SWAP1 POP SWAP3 SWAP2 POP POP JUMP JUMPDEST PUSH0 DUP2 SWAP1 POP PUSH1 0x20 DUP3 ADD SWAP1 POP SWAP2 SWAP1 POP JUMP JUMPDEST PUSH2 0x15D7 DUP2 PUSH2 0x156C JUMP JUMPDEST DUP3 MSTORE POP POP JUMP JUMPDEST PUSH0 DUP3 DUP3 MSTORE PUSH1 0x20 DUP3 ADD SWAP1 POP SWAP3 SWAP2 POP POP JUMP JUMPDEST PUSH0 PUSH2 0x15F7 DUP3 PUSH2 0x13B3 JUMP JUMPDEST PUSH2 0x1601 DUP2 DUP6 PUSH2 0x15DD JUMP JUMPDEST SWAP4 POP PUSH2 0x1611 DUP2 DUP6 PUSH1 0x20 DUP7 ADD PUSH2 0x13CD JUMP JUMPDEST PUSH2 0x161A DUP2 PUSH2 0x10B3 JUMP JUMPDEST DUP5 ADD SWAP2 POP POP SWAP3 SWAP2 POP POP JUMP JUMPDEST PUSH0 PUSH1 0x60 DUP4 ADD PUSH0 DUP4 ADD MLOAD PUSH2 0x163A PUSH0 DUP7 ADD DUP3 PUSH2 0x15CE JUMP JUMPDEST POP PUSH1 0x20 DUP4 ADD MLOAD DUP5 DUP3 SUB PUSH1 0x20 DUP7 ADD MSTORE PUSH2 0x1652 DUP3 DUP3 PUSH2 0x15ED JUMP JUMPDEST SWAP2 POP POP PUSH1 0x40 DUP4 ADD MLOAD PUSH2 0x1667 PUSH1 0x40 DUP7 ADD DUP3 PUSH2 0x126A JUMP JUMPDEST POP DUP1 SWAP2 POP POP SWAP3 SWAP2 POP POP JUMP JUMPDEST PUSH0 PUSH2 0x167D DUP4 DUP4 PUSH2 0x1625 JUMP JUMPDEST SWAP1 POP SWAP3 SWAP2 POP POP JUMP JUMPDEST PUSH0 PUSH1 0x20 DUP3 ADD SWAP1 POP SWAP2 SWAP1 POP JUMP JUMPDEST PUSH0 PUSH2 0x169B DUP3 PUSH2 0x15A5 JUMP JUMPDEST PUSH2 0x16A5 DUP2 DUP6 PUSH2 0x15AF JUMP JUMPDEST SWAP4 POP DUP4 PUSH1 0x20 DUP3 MUL DUP6 ADD PUSH2 0x16B7 DUP6 PUSH2 0x15BF JUMP JUMPDEST DUP1 PUSH0 JUMPDEST DUP6 DUP2 LT ISZERO PUSH2 0x16F2 JUMPI DUP5 DUP5 SUB DUP10 MSTORE DUP2 MLOAD PUSH2 0x16D3 DUP6 DUP3 PUSH2 0x1672 JUMP JUMPDEST SWAP5 POP PUSH2 0x16DE DUP4 PUSH2 0x1685 JUMP JUMPDEST SWAP3 POP PUSH1 0x20 DUP11 ADD SWAP10 POP POP PUSH1 0x1 DUP2 ADD SWAP1 POP PUSH2 0x16BA JUMP JUMPDEST POP DUP3 SWAP8 POP DUP8 SWAP6 POP POP POP POP POP POP SWAP3 SWAP2 POP POP JUMP JUMPDEST PUSH0 PUSH1 0x20 DUP3 ADD SWAP1 POP DUP2 DUP2 SUB PUSH0 DUP4 ADD MSTORE PUSH2 0x171C DUP2 DUP5 PUSH2 0x1691 JUMP JUMPDEST SWAP1 POP SWAP3 SWAP2 POP POP JUMP JUMPDEST PUSH32 0x506F6C6C696E6720646F7365206E6F7420657869737400000000000000000000 PUSH0 DUP3 ADD MSTORE POP JUMP JUMPDEST PUSH0 PUSH2 0x1758 PUSH1 0x16 DUP4 PUSH2 0x13BD JUMP JUMPDEST SWAP2 POP PUSH2 0x1763 DUP3 PUSH2 0x1724 JUMP JUMPDEST PUSH1 0x20 DUP3 ADD SWAP1 POP SWAP2 SWAP1 POP JUMP JUMPDEST PUSH0 PUSH1 0x20 DUP3 ADD SWAP1 POP DUP2 DUP2 SUB PUSH0 DUP4 ADD MSTORE PUSH2 0x1785 DUP2 PUSH2 0x174C JUMP JUMPDEST SWAP1 POP SWAP2 SWAP1 POP JUMP JUMPDEST PUSH32 0x506F6C6C696E672068617320456E646564000000000000000000000000000000 PUSH0 DUP3 ADD MSTORE POP JUMP JUMPDEST PUSH0 PUSH2 0x17C0 PUSH1 0x11 DUP4 PUSH2 0x13BD JUMP JUMPDEST SWAP2 POP PUSH2 0x17CB DUP3 PUSH2 0x178C JUMP JUMPDEST PUSH1 0x20 DUP3 ADD SWAP1 POP SWAP2 SWAP1 POP JUMP JUMPDEST PUSH0 PUSH1 0x20 DUP3 ADD SWAP1 POP DUP2 DUP2 SUB PUSH0 DUP4 ADD MSTORE PUSH2 0x17ED DUP2 PUSH2 0x17B4 JUMP JUMPDEST SWAP1 POP SWAP2 SWAP1 POP JUMP JUMPDEST PUSH32 0x596F75206861766520416C726561647920566F74656400000000000000000000 PUSH0 DUP3 ADD MSTORE POP JUMP JUMPDEST PUSH0 PUSH2 0x1828 PUSH1 0x16 DUP4 PUSH2 0x13BD JUMP JUMPDEST SWAP2 POP PUSH2 0x1833 DUP3 PUSH2 0x17F4 JUMP JUMPDEST PUSH1 0x20 DUP3 ADD SWAP1 POP SWAP2 SWAP1 POP JUMP JUMPDEST PUSH0 PUSH1 0x20 DUP3 ADD SWAP1 POP DUP2 DUP2 SUB PUSH0 DUP4 ADD MSTORE PUSH2 0x1855 DUP2 PUSH2 0x181C JUMP JUMPDEST SWAP1 POP SWAP2 SWAP1 POP JUMP JUMPDEST PUSH0 DUP2 SWAP1 POP SWAP3 SWAP2 POP POP JUMP JUMPDEST PUSH0 PUSH2 0x1870 DUP3 PUSH2 0x13B3 JUMP JUMPDEST PUSH2 0x187A DUP2 DUP6 PUSH2 0x185C JUMP JUMPDEST SWAP4 POP PUSH2 0x188A DUP2 DUP6 PUSH1 0x20 DUP7 ADD PUSH2 0x13CD JUMP JUMPDEST DUP1 DUP5 ADD SWAP2 POP POP SWAP3 SWAP2 POP POP JUMP JUMPDEST PUSH0 PUSH2 0x18A1 DUP3 DUP5 PUSH2 0x1866 JUMP JUMPDEST SWAP2 POP DUP2 SWAP1 POP SWAP3 SWAP2 POP POP JUMP JUMPDEST PUSH32 0x496E7661696C6420566F74696E672043686F6963650000000000000000000000 PUSH0 DUP3 ADD MSTORE POP JUMP JUMPDEST PUSH0 PUSH2 0x18E0 PUSH1 0x15 DUP4 PUSH2 0x13BD JUMP JUMPDEST SWAP2 POP PUSH2 0x18EB DUP3 PUSH2 0x18AC JUMP JUMPDEST PUSH1 0x20 DUP3 ADD SWAP1 POP SWAP2 SWAP1 POP JUMP JUMPDEST PUSH0 PUSH1 0x20 DUP3 ADD SWAP1 POP DUP2 DUP2 SUB PUSH0 DUP4 ADD MSTORE PUSH2 0x190D DUP2 PUSH2 0x18D4 JUMP JUMPDEST SWAP1 POP SWAP2 SWAP1 POP JUMP JUMPDEST PUSH32 0x4E487B7100000000000000000000000000000000000000000000000000000000 PUSH0 MSTORE PUSH1 0x11 PUSH1 0x4 MSTORE PUSH1 0x24 PUSH0 REVERT JUMPDEST PUSH0 PUSH2 0x194B DUP3 PUSH2 0x1078 JUMP JUMPDEST SWAP2 POP PUSH32 0xFFFFFFFFFFFFFFFFFFFFFFFFFFFFFFFFFFFFFFFFFFFFFFFFFFFFFFFFFFFFFFFF DUP3 SUB PUSH2 0x197D JUMPI PUSH2 0x197C PUSH2 0x1914 JUMP JUMPDEST JUMPDEST PUSH1 0x1 DUP3 ADD SWAP1 POP SWAP2 SWAP1 POP JUMP JUMPDEST PUSH32 0x4E487B7100000000000000000000000000000000000000000000000000000000 PUSH0 MSTORE PUSH1 0x22 PUSH1 0x4 MSTORE PUSH1 0x24 PUSH0 REVERT JUMPDEST PUSH0 PUSH1 0x2 DUP3 DIV SWAP1 POP PUSH1 0x1 DUP3 AND DUP1 PUSH2 0x19CC JUMPI PUSH1 0x7F DUP3 AND SWAP2 POP JUMPDEST PUSH1 0x20 DUP3 LT DUP2 SUB PUSH2 0x19DF JUMPI PUSH2 0x19DE PUSH2 0x1988 JUMP JUMPDEST JUMPDEST POP SWAP2 SWAP1 POP JUMP JUMPDEST PUSH0 DUP2 SWAP1 POP DUP2 PUSH0 MSTORE PUSH1 0x20 PUSH0 KECCAK256 SWAP1 POP SWAP2 SWAP1 POP JUMP JUMPDEST PUSH0 PUSH1 0x20 PUSH1 0x1F DUP4 ADD DIV SWAP1 POP SWAP2 SWAP1 POP JUMP JUMPDEST PUSH0 DUP3 DUP3 SHL SWAP1 POP SWAP3 SWAP2 POP POP JUMP JUMPDEST PUSH0 PUSH1 0x8 DUP4 MUL PUSH2 0x1A41 PUSH32 0xFFFFFFFFFFFFFFFFFFFFFFFFFFFFFFFFFFFFFFFFFFFFFFFFFFFFFFFFFFFFFFFF DUP3 PUSH2 0x1A06 JUMP JUMPDEST PUSH2 0x1A4B DUP7 DUP4 PUSH2 0x1A06 JUMP JUMPDEST SWAP6 POP DUP1 NOT DUP5 AND SWAP4 POP DUP1 DUP7 AND DUP5 OR SWAP3 POP POP POP SWAP4 SWAP3 POP POP POP JUMP JUMPDEST PUSH0 DUP2 SWAP1 POP SWAP2 SWAP1 POP JUMP JUMPDEST PUSH0 PUSH2 0x1A86 PUSH2 0x1A81 PUSH2 0x1A7C DUP5 PUSH2 0x1078 JUMP JUMPDEST PUSH2 0x1A63 JUMP JUMPDEST PUSH2 0x1078 JUMP JUMPDEST SWAP1 POP SWAP2 SWAP1 POP JUMP JUMPDEST PUSH0 DUP2 SWAP1 POP SWAP2 SWAP1 POP JUMP JUMPDEST PUSH2 0x1A9F DUP4 PUSH2 0x1A6C JUMP JUMPDEST PUSH2 0x1AB3 PUSH2 0x1AAB DUP3 PUSH2 0x1A8D JUMP JUMPDEST DUP5 DUP5 SLOAD PUSH2 0x1A12 JUMP JUMPDEST DUP3 SSTORE POP POP POP POP JUMP JUMPDEST PUSH0 SWAP1 JUMP JUMPDEST PUSH2 0x1AC7 PUSH2 0x1ABB JUMP JUMPDEST PUSH2 0x1AD2 DUP2 DUP5 DUP5 PUSH2 0x1A96 JUMP JUMPDEST POP POP POP JUMP JUMPDEST JUMPDEST DUP2 DUP2 LT ISZERO PUSH2 0x1AF5 JUMPI PUSH2 0x1AEA PUSH0 DUP3 PUSH2 0x1ABF JUMP JUMPDEST PUSH1 0x1 DUP2 ADD SWAP1 POP PUSH2 0x1AD8 JUMP JUMPDEST POP POP JUMP JUMPDEST PUSH1 0x1F DUP3 GT ISZERO PUSH2 0x1B3A JUMPI PUSH2 0x1B0B DUP2 PUSH2 0x19E5 JUMP JUMPDEST PUSH2 0x1B14 DUP5 PUSH2 0x19F7 JUMP JUMPDEST DUP2 ADD PUSH1 0x20 DUP6 LT ISZERO PUSH2 0x1B23 JUMPI DUP2 SWAP1 POP JUMPDEST PUSH2 0x1B37 PUSH2 0x1B2F DUP6 PUSH2 0x19F7 JUMP JUMPDEST DUP4 ADD DUP3 PUSH2 0x1AD7 JUMP JUMPDEST POP POP JUMPDEST POP POP POP JUMP JUMPDEST PUSH0 DUP3 DUP3 SHR SWAP1 POP SWAP3 SWAP2 POP POP JUMP JUMPDEST PUSH0 PUSH2 0x1B5A PUSH0 NOT DUP5 PUSH1 0x8 MUL PUSH2 0x1B3F JUMP JUMPDEST NOT DUP1 DUP4 AND SWAP2 POP POP SWAP3 SWAP2 POP POP JUMP JUMPDEST PUSH0 PUSH2 0x1B72 DUP4 DUP4 PUSH2 0x1B4B JUMP JUMPDEST SWAP2 POP DUP3 PUSH1 0x2 MUL DUP3 OR SWAP1 POP SWAP3 SWAP2 POP POP JUMP JUMPDEST PUSH2 0x1B8B DUP3 PUSH2 0x13B3 JUMP JUMPDEST PUSH8 0xFFFFFFFFFFFFFFFF DUP2 GT ISZERO PUSH2 0x1BA4 JUMPI PUSH2 0x1BA3 PUSH2 0x10C3 JUMP JUMPDEST JUMPDEST PUSH2 0x1BAE DUP3 SLOAD PUSH2 0x19B5 JUMP JUMPDEST PUSH2 0x1BB9 DUP3 DUP3 DUP6 PUSH2 0x1AF9 JUMP JUMPDEST PUSH0 PUSH1 0x20 SWAP1 POP PUSH1 0x1F DUP4 GT PUSH1 0x1 DUP2 EQ PUSH2 0x1BEA JUMPI PUSH0 DUP5 ISZERO PUSH2 0x1BD8 JUMPI DUP3 DUP8 ADD MLOAD SWAP1 POP JUMPDEST PUSH2 0x1BE2 DUP6 DUP3 PUSH2 0x1B67 JUMP JUMPDEST DUP7 SSTORE POP PUSH2 0x1C49 JUMP JUMPDEST PUSH1 0x1F NOT DUP5 AND PUSH2 0x1BF8 DUP7 PUSH2 0x19E5 JUMP JUMPDEST PUSH0 JUMPDEST DUP3 DUP2 LT ISZERO PUSH2 0x1C1F JUMPI DUP5 DUP10 ADD MLOAD DUP3 SSTORE PUSH1 0x1 DUP3 ADD SWAP2 POP PUSH1 0x20 DUP6 ADD SWAP5 POP PUSH1 0x20 DUP2 ADD SWAP1 POP PUSH2 0x1BFA JUMP JUMPDEST DUP7 DUP4 LT ISZERO PUSH2 0x1C3C JUMPI DUP5 DUP10 ADD MLOAD PUSH2 0x1C38 PUSH1 0x1F DUP10 AND DUP3 PUSH2 0x1B4B JUMP JUMPDEST DUP4 SSTORE POP JUMPDEST PUSH1 0x1 PUSH1 0x2 DUP9 MUL ADD DUP9 SSTORE POP POP POP JUMPDEST POP POP POP POP POP POP JUMP JUMPDEST PUSH0 PUSH1 0x40 DUP3 ADD SWAP1 POP DUP2 DUP2 SUB PUSH0 DUP4 ADD MSTORE PUSH2 0x1C69 DUP2 DUP6 PUSH2 0x13DB JUMP JUMPDEST SWAP1 POP PUSH2 0x1C78 PUSH1 0x20 DUP4 ADD DUP5 PUSH2 0x132D JUMP JUMPDEST SWAP4 SWAP3 POP POP POP JUMP JUMPDEST PUSH32 0x4E487B7100000000000000000000000000000000000000000000000000000000 PUSH0 MSTORE PUSH1 0x32 PUSH1 0x4 MSTORE PUSH1 0x24 PUSH0 REVERT JUMPDEST PUSH32 0x4F6E6C792041646D696E2043616E206372656174652054686973204F70657261 PUSH0 DUP3 ADD MSTORE PUSH32 0x74696F6E73000000000000000000000000000000000000000000000000000000 PUSH1 0x20 DUP3 ADD MSTORE POP JUMP JUMPDEST PUSH0 PUSH2 0x1D06 PUSH1 0x25 DUP4 PUSH2 0x13BD JUMP JUMPDEST SWAP2 POP PUSH2 0x1D11 DUP3 PUSH2 0x1CAC JUMP JUMPDEST PUSH1 0x40 DUP3 ADD SWAP1 POP SWAP2 SWAP1 POP JUMP JUMPDEST PUSH0 PUSH1 0x20 DUP3 ADD SWAP1 POP DUP2 DUP2 SUB PUSH0 DUP4 ADD MSTORE PUSH2 0x1D33 DUP2 PUSH2 0x1CFA JUMP JUMPDEST SWAP1 POP SWAP2 SWAP1 POP JUMP JUMPDEST PUSH32 0x4475726174696F6E206D757374207665206772656174686572205468616E2030 PUSH0 DUP3 ADD MSTORE POP JUMP JUMPDEST PUSH0 PUSH2 0x1D6E PUSH1 0x20 DUP4 PUSH2 0x13BD JUMP JUMPDEST SWAP2 POP PUSH2 0x1D79 DUP3 PUSH2 0x1D3A JUMP JUMPDEST PUSH1 0x20 DUP3 ADD SWAP1 POP SWAP2 SWAP1 POP JUMP JUMPDEST PUSH0 PUSH1 0x20 DUP3 ADD SWAP1 POP DUP2 DUP2 SUB PUSH0 DUP4 ADD MSTORE PUSH2 0x1D9B DUP2 PUSH2 0x1D62 JUMP JUMPDEST SWAP1 POP SWAP2 SWAP1 POP JUMP JUMPDEST PUSH32 0x5F7469746C65206D757374207665206772656174686572205468616E20330000 PUSH0 DUP3 ADD MSTORE POP JUMP JUMPDEST PUSH0 PUSH2 0x1DD6 PUSH1 0x1E DUP4 PUSH2 0x13BD JUMP JUMPDEST SWAP2 POP PUSH2 0x1DE1 DUP3 PUSH2 0x1DA2 JUMP JUMPDEST PUSH1 0x20 DUP3 ADD SWAP1 POP SWAP2 SWAP1 POP JUMP JUMPDEST PUSH0 PUSH1 0x20 DUP3 ADD SWAP1 POP DUP2 DUP2 SUB PUSH0 DUP4 ADD MSTORE PUSH2 0x1E03 DUP2 PUSH2 0x1DCA JUMP JUMPDEST SWAP1 POP SWAP2 SWAP1 POP JUMP JUMPDEST PUSH32 0x5F696D61676548617368206D757374207665206772656174686572205468616E PUSH0 DUP3 ADD MSTORE PUSH32 0x2033000000000000000000000000000000000000000000000000000000000000 PUSH1 0x20 DUP3 ADD MSTORE POP JUMP JUMPDEST PUSH0 PUSH2 0x1E64 PUSH1 0x22 DUP4 PUSH2 0x13BD JUMP JUMPDEST SWAP2 POP PUSH2 0x1E6F DUP3 PUSH2 0x1E0A JUMP JUMPDEST PUSH1 0x40 DUP3 ADD SWAP1 POP SWAP2 SWAP1 POP JUMP JUMPDEST PUSH0 PUSH1 0x20 DUP3 ADD SWAP1 POP DUP2 DUP2 SUB PUSH0 DUP4 ADD MSTORE PUSH2 0x1E91 DUP2 PUSH2 0x1E58 JUMP JUMPDEST SWAP1 POP SWAP2 SWAP1 POP JUMP JUMPDEST PUSH32 0x5F6465736372697074696F6E206D757374207665206772656174686572205468 PUSH0 DUP3 ADD MSTORE PUSH32 0x616E203300000000000000000000000000000000000000000000000000000000 PUSH1 0x20 DUP3 ADD MSTORE POP JUMP JUMPDEST PUSH0 PUSH2 0x1EF2 PUSH1 0x24 DUP4 PUSH2 0x13BD JUMP JUMPDEST SWAP2 POP PUSH2 0x1EFD DUP3 PUSH2 0x1E98 JUMP JUMPDEST PUSH1 0x40 DUP3 ADD SWAP1 POP SWAP2 SWAP1 POP JUMP JUMPDEST PUSH0 PUSH1 0x20 DUP3 ADD SWAP1 POP DUP2 DUP2 SUB PUSH0 DUP4 ADD MSTORE PUSH2 0x1F1F DUP2 PUSH2 0x1EE6 JUMP JUMPDEST SWAP1 POP SWAP2 SWAP1 POP JUMP JUMPDEST PUSH0 PUSH2 0x1F30 DUP3 PUSH2 0x1078 JUMP JUMPDEST SWAP2 POP PUSH2 0x1F3B DUP4 PUSH2 0x1078 JUMP JUMPDEST SWAP3 POP DUP3 DUP3 ADD SWAP1 POP DUP1 DUP3 GT ISZERO PUSH2 0x1F53 JUMPI PUSH2 0x1F52 PUSH2 0x1914 JUMP JUMPDEST JUMPDEST SWAP3 SWAP2 POP POP JUMP JUMPDEST PUSH0 PUSH1 0x60 DUP3 ADD SWAP1 POP DUP2 DUP2 SUB PUSH0 DUP4 ADD MSTORE PUSH2 0x1F71 DUP2 DUP7 PUSH2 0x13DB JUMP JUMPDEST SWAP1 POP PUSH2 0x1F80 PUSH1 0x20 DUP4 ADD DUP6 PUSH2 0x132D JUMP JUMPDEST PUSH2 0x1F8D PUSH1 0x40 DUP4 ADD DUP5 PUSH2 0x132D JUMP JUMPDEST SWAP5 SWAP4 POP POP POP POP JUMP INVALID LOG2 PUSH5 0x6970667358 0x22 SLT KECCAK256 0xFB DUP12 PUSH29 0x60CEE6470F67CC25717C926BC0BA2BAF7A54DA8CD262C0285545CD5FBC PUSH5 0x736F6C6343 STOP ADDMOD BYTE STOP CALLER "
				},
				"gasEstimates": {
					"creation": {
						"codeDepositCost": "1627800",
						"executionCost": "25971",
						"totalCost": "1653771"
					},
					"external": {
						"admin()": "2552",
						"createPoll(string,uint256,string,string)": "infinite",
						"getAllPollings()": "infinite",
						"getPollDetailes(uint256)": "infinite",
						"getVotes(uint256)": "infinite",
						"pollExpirationStatus(uint256)": "2853",
						"pollingIdCounter()": "2482",
						"vote(uint256,string)": "infinite"
					}
				},
				"methodIdentifiers": {
					"admin()": "f851a440",
					"createPoll(string,uint256,string,string)": "8cb0f49d",
					"getAllPollings()": "408f5a7f",
					"getPollDetailes(uint256)": "648a2e92",
					"getVotes(uint256)": "ff981099",
					"pollExpirationStatus(uint256)": "5c3d868f",
					"pollingIdCounter()": "4248bcf3",
					"vote(uint256,string)": "24108475"
				}
			},
			"storageLayout": {
				"storage": [
					{
						"astId": 83,
						"contract": "VotDao.sol:VoteDao",
						"label": "pollingIdCounter",
						"offset": 0,
						"slot": "0",
						"type": "t_struct(Counter)5_storage"
					},
					{
						"astId": 85,
						"contract": "VotDao.sol:VoteDao",
						"label": "admin",
						"offset": 0,
						"slot": "1",
						"type": "t_address"
					},
					{
						"astId": 131,
						"contract": "VotDao.sol:VoteDao",
						"label": "pollings",
						"offset": 0,
						"slot": "2",
						"type": "t_mapping(t_uint256,t_struct(Poll)126_storage)"
					},
					{
						"astId": 136,
						"contract": "VotDao.sol:VoteDao",
						"label": "userVotedPollings",
						"offset": 0,
						"slot": "3",
						"type": "t_mapping(t_address,t_array(t_uint256)dyn_storage)"
					}
				],
				"types": {
					"t_address": {
						"encoding": "inplace",
						"label": "address",
						"numberOfBytes": "20"
					},
					"t_array(t_struct(Vote)101_storage)dyn_storage": {
						"base": "t_struct(Vote)101_storage",
						"encoding": "dynamic_array",
						"label": "struct VoteDao.Vote[]",
						"numberOfBytes": "32"
					},
					"t_array(t_uint256)dyn_storage": {
						"base": "t_uint256",
						"encoding": "dynamic_array",
						"label": "uint256[]",
						"numberOfBytes": "32"
					},
					"t_bool": {
						"encoding": "inplace",
						"label": "bool",
						"numberOfBytes": "1"
					},
					"t_mapping(t_address,t_array(t_uint256)dyn_storage)": {
						"encoding": "mapping",
						"key": "t_address",
						"label": "mapping(address => uint256[])",
						"numberOfBytes": "32",
						"value": "t_array(t_uint256)dyn_storage"
					},
					"t_mapping(t_address,t_bool)": {
						"encoding": "mapping",
						"key": "t_address",
						"label": "mapping(address => bool)",
						"numberOfBytes": "32",
						"value": "t_bool"
					},
					"t_mapping(t_uint256,t_struct(Poll)126_storage)": {
						"encoding": "mapping",
						"key": "t_uint256",
						"label": "mapping(uint256 => struct VoteDao.Poll)",
						"numberOfBytes": "32",
						"value": "t_struct(Poll)126_storage"
					},
					"t_string_storage": {
						"encoding": "bytes",
						"label": "string",
						"numberOfBytes": "32"
					},
					"t_struct(Counter)5_storage": {
						"encoding": "inplace",
						"label": "struct Counters.Counter",
						"members": [
							{
								"astId": 4,
								"contract": "VotDao.sol:VoteDao",
								"label": "_value",
								"offset": 0,
								"slot": "0",
								"type": "t_uint256"
							}
						],
						"numberOfBytes": "32"
					},
					"t_struct(Poll)126_storage": {
						"encoding": "inplace",
						"label": "struct VoteDao.Poll",
						"members": [
							{
								"astId": 103,
								"contract": "VotDao.sol:VoteDao",
								"label": "title",
								"offset": 0,
								"slot": "0",
								"type": "t_string_storage"
							},
							{
								"astId": 105,
								"contract": "VotDao.sol:VoteDao",
								"label": "expirationDate",
								"offset": 0,
								"slot": "1",
								"type": "t_uint256"
							},
							{
								"astId": 107,
								"contract": "VotDao.sol:VoteDao",
								"label": "imageHash",
								"offset": 0,
								"slot": "2",
								"type": "t_string_storage"
							},
							{
								"astId": 109,
								"contract": "VotDao.sol:VoteDao",
								"label": "description",
								"offset": 0,
								"slot": "3",
								"type": "t_string_storage"
							},
							{
								"astId": 113,
								"contract": "VotDao.sol:VoteDao",
								"label": "hasVoted",
								"offset": 0,
								"slot": "4",
								"type": "t_mapping(t_address,t_bool)"
							},
							{
								"astId": 115,
								"contract": "VotDao.sol:VoteDao",
								"label": "rejectVotes",
								"offset": 0,
								"slot": "5",
								"type": "t_uint256"
							},
							{
								"astId": 117,
								"contract": "VotDao.sol:VoteDao",
								"label": "acceptVotes",
								"offset": 0,
								"slot": "6",
								"type": "t_uint256"
							},
							{
								"astId": 119,
								"contract": "VotDao.sol:VoteDao",
								"label": "notInterestedVotes",
								"offset": 0,
								"slot": "7",
								"type": "t_uint256"
							},
							{
								"astId": 121,
								"contract": "VotDao.sol:VoteDao",
								"label": "exists",
								"offset": 0,
								"slot": "8",
								"type": "t_bool"
							},
							{
								"astId": 125,
								"contract": "VotDao.sol:VoteDao",
								"label": "votes",
								"offset": 0,
								"slot": "9",
								"type": "t_array(t_struct(Vote)101_storage)dyn_storage"
							}
						],
						"numberOfBytes": "320"
					},
					"t_struct(Vote)101_storage": {
						"encoding": "inplace",
						"label": "struct VoteDao.Vote",
						"members": [
							{
								"astId": 96,
								"contract": "VotDao.sol:VoteDao",
								"label": "voter",
								"offset": 0,
								"slot": "0",
								"type": "t_address"
							},
							{
								"astId": 98,
								"contract": "VotDao.sol:VoteDao",
								"label": "choice",
								"offset": 0,
								"slot": "1",
								"type": "t_string_storage"
							},
							{
								"astId": 100,
								"contract": "VotDao.sol:VoteDao",
								"label": "time",
								"offset": 0,
								"slot": "2",
								"type": "t_uint256"
							}
						],
						"numberOfBytes": "96"
					},
					"t_uint256": {
						"encoding": "inplace",
						"label": "uint256",
						"numberOfBytes": "32"
					}
				}
			},
			"userdoc": {
				"kind": "user",
				"methods": {},
				"version": 1
			}
		}
	}
}