{
	"data": {
		"bytecode": {
			"linkReferences": {},
			"object": "6080604052348015600e575f80fd5b503360015f6101000a81548173ffffffffffffffffffffffffffffffffffffffff021916908373ffffffffffffffffffffffffffffffffffffffff160217905550611ce78061005c5f395ff3fe608060405234801561000f575f80fd5b506004361061007b575f3560e01c8063648a2e9211610059578063648a2e92146100e95780638cb0f49d1461011f578063f851a4401461013b578063ff981099146101595761007b565b8063241084751461007f5780634248bcf31461009b5780635c3d868f146100b9575b5f80fd5b6100996004803603810190610094919061100d565b610189565b005b6100a361076b565b6040516100b09190611076565b60405180910390f35b6100d360048036038101906100ce919061108f565b610775565b6040516100e091906110d4565b60405180910390f35b61010360048036038101906100fe919061108f565b610794565b604051610116979695949392919061114d565b60405180910390f35b610139600480360381019061013491906111cf565b6109ea565b005b610143610cea565b60405161015091906112c6565b60405180910390f35b610173600480360381019061016e919061108f565b610d0f565b604051610180919061144d565b60405180910390f35b8160025f8281526020019081526020015f206008015f9054906101000a900460ff166101ea576040517f08c379a00000000000000000000000000000000000000000000000000000000081526004016101e1906114b7565b60405180910390fd5b8260025f8281526020019081526020015f20600101544210610241576040517f08c379a00000000000000000000000000000000000000000000000000000000081526004016102389061151f565b60405180910390fd5b8360025f8281526020019081526020015f206004015f3373ffffffffffffffffffffffffffffffffffffffff1673ffffffffffffffffffffffffffffffffffffffff1681526020019081526020015f205f9054906101000a900460ff16156102de576040517f08c379a00000000000000000000000000000000000000000000000000000000081526004016102d590611587565b60405180910390fd5b7f84e4f592e52dc6e339ebb9a3f379f4dcf988a1253042a8ba9f03099551864bf08460405160200161031091906115df565b60405160208183030381529060405280519060200120148061037757507f267aa6f4694ec65b4167a753966ad7f8f38d1152f8a81ccf0d941bd0680eb8528460405160200161035f91906115df565b60405160208183030381529060405280519060200120145b806103c757507fec909a09e1b13c18ded9f3beadbaf9a4fb3e3f1fbd6cd0e0f273dd90b6d789a2846040516020016103af91906115df565b60405160208183030381529060405280519060200120145b610406576040517f08c379a00000000000000000000000000000000000000000000000000000000081526004016103fd9061163f565b60405180910390fd5b7f84e4f592e52dc6e339ebb9a3f379f4dcf988a1253042a8ba9f03099551864bf08460405160200161043891906115df565b60405160208183030381529060405280519060200120036104815760025f8681526020019081526020015f206006015f8154809291906104779061168a565b9190505550610575565b7f267aa6f4694ec65b4167a753966ad7f8f38d1152f8a81ccf0d941bd0680eb852846040516020016104b391906115df565b60405160208183030381529060405280519060200120036104fc5760025f8681526020019081526020015f206005015f8154809291906104f29061168a565b9190505550610574565b7fec909a09e1b13c18ded9f3beadbaf9a4fb3e3f1fbd6cd0e0f273dd90b6d789a28460405160200161052e91906115df565b60405160208183030381529060405280519060200120036105735760025f8681526020019081526020015f206007015f81548092919061056d9061168a565b91905055505b5b5b600160025f8781526020019081526020015f206004015f3373ffffffffffffffffffffffffffffffffffffffff1673ffffffffffffffffffffffffffffffffffffffff1681526020019081526020015f205f6101000a81548160ff02191690831515021790555060035f3373ffffffffffffffffffffffffffffffffffffffff1673ffffffffffffffffffffffffffffffffffffffff1681526020019081526020015f2085908060018154018082558091505060019003905f5260205f20015f90919091909150555f60405180606001604052803373ffffffffffffffffffffffffffffffffffffffff16815260200186815260200142815250905060025f8781526020019081526020015f2060090181908060018154018082558091505060019003905f5260205f2090600302015f909190919091505f820151815f015f6101000a81548173ffffffffffffffffffffffffffffffffffffffff021916908373ffffffffffffffffffffffffffffffffffffffff160217905550602082015181600101908161070591906118cb565b506040820151816002015550503373ffffffffffffffffffffffffffffffffffffffff16867f3ae89ec44d6750209e1164a2659a766e3cfe3476e908a19cb5e928974ef5e4ec874260405161075b92919061199a565b60405180910390a3505050505050565b5f805f0154905081565b5f60025f8381526020019081526020015f206001015442109050919050565b60605f6060805f805f8760025f8281526020019081526020015f206008015f9054906101000a900460ff166107fe576040517f08c379a00000000000000000000000000000000000000000000000000000000081526004016107f5906114b7565b60405180910390fd5b5f60025f8b81526020019081526020015f209050805f018160010154826002018360030184600501548560060154866007015486805461083d906116fe565b80601f0160208091040260200160405190810160405280929190818152602001828054610869906116fe565b80156108b45780601f1061088b576101008083540402835291602001916108b4565b820191905f5260205f20905b81548152906001019060200180831161089757829003601f168201915b505050505096508480546108c7906116fe565b80601f01602080910402602001604051908101604052809291908181526020018280546108f3906116fe565b801561093e5780601f106109155761010080835404028352916020019161093e565b820191905f5260205f20905b81548152906001019060200180831161092157829003601f168201915b50505050509450838054610951906116fe565b80601f016020809104026020016040519081016040528092919081815260200182805461097d906116fe565b80156109c85780601f1061099f576101008083540402835291602001916109c8565b820191905f5260205f20905b8154815290600101906020018083116109ab57829003601f168201915b5050505050935098509850985098509850985098505050919395979092949650565b60015f9054906101000a900473ffffffffffffffffffffffffffffffffffffffff1673ffffffffffffffffffffffffffffffffffffffff163373ffffffffffffffffffffffffffffffffffffffff1614610a79576040517f08c379a0000000000000000000000000000000000000000000000000000000008152600401610a7090611a38565b60405180910390fd5b5f8311610abb576040517f08c379a0000000000000000000000000000000000000000000000000000000008152600401610ab290611aa0565b60405180910390fd5b6003845111610aff576040517f08c379a0000000000000000000000000000000000000000000000000000000008152600401610af690611b08565b60405180910390fd5b6003825111610b43576040517f08c379a0000000000000000000000000000000000000000000000000000000008152600401610b3a90611b96565b60405180910390fd5b6003815111610b87576040517f08c379a0000000000000000000000000000000000000000000000000000000008152600401610b7e90611c24565b60405180910390fd5b610b905f610e6d565b5f610b9a5f610e81565b90508460025f8381526020019081526020015f205f019081610bbc91906118cb565b508160025f8381526020019081526020015f206003019081610bde91906118cb565b508342610beb9190611c42565b60025f8381526020019081526020015f20600101819055508260025f8381526020019081526020015f206002019081610c2491906118cb565b505f60025f8381526020019081526020015f20600501819055505f60025f8381526020019081526020015f20600601819055505f60025f8381526020019081526020015f2060070181905550600160025f8381526020019081526020015f206008015f6101000a81548160ff021916908315150217905550807fc12ed8d302ff006db51c496d9dc9f900ffc6f4d54f461eb0cd812b0a08b80804868642610ccb9190611c42565b42604051610cdb93929190611c75565b60405180910390a25050505050565b60015f9054906101000a900473ffffffffffffffffffffffffffffffffffffffff1681565b606060025f8381526020019081526020015f20600901805480602002602001604051908101604052809291908181526020015f905b82821015610e62578382905f5260205f2090600302016040518060600160405290815f82015f9054906101000a900473ffffffffffffffffffffffffffffffffffffffff1673ffffffffffffffffffffffffffffffffffffffff1673ffffffffffffffffffffffffffffffffffffffff168152602001600182018054610dc9906116fe565b80601f0160208091040260200160405190810160405280929190818152602001828054610df5906116fe565b8015610e405780601f10610e1757610100808354040283529160200191610e40565b820191905f5260205f20905b815481529060010190602001808311610e2357829003601f168201915b5050505050815260200160028201548152505081526020019060010190610d44565b505050509050919050565b6001815f015f828254019250508190555050565b5f815f01549050919050565b5f604051905090565b5f80fd5b5f80fd5b5f819050919050565b610eb081610e9e565b8114610eba575f80fd5b50565b5f81359050610ecb81610ea7565b92915050565b5f80fd5b5f80fd5b5f601f19601f8301169050919050565b7f4e487b71000000000000000000000000000000000000000000000000000000005f52604160045260245ffd5b610f1f82610ed9565b810181811067ffffffffffffffff82111715610f3e57610f3d610ee9565b5b80604052505050565b5f610f50610e8d565b9050610f5c8282610f16565b919050565b5f67ffffffffffffffff821115610f7b57610f7a610ee9565b5b610f8482610ed9565b9050602081019050919050565b828183375f83830152505050565b5f610fb1610fac84610f61565b610f47565b905082815260208101848484011115610fcd57610fcc610ed5565b5b610fd8848285610f91565b509392505050565b5f82601f830112610ff457610ff3610ed1565b5b8135611004848260208601610f9f565b91505092915050565b5f806040838503121561102357611022610e96565b5b5f61103085828601610ebd565b925050602083013567ffffffffffffffff81111561105157611050610e9a565b5b61105d85828601610fe0565b9150509250929050565b61107081610e9e565b82525050565b5f6020820190506110895f830184611067565b92915050565b5f602082840312156110a4576110a3610e96565b5b5f6110b184828501610ebd565b91505092915050565b5f8115159050919050565b6110ce816110ba565b82525050565b5f6020820190506110e75f8301846110c5565b92915050565b5f81519050919050565b5f82825260208201905092915050565b8281835e5f83830152505050565b5f61111f826110ed565b61112981856110f7565b9350611139818560208601611107565b61114281610ed9565b840191505092915050565b5f60e0820190508181035f830152611165818a611115565b90506111746020830189611067565b81810360408301526111868188611115565b9050818103606083015261119a8187611115565b90506111a96080830186611067565b6111b660a0830185611067565b6111c360c0830184611067565b98975050505050505050565b5f805f80608085870312156111e7576111e6610e96565b5b5f85013567ffffffffffffffff81111561120457611203610e9a565b5b61121087828801610fe0565b945050602061122187828801610ebd565b935050604085013567ffffffffffffffff81111561124257611241610e9a565b5b61124e87828801610fe0565b925050606085013567ffffffffffffffff81111561126f5761126e610e9a565b5b61127b87828801610fe0565b91505092959194509250565b5f73ffffffffffffffffffffffffffffffffffffffff82169050919050565b5f6112b082611287565b9050919050565b6112c0816112a6565b82525050565b5f6020820190506112d95f8301846112b7565b92915050565b5f81519050919050565b5f82825260208201905092915050565b5f819050602082019050919050565b611311816112a6565b82525050565b5f82825260208201905092915050565b5f611331826110ed565b61133b8185611317565b935061134b818560208601611107565b61135481610ed9565b840191505092915050565b61136881610e9e565b82525050565b5f606083015f8301516113835f860182611308565b506020830151848203602086015261139b8282611327565b91505060408301516113b0604086018261135f565b508091505092915050565b5f6113c6838361136e565b905092915050565b5f602082019050919050565b5f6113e4826112df565b6113ee81856112e9565b935083602082028501611400856112f9565b805f5b8581101561143b578484038952815161141c85826113bb565b9450611427836113ce565b925060208a01995050600181019050611403565b50829750879550505050505092915050565b5f6020820190508181035f83015261146581846113da565b905092915050565b7f506f6c6c696e6720646f7365206e6f74206578697374000000000000000000005f82015250565b5f6114a16016836110f7565b91506114ac8261146d565b602082019050919050565b5f6020820190508181035f8301526114ce81611495565b9050919050565b7f506f6c6c696e672068617320456e6465640000000000000000000000000000005f82015250565b5f6115096011836110f7565b9150611514826114d5565b602082019050919050565b5f6020820190508181035f830152611536816114fd565b9050919050565b7f596f75206861766520416c726561647920566f746564000000000000000000005f82015250565b5f6115716016836110f7565b915061157c8261153d565b602082019050919050565b5f6020820190508181035f83015261159e81611565565b9050919050565b5f81905092915050565b5f6115b9826110ed565b6115c381856115a5565b93506115d3818560208601611107565b80840191505092915050565b5f6115ea82846115af565b915081905092915050565b7f496e7661696c6420566f74696e672043686f69636500000000000000000000005f82015250565b5f6116296015836110f7565b9150611634826115f5565b602082019050919050565b5f6020820190508181035f8301526116568161161d565b9050919050565b7f4e487b71000000000000000000000000000000000000000000000000000000005f52601160045260245ffd5b5f61169482610e9e565b91507fffffffffffffffffffffffffffffffffffffffffffffffffffffffffffffffff82036116c6576116c561165d565b5b600182019050919050565b7f4e487b71000000000000000000000000000000000000000000000000000000005f52602260045260245ffd5b5f600282049050600182168061171557607f821691505b602082108103611728576117276116d1565b5b50919050565b5f819050815f5260205f209050919050565b5f6020601f8301049050919050565b5f82821b905092915050565b5f6008830261178a7fffffffffffffffffffffffffffffffffffffffffffffffffffffffffffffffff8261174f565b611794868361174f565b95508019841693508086168417925050509392505050565b5f819050919050565b5f6117cf6117ca6117c584610e9e565b6117ac565b610e9e565b9050919050565b5f819050919050565b6117e8836117b5565b6117fc6117f4826117d6565b84845461175b565b825550505050565b5f90565b611810611804565b61181b8184846117df565b505050565b5b8181101561183e576118335f82611808565b600181019050611821565b5050565b601f821115611883576118548161172e565b61185d84611740565b8101602085101561186c578190505b61188061187885611740565b830182611820565b50505b505050565b5f82821c905092915050565b5f6118a35f1984600802611888565b1980831691505092915050565b5f6118bb8383611894565b9150826002028217905092915050565b6118d4826110ed565b67ffffffffffffffff8111156118ed576118ec610ee9565b5b6118f782546116fe565b611902828285611842565b5f60209050601f831160018114611933575f8415611921578287015190505b61192b85826118b0565b865550611992565b601f1984166119418661172e565b5f5b8281101561196857848901518255600182019150602085019450602081019050611943565b868310156119855784890151611981601f891682611894565b8355505b6001600288020188555050505b505050505050565b5f6040820190508181035f8301526119b28185611115565b90506119c16020830184611067565b9392505050565b7f4f6e6c792041646d696e2043616e206372656174652054686973204f706572615f8201527f74696f6e73000000000000000000000000000000000000000000000000000000602082015250565b5f611a226025836110f7565b9150611a2d826119c8565b604082019050919050565b5f6020820190508181035f830152611a4f81611a16565b9050919050565b7f4475726174696f6e206d757374207665206772656174686572205468616e20305f82015250565b5f611a8a6020836110f7565b9150611a9582611a56565b602082019050919050565b5f6020820190508181035f830152611ab781611a7e565b9050919050565b7f5f7469746c65206d757374207665206772656174686572205468616e203300005f82015250565b5f611af2601e836110f7565b9150611afd82611abe565b602082019050919050565b5f6020820190508181035f830152611b1f81611ae6565b9050919050565b7f5f696d61676548617368206d757374207665206772656174686572205468616e5f8201527f2033000000000000000000000000000000000000000000000000000000000000602082015250565b5f611b806022836110f7565b9150611b8b82611b26565b604082019050919050565b5f6020820190508181035f830152611bad81611b74565b9050919050565b7f5f6465736372697074696f6e206d7573742076652067726561746865722054685f8201527f616e203300000000000000000000000000000000000000000000000000000000602082015250565b5f611c0e6024836110f7565b9150611c1982611bb4565b604082019050919050565b5f6020820190508181035f830152611c3b81611c02565b9050919050565b5f611c4c82610e9e565b9150611c5783610e9e565b9250828201905080821115611c6f57611c6e61165d565b5b92915050565b5f6060820190508181035f830152611c8d8186611115565b9050611c9c6020830185611067565b611ca96040830184611067565b94935050505056fea2646970667358221220abb10c779410ea26b848feeee3f852e95264f92af6ae69f7c48ac3e8be748d0c64736f6c634300081a0033",
			"opcodes": "PUSH1 0x80 PUSH1 0x40 MSTORE CALLVALUE DUP1 ISZERO PUSH1 0xE JUMPI PUSH0 DUP1 REVERT JUMPDEST POP CALLER PUSH1 0x1 PUSH0 PUSH2 0x100 EXP DUP2 SLOAD DUP2 PUSH20 0xFFFFFFFFFFFFFFFFFFFFFFFFFFFFFFFFFFFFFFFF MUL NOT AND SWAP1 DUP4 PUSH20 0xFFFFFFFFFFFFFFFFFFFFFFFFFFFFFFFFFFFFFFFF AND MUL OR SWAP1 SSTORE POP PUSH2 0x1CE7 DUP1 PUSH2 0x5C PUSH0 CODECOPY PUSH0 RETURN INVALID PUSH1 0x80 PUSH1 0x40 MSTORE CALLVALUE DUP1 ISZERO PUSH2 0xF JUMPI PUSH0 DUP1 REVERT JUMPDEST POP PUSH1 0x4 CALLDATASIZE LT PUSH2 0x7B JUMPI PUSH0 CALLDATALOAD PUSH1 0xE0 SHR DUP1 PUSH4 0x648A2E92 GT PUSH2 0x59 JUMPI DUP1 PUSH4 0x648A2E92 EQ PUSH2 0xE9 JUMPI DUP1 PUSH4 0x8CB0F49D EQ PUSH2 0x11F JUMPI DUP1 PUSH4 0xF851A440 EQ PUSH2 0x13B JUMPI DUP1 PUSH4 0xFF981099 EQ PUSH2 0x159 JUMPI PUSH2 0x7B JUMP JUMPDEST DUP1 PUSH4 0x24108475 EQ PUSH2 0x7F JUMPI DUP1 PUSH4 0x4248BCF3 EQ PUSH2 0x9B JUMPI DUP1 PUSH4 0x5C3D868F EQ PUSH2 0xB9 JUMPI JUMPDEST PUSH0 DUP1 REVERT JUMPDEST PUSH2 0x99 PUSH1 0x4 DUP1 CALLDATASIZE SUB DUP2 ADD SWAP1 PUSH2 0x94 SWAP2 SWAP1 PUSH2 0x100D JUMP JUMPDEST PUSH2 0x189 JUMP JUMPDEST STOP JUMPDEST PUSH2 0xA3 PUSH2 0x76B JUMP JUMPDEST PUSH1 0x40 MLOAD PUSH2 0xB0 SWAP2 SWAP1 PUSH2 0x1076 JUMP JUMPDEST PUSH1 0x40 MLOAD DUP1 SWAP2 SUB SWAP1 RETURN JUMPDEST PUSH2 0xD3 PUSH1 0x4 DUP1 CALLDATASIZE SUB DUP2 ADD SWAP1 PUSH2 0xCE SWAP2 SWAP1 PUSH2 0x108F JUMP JUMPDEST PUSH2 0x775 JUMP JUMPDEST PUSH1 0x40 MLOAD PUSH2 0xE0 SWAP2 SWAP1 PUSH2 0x10D4 JUMP JUMPDEST PUSH1 0x40 MLOAD DUP1 SWAP2 SUB SWAP1 RETURN JUMPDEST PUSH2 0x103 PUSH1 0x4 DUP1 CALLDATASIZE SUB DUP2 ADD SWAP1 PUSH2 0xFE SWAP2 SWAP1 PUSH2 0x108F JUMP JUMPDEST PUSH2 0x794 JUMP JUMPDEST PUSH1 0x40 MLOAD PUSH2 0x116 SWAP8 SWAP7 SWAP6 SWAP5 SWAP4 SWAP3 SWAP2 SWAP1 PUSH2 0x114D JUMP JUMPDEST PUSH1 0x40 MLOAD DUP1 SWAP2 SUB SWAP1 RETURN JUMPDEST PUSH2 0x139 PUSH1 0x4 DUP1 CALLDATASIZE SUB DUP2 ADD SWAP1 PUSH2 0x134 SWAP2 SWAP1 PUSH2 0x11CF JUMP JUMPDEST PUSH2 0x9EA JUMP JUMPDEST STOP JUMPDEST PUSH2 0x143 PUSH2 0xCEA JUMP JUMPDEST PUSH1 0x40 MLOAD PUSH2 0x150 SWAP2 SWAP1 PUSH2 0x12C6 JUMP JUMPDEST PUSH1 0x40 MLOAD DUP1 SWAP2 SUB SWAP1 RETURN JUMPDEST PUSH2 0x173 PUSH1 0x4 DUP1 CALLDATASIZE SUB DUP2 ADD SWAP1 PUSH2 0x16E SWAP2 SWAP1 PUSH2 0x108F JUMP JUMPDEST PUSH2 0xD0F JUMP JUMPDEST PUSH1 0x40 MLOAD PUSH2 0x180 SWAP2 SWAP1 PUSH2 0x144D JUMP JUMPDEST PUSH1 0x40 MLOAD DUP1 SWAP2 SUB SWAP1 RETURN JUMPDEST DUP2 PUSH1 0x2 PUSH0 DUP3 DUP2 MSTORE PUSH1 0x20 ADD SWAP1 DUP2 MSTORE PUSH1 0x20 ADD PUSH0 KECCAK256 PUSH1 0x8 ADD PUSH0 SWAP1 SLOAD SWAP1 PUSH2 0x100 EXP SWAP1 DIV PUSH1 0xFF AND PUSH2 0x1EA JUMPI PUSH1 0x40 MLOAD PUSH32 0x8C379A000000000000000000000000000000000000000000000000000000000 DUP2 MSTORE PUSH1 0x4 ADD PUSH2 0x1E1 SWAP1 PUSH2 0x14B7 JUMP JUMPDEST PUSH1 0x40 MLOAD DUP1 SWAP2 SUB SWAP1 REVERT JUMPDEST DUP3 PUSH1 0x2 PUSH0 DUP3 DUP2 MSTORE PUSH1 0x20 ADD SWAP1 DUP2 MSTORE PUSH1 0x20 ADD PUSH0 KECCAK256 PUSH1 0x1 ADD SLOAD TIMESTAMP LT PUSH2 0x241 JUMPI PUSH1 0x40 MLOAD PUSH32 0x8C379A000000000000000000000000000000000000000000000000000000000 DUP2 MSTORE PUSH1 0x4 ADD PUSH2 0x238 SWAP1 PUSH2 0x151F JUMP JUMPDEST PUSH1 0x40 MLOAD DUP1 SWAP2 SUB SWAP1 REVERT JUMPDEST DUP4 PUSH1 0x2 PUSH0 DUP3 DUP2 MSTORE PUSH1 0x20 ADD SWAP1 DUP2 MSTORE PUSH1 0x20 ADD PUSH0 KECCAK256 PUSH1 0x4 ADD PUSH0 CALLER PUSH20 0xFFFFFFFFFFFFFFFFFFFFFFFFFFFFFFFFFFFFFFFF AND PUSH20 0xFFFFFFFFFFFFFFFFFFFFFFFFFFFFFFFFFFFFFFFF AND DUP2 MSTORE PUSH1 0x20 ADD SWAP1 DUP2 MSTORE PUSH1 0x20 ADD PUSH0 KECCAK256 PUSH0 SWAP1 SLOAD SWAP1 PUSH2 0x100 EXP SWAP1 DIV PUSH1 0xFF AND ISZERO PUSH2 0x2DE JUMPI PUSH1 0x40 MLOAD PUSH32 0x8C379A000000000000000000000000000000000000000000000000000000000 DUP2 MSTORE PUSH1 0x4 ADD PUSH2 0x2D5 SWAP1 PUSH2 0x1587 JUMP JUMPDEST PUSH1 0x40 MLOAD DUP1 SWAP2 SUB SWAP1 REVERT JUMPDEST PUSH32 0x84E4F592E52DC6E339EBB9A3F379F4DCF988A1253042A8BA9F03099551864BF0 DUP5 PUSH1 0x40 MLOAD PUSH1 0x20 ADD PUSH2 0x310 SWAP2 SWAP1 PUSH2 0x15DF JUMP JUMPDEST PUSH1 0x40 MLOAD PUSH1 0x20 DUP2 DUP4 SUB SUB DUP2 MSTORE SWAP1 PUSH1 0x40 MSTORE DUP1 MLOAD SWAP1 PUSH1 0x20 ADD KECCAK256 EQ DUP1 PUSH2 0x377 JUMPI POP PUSH32 0x267AA6F4694EC65B4167A753966AD7F8F38D1152F8A81CCF0D941BD0680EB852 DUP5 PUSH1 0x40 MLOAD PUSH1 0x20 ADD PUSH2 0x35F SWAP2 SWAP1 PUSH2 0x15DF JUMP JUMPDEST PUSH1 0x40 MLOAD PUSH1 0x20 DUP2 DUP4 SUB SUB DUP2 MSTORE SWAP1 PUSH1 0x40 MSTORE DUP1 MLOAD SWAP1 PUSH1 0x20 ADD KECCAK256 EQ JUMPDEST DUP1 PUSH2 0x3C7 JUMPI POP PUSH32 0xEC909A09E1B13C18DED9F3BEADBAF9A4FB3E3F1FBD6CD0E0F273DD90B6D789A2 DUP5 PUSH1 0x40 MLOAD PUSH1 0x20 ADD PUSH2 0x3AF SWAP2 SWAP1 PUSH2 0x15DF JUMP JUMPDEST PUSH1 0x40 MLOAD PUSH1 0x20 DUP2 DUP4 SUB SUB DUP2 MSTORE SWAP1 PUSH1 0x40 MSTORE DUP1 MLOAD SWAP1 PUSH1 0x20 ADD KECCAK256 EQ JUMPDEST PUSH2 0x406 JUMPI PUSH1 0x40 MLOAD PUSH32 0x8C379A000000000000000000000000000000000000000000000000000000000 DUP2 MSTORE PUSH1 0x4 ADD PUSH2 0x3FD SWAP1 PUSH2 0x163F JUMP JUMPDEST PUSH1 0x40 MLOAD DUP1 SWAP2 SUB SWAP1 REVERT JUMPDEST PUSH32 0x84E4F592E52DC6E339EBB9A3F379F4DCF988A1253042A8BA9F03099551864BF0 DUP5 PUSH1 0x40 MLOAD PUSH1 0x20 ADD PUSH2 0x438 SWAP2 SWAP1 PUSH2 0x15DF JUMP JUMPDEST PUSH1 0x40 MLOAD PUSH1 0x20 DUP2 DUP4 SUB SUB DUP2 MSTORE SWAP1 PUSH1 0x40 MSTORE DUP1 MLOAD SWAP1 PUSH1 0x20 ADD KECCAK256 SUB PUSH2 0x481 JUMPI PUSH1 0x2 PUSH0 DUP7 DUP2 MSTORE PUSH1 0x20 ADD SWAP1 DUP2 MSTORE PUSH1 0x20 ADD PUSH0 KECCAK256 PUSH1 0x6 ADD PUSH0 DUP2 SLOAD DUP1 SWAP3 SWAP2 SWAP1 PUSH2 0x477 SWAP1 PUSH2 0x168A JUMP JUMPDEST SWAP2 SWAP1 POP SSTORE POP PUSH2 0x575 JUMP JUMPDEST PUSH32 0x267AA6F4694EC65B4167A753966AD7F8F38D1152F8A81CCF0D941BD0680EB852 DUP5 PUSH1 0x40 MLOAD PUSH1 0x20 ADD PUSH2 0x4B3 SWAP2 SWAP1 PUSH2 0x15DF JUMP JUMPDEST PUSH1 0x40 MLOAD PUSH1 0x20 DUP2 DUP4 SUB SUB DUP2 MSTORE SWAP1 PUSH1 0x40 MSTORE DUP1 MLOAD SWAP1 PUSH1 0x20 ADD KECCAK256 SUB PUSH2 0x4FC JUMPI PUSH1 0x2 PUSH0 DUP7 DUP2 MSTORE PUSH1 0x20 ADD SWAP1 DUP2 MSTORE PUSH1 0x20 ADD PUSH0 KECCAK256 PUSH1 0x5 ADD PUSH0 DUP2 SLOAD DUP1 SWAP3 SWAP2 SWAP1 PUSH2 0x4F2 SWAP1 PUSH2 0x168A JUMP JUMPDEST SWAP2 SWAP1 POP SSTORE POP PUSH2 0x574 JUMP JUMPDEST PUSH32 0xEC909A09E1B13C18DED9F3BEADBAF9A4FB3E3F1FBD6CD0E0F273DD90B6D789A2 DUP5 PUSH1 0x40 MLOAD PUSH1 0x20 ADD PUSH2 0x52E SWAP2 SWAP1 PUSH2 0x15DF JUMP JUMPDEST PUSH1 0x40 MLOAD PUSH1 0x20 DUP2 DUP4 SUB SUB DUP2 MSTORE SWAP1 PUSH1 0x40 MSTORE DUP1 MLOAD SWAP1 PUSH1 0x20 ADD KECCAK256 SUB PUSH2 0x573 JUMPI PUSH1 0x2 PUSH0 DUP7 DUP2 MSTORE PUSH1 0x20 ADD SWAP1 DUP2 MSTORE PUSH1 0x20 ADD PUSH0 KECCAK256 PUSH1 0x7 ADD PUSH0 DUP2 SLOAD DUP1 SWAP3 SWAP2 SWAP1 PUSH2 0x56D SWAP1 PUSH2 0x168A JUMP JUMPDEST SWAP2 SWAP1 POP SSTORE POP JUMPDEST JUMPDEST JUMPDEST PUSH1 0x1 PUSH1 0x2 PUSH0 DUP8 DUP2 MSTORE PUSH1 0x20 ADD SWAP1 DUP2 MSTORE PUSH1 0x20 ADD PUSH0 KECCAK256 PUSH1 0x4 ADD PUSH0 CALLER PUSH20 0xFFFFFFFFFFFFFFFFFFFFFFFFFFFFFFFFFFFFFFFF AND PUSH20 0xFFFFFFFFFFFFFFFFFFFFFFFFFFFFFFFFFFFFFFFF AND DUP2 MSTORE PUSH1 0x20 ADD SWAP1 DUP2 MSTORE PUSH1 0x20 ADD PUSH0 KECCAK256 PUSH0 PUSH2 0x100 EXP DUP2 SLOAD DUP2 PUSH1 0xFF MUL NOT AND SWAP1 DUP4 ISZERO ISZERO MUL OR SWAP1 SSTORE POP PUSH1 0x3 PUSH0 CALLER PUSH20 0xFFFFFFFFFFFFFFFFFFFFFFFFFFFFFFFFFFFFFFFF AND PUSH20 0xFFFFFFFFFFFFFFFFFFFFFFFFFFFFFFFFFFFFFFFF AND DUP2 MSTORE PUSH1 0x20 ADD SWAP1 DUP2 MSTORE PUSH1 0x20 ADD PUSH0 KECCAK256 DUP6 SWAP1 DUP1 PUSH1 0x1 DUP2 SLOAD ADD DUP1 DUP3 SSTORE DUP1 SWAP2 POP POP PUSH1 0x1 SWAP1 SUB SWAP1 PUSH0 MSTORE PUSH1 0x20 PUSH0 KECCAK256 ADD PUSH0 SWAP1 SWAP2 SWAP1 SWAP2 SWAP1 SWAP2 POP SSTORE PUSH0 PUSH1 0x40 MLOAD DUP1 PUSH1 0x60 ADD PUSH1 0x40 MSTORE DUP1 CALLER PUSH20 0xFFFFFFFFFFFFFFFFFFFFFFFFFFFFFFFFFFFFFFFF AND DUP2 MSTORE PUSH1 0x20 ADD DUP7 DUP2 MSTORE PUSH1 0x20 ADD TIMESTAMP DUP2 MSTORE POP SWAP1 POP PUSH1 0x2 PUSH0 DUP8 DUP2 MSTORE PUSH1 0x20 ADD SWAP1 DUP2 MSTORE PUSH1 0x20 ADD PUSH0 KECCAK256 PUSH1 0x9 ADD DUP2 SWAP1 DUP1 PUSH1 0x1 DUP2 SLOAD ADD DUP1 DUP3 SSTORE DUP1 SWAP2 POP POP PUSH1 0x1 SWAP1 SUB SWAP1 PUSH0 MSTORE PUSH1 0x20 PUSH0 KECCAK256 SWAP1 PUSH1 0x3 MUL ADD PUSH0 SWAP1 SWAP2 SWAP1 SWAP2 SWAP1 SWAP2 POP PUSH0 DUP3 ADD MLOAD DUP2 PUSH0 ADD PUSH0 PUSH2 0x100 EXP DUP2 SLOAD DUP2 PUSH20 0xFFFFFFFFFFFFFFFFFFFFFFFFFFFFFFFFFFFFFFFF MUL NOT AND SWAP1 DUP4 PUSH20 0xFFFFFFFFFFFFFFFFFFFFFFFFFFFFFFFFFFFFFFFF AND MUL OR SWAP1 SSTORE POP PUSH1 0x20 DUP3 ADD MLOAD DUP2 PUSH1 0x1 ADD SWAP1 DUP2 PUSH2 0x705 SWAP2 SWAP1 PUSH2 0x18CB JUMP JUMPDEST POP PUSH1 0x40 DUP3 ADD MLOAD DUP2 PUSH1 0x2 ADD SSTORE POP POP CALLER PUSH20 0xFFFFFFFFFFFFFFFFFFFFFFFFFFFFFFFFFFFFFFFF AND DUP7 PUSH32 0x3AE89EC44D6750209E1164A2659A766E3CFE3476E908A19CB5E928974EF5E4EC DUP8 TIMESTAMP PUSH1 0x40 MLOAD PUSH2 0x75B SWAP3 SWAP2 SWAP1 PUSH2 0x199A JUMP JUMPDEST PUSH1 0x40 MLOAD DUP1 SWAP2 SUB SWAP1 LOG3 POP POP POP POP POP POP JUMP JUMPDEST PUSH0 DUP1 PUSH0 ADD SLOAD SWAP1 POP DUP2 JUMP JUMPDEST PUSH0 PUSH1 0x2 PUSH0 DUP4 DUP2 MSTORE PUSH1 0x20 ADD SWAP1 DUP2 MSTORE PUSH1 0x20 ADD PUSH0 KECCAK256 PUSH1 0x1 ADD SLOAD TIMESTAMP LT SWAP1 POP SWAP2 SWAP1 POP JUMP JUMPDEST PUSH1 0x60 PUSH0 PUSH1 0x60 DUP1 PUSH0 DUP1 PUSH0 DUP8 PUSH1 0x2 PUSH0 DUP3 DUP2 MSTORE PUSH1 0x20 ADD SWAP1 DUP2 MSTORE PUSH1 0x20 ADD PUSH0 KECCAK256 PUSH1 0x8 ADD PUSH0 SWAP1 SLOAD SWAP1 PUSH2 0x100 EXP SWAP1 DIV PUSH1 0xFF AND PUSH2 0x7FE JUMPI PUSH1 0x40 MLOAD PUSH32 0x8C379A000000000000000000000000000000000000000000000000000000000 DUP2 MSTORE PUSH1 0x4 ADD PUSH2 0x7F5 SWAP1 PUSH2 0x14B7 JUMP JUMPDEST PUSH1 0x40 MLOAD DUP1 SWAP2 SUB SWAP1 REVERT JUMPDEST PUSH0 PUSH1 0x2 PUSH0 DUP12 DUP2 MSTORE PUSH1 0x20 ADD SWAP1 DUP2 MSTORE PUSH1 0x20 ADD PUSH0 KECCAK256 SWAP1 POP DUP1 PUSH0 ADD DUP2 PUSH1 0x1 ADD SLOAD DUP3 PUSH1 0x2 ADD DUP4 PUSH1 0x3 ADD DUP5 PUSH1 0x5 ADD SLOAD DUP6 PUSH1 0x6 ADD SLOAD DUP7 PUSH1 0x7 ADD SLOAD DUP7 DUP1 SLOAD PUSH2 0x83D SWAP1 PUSH2 0x16FE JUMP JUMPDEST DUP1 PUSH1 0x1F ADD PUSH1 0x20 DUP1 SWAP2 DIV MUL PUSH1 0x20 ADD PUSH1 0x40 MLOAD SWAP1 DUP2 ADD PUSH1 0x40 MSTORE DUP1 SWAP3 SWAP2 SWAP1 DUP2 DUP2 MSTORE PUSH1 0x20 ADD DUP3 DUP1 SLOAD PUSH2 0x869 SWAP1 PUSH2 0x16FE JUMP JUMPDEST DUP1 ISZERO PUSH2 0x8B4 JUMPI DUP1 PUSH1 0x1F LT PUSH2 0x88B JUMPI PUSH2 0x100 DUP1 DUP4 SLOAD DIV MUL DUP4 MSTORE SWAP2 PUSH1 0x20 ADD SWAP2 PUSH2 0x8B4 JUMP JUMPDEST DUP3 ADD SWAP2 SWAP1 PUSH0 MSTORE PUSH1 0x20 PUSH0 KECCAK256 SWAP1 JUMPDEST DUP2 SLOAD DUP2 MSTORE SWAP1 PUSH1 0x1 ADD SWAP1 PUSH1 0x20 ADD DUP1 DUP4 GT PUSH2 0x897 JUMPI DUP3 SWAP1 SUB PUSH1 0x1F AND DUP3 ADD SWAP2 JUMPDEST POP POP POP POP POP SWAP7 POP DUP5 DUP1 SLOAD PUSH2 0x8C7 SWAP1 PUSH2 0x16FE JUMP JUMPDEST DUP1 PUSH1 0x1F ADD PUSH1 0x20 DUP1 SWAP2 DIV MUL PUSH1 0x20 ADD PUSH1 0x40 MLOAD SWAP1 DUP2 ADD PUSH1 0x40 MSTORE DUP1 SWAP3 SWAP2 SWAP1 DUP2 DUP2 MSTORE PUSH1 0x20 ADD DUP3 DUP1 SLOAD PUSH2 0x8F3 SWAP1 PUSH2 0x16FE JUMP JUMPDEST DUP1 ISZERO PUSH2 0x93E JUMPI DUP1 PUSH1 0x1F LT PUSH2 0x915 JUMPI PUSH2 0x100 DUP1 DUP4 SLOAD DIV MUL DUP4 MSTORE SWAP2 PUSH1 0x20 ADD SWAP2 PUSH2 0x93E JUMP JUMPDEST DUP3 ADD SWAP2 SWAP1 PUSH0 MSTORE PUSH1 0x20 PUSH0 KECCAK256 SWAP1 JUMPDEST DUP2 SLOAD DUP2 MSTORE SWAP1 PUSH1 0x1 ADD SWAP1 PUSH1 0x20 ADD DUP1 DUP4 GT PUSH2 0x921 JUMPI DUP3 SWAP1 SUB PUSH1 0x1F AND DUP3 ADD SWAP2 JUMPDEST POP POP POP POP POP SWAP5 POP DUP4 DUP1 SLOAD PUSH2 0x951 SWAP1 PUSH2 0x16FE JUMP JUMPDEST DUP1 PUSH1 0x1F ADD PUSH1 0x20 DUP1 SWAP2 DIV MUL PUSH1 0x20 ADD PUSH1 0x40 MLOAD SWAP1 DUP2 ADD PUSH1 0x40 MSTORE DUP1 SWAP3 SWAP2 SWAP1 DUP2 DUP2 MSTORE PUSH1 0x20 ADD DUP3 DUP1 SLOAD PUSH2 0x97D SWAP1 PUSH2 0x16FE JUMP JUMPDEST DUP1 ISZERO PUSH2 0x9C8 JUMPI DUP1 PUSH1 0x1F LT PUSH2 0x99F JUMPI PUSH2 0x100 DUP1 DUP4 SLOAD DIV MUL DUP4 MSTORE SWAP2 PUSH1 0x20 ADD SWAP2 PUSH2 0x9C8 JUMP JUMPDEST DUP3 ADD SWAP2 SWAP1 PUSH0 MSTORE PUSH1 0x20 PUSH0 KECCAK256 SWAP1 JUMPDEST DUP2 SLOAD DUP2 MSTORE SWAP1 PUSH1 0x1 ADD SWAP1 PUSH1 0x20 ADD DUP1 DUP4 GT PUSH2 0x9AB JUMPI DUP3 SWAP1 SUB PUSH1 0x1F AND DUP3 ADD SWAP2 JUMPDEST POP POP POP POP POP SWAP4 POP SWAP9 POP SWAP9 POP SWAP9 POP SWAP9 POP SWAP9 POP SWAP9 POP SWAP9 POP POP POP SWAP2 SWAP4 SWAP6 SWAP8 SWAP1 SWAP3 SWAP5 SWAP7 POP JUMP JUMPDEST PUSH1 0x1 PUSH0 SWAP1 SLOAD SWAP1 PUSH2 0x100 EXP SWAP1 DIV PUSH20 0xFFFFFFFFFFFFFFFFFFFFFFFFFFFFFFFFFFFFFFFF AND PUSH20 0xFFFFFFFFFFFFFFFFFFFFFFFFFFFFFFFFFFFFFFFF AND CALLER PUSH20 0xFFFFFFFFFFFFFFFFFFFFFFFFFFFFFFFFFFFFFFFF AND EQ PUSH2 0xA79 JUMPI PUSH1 0x40 MLOAD PUSH32 0x8C379A000000000000000000000000000000000000000000000000000000000 DUP2 MSTORE PUSH1 0x4 ADD PUSH2 0xA70 SWAP1 PUSH2 0x1A38 JUMP JUMPDEST PUSH1 0x40 MLOAD DUP1 SWAP2 SUB SWAP1 REVERT JUMPDEST PUSH0 DUP4 GT PUSH2 0xABB JUMPI PUSH1 0x40 MLOAD PUSH32 0x8C379A000000000000000000000000000000000000000000000000000000000 DUP2 MSTORE PUSH1 0x4 ADD PUSH2 0xAB2 SWAP1 PUSH2 0x1AA0 JUMP JUMPDEST PUSH1 0x40 MLOAD DUP1 SWAP2 SUB SWAP1 REVERT JUMPDEST PUSH1 0x3 DUP5 MLOAD GT PUSH2 0xAFF JUMPI PUSH1 0x40 MLOAD PUSH32 0x8C379A000000000000000000000000000000000000000000000000000000000 DUP2 MSTORE PUSH1 0x4 ADD PUSH2 0xAF6 SWAP1 PUSH2 0x1B08 JUMP JUMPDEST PUSH1 0x40 MLOAD DUP1 SWAP2 SUB SWAP1 REVERT JUMPDEST PUSH1 0x3 DUP3 MLOAD GT PUSH2 0xB43 JUMPI PUSH1 0x40 MLOAD PUSH32 0x8C379A000000000000000000000000000000000000000000000000000000000 DUP2 MSTORE PUSH1 0x4 ADD PUSH2 0xB3A SWAP1 PUSH2 0x1B96 JUMP JUMPDEST PUSH1 0x40 MLOAD DUP1 SWAP2 SUB SWAP1 REVERT JUMPDEST PUSH1 0x3 DUP2 MLOAD GT PUSH2 0xB87 JUMPI PUSH1 0x40 MLOAD PUSH32 0x8C379A000000000000000000000000000000000000000000000000000000000 DUP2 MSTORE PUSH1 0x4 ADD PUSH2 0xB7E SWAP1 PUSH2 0x1C24 JUMP JUMPDEST PUSH1 0x40 MLOAD DUP1 SWAP2 SUB SWAP1 REVERT JUMPDEST PUSH2 0xB90 PUSH0 PUSH2 0xE6D JUMP JUMPDEST PUSH0 PUSH2 0xB9A PUSH0 PUSH2 0xE81 JUMP JUMPDEST SWAP1 POP DUP5 PUSH1 0x2 PUSH0 DUP4 DUP2 MSTORE PUSH1 0x20 ADD SWAP1 DUP2 MSTORE PUSH1 0x20 ADD PUSH0 KECCAK256 PUSH0 ADD SWAP1 DUP2 PUSH2 0xBBC SWAP2 SWAP1 PUSH2 0x18CB JUMP JUMPDEST POP DUP2 PUSH1 0x2 PUSH0 DUP4 DUP2 MSTORE PUSH1 0x20 ADD SWAP1 DUP2 MSTORE PUSH1 0x20 ADD PUSH0 KECCAK256 PUSH1 0x3 ADD SWAP1 DUP2 PUSH2 0xBDE SWAP2 SWAP1 PUSH2 0x18CB JUMP JUMPDEST POP DUP4 TIMESTAMP PUSH2 0xBEB SWAP2 SWAP1 PUSH2 0x1C42 JUMP JUMPDEST PUSH1 0x2 PUSH0 DUP4 DUP2 MSTORE PUSH1 0x20 ADD SWAP1 DUP2 MSTORE PUSH1 0x20 ADD PUSH0 KECCAK256 PUSH1 0x1 ADD DUP2 SWAP1 SSTORE POP DUP3 PUSH1 0x2 PUSH0 DUP4 DUP2 MSTORE PUSH1 0x20 ADD SWAP1 DUP2 MSTORE PUSH1 0x20 ADD PUSH0 KECCAK256 PUSH1 0x2 ADD SWAP1 DUP2 PUSH2 0xC24 SWAP2 SWAP1 PUSH2 0x18CB JUMP JUMPDEST POP PUSH0 PUSH1 0x2 PUSH0 DUP4 DUP2 MSTORE PUSH1 0x20 ADD SWAP1 DUP2 MSTORE PUSH1 0x20 ADD PUSH0 KECCAK256 PUSH1 0x5 ADD DUP2 SWAP1 SSTORE POP PUSH0 PUSH1 0x2 PUSH0 DUP4 DUP2 MSTORE PUSH1 0x20 ADD SWAP1 DUP2 MSTORE PUSH1 0x20 ADD PUSH0 KECCAK256 PUSH1 0x6 ADD DUP2 SWAP1 SSTORE POP PUSH0 PUSH1 0x2 PUSH0 DUP4 DUP2 MSTORE PUSH1 0x20 ADD SWAP1 DUP2 MSTORE PUSH1 0x20 ADD PUSH0 KECCAK256 PUSH1 0x7 ADD DUP2 SWAP1 SSTORE POP PUSH1 0x1 PUSH1 0x2 PUSH0 DUP4 DUP2 MSTORE PUSH1 0x20 ADD SWAP1 DUP2 MSTORE PUSH1 0x20 ADD PUSH0 KECCAK256 PUSH1 0x8 ADD PUSH0 PUSH2 0x100 EXP DUP2 SLOAD DUP2 PUSH1 0xFF MUL NOT AND SWAP1 DUP4 ISZERO ISZERO MUL OR SWAP1 SSTORE POP DUP1 PUSH32 0xC12ED8D302FF006DB51C496D9DC9F900FFC6F4D54F461EB0CD812B0A08B80804 DUP7 DUP7 TIMESTAMP PUSH2 0xCCB SWAP2 SWAP1 PUSH2 0x1C42 JUMP JUMPDEST TIMESTAMP PUSH1 0x40 MLOAD PUSH2 0xCDB SWAP4 SWAP3 SWAP2 SWAP1 PUSH2 0x1C75 JUMP JUMPDEST PUSH1 0x40 MLOAD DUP1 SWAP2 SUB SWAP1 LOG2 POP POP POP POP POP JUMP JUMPDEST PUSH1 0x1 PUSH0 SWAP1 SLOAD SWAP1 PUSH2 0x100 EXP SWAP1 DIV PUSH20 0xFFFFFFFFFFFFFFFFFFFFFFFFFFFFFFFFFFFFFFFF AND DUP2 JUMP JUMPDEST PUSH1 0x60 PUSH1 0x2 PUSH0 DUP4 DUP2 MSTORE PUSH1 0x20 ADD SWAP1 DUP2 MSTORE PUSH1 0x20 ADD PUSH0 KECCAK256 PUSH1 0x9 ADD DUP1 SLOAD DUP1 PUSH1 0x20 MUL PUSH1 0x20 ADD PUSH1 0x40 MLOAD SWAP1 DUP2 ADD PUSH1 0x40 MSTORE DUP1 SWAP3 SWAP2 SWAP1 DUP2 DUP2 MSTORE PUSH1 0x20 ADD PUSH0 SWAP1 JUMPDEST DUP3 DUP3 LT ISZERO PUSH2 0xE62 JUMPI DUP4 DUP3 SWAP1 PUSH0 MSTORE PUSH1 0x20 PUSH0 KECCAK256 SWAP1 PUSH1 0x3 MUL ADD PUSH1 0x40 MLOAD DUP1 PUSH1 0x60 ADD PUSH1 0x40 MSTORE SWAP1 DUP2 PUSH0 DUP3 ADD PUSH0 SWAP1 SLOAD SWAP1 PUSH2 0x100 EXP SWAP1 DIV PUSH20 0xFFFFFFFFFFFFFFFFFFFFFFFFFFFFFFFFFFFFFFFF AND PUSH20 0xFFFFFFFFFFFFFFFFFFFFFFFFFFFFFFFFFFFFFFFF AND PUSH20 0xFFFFFFFFFFFFFFFFFFFFFFFFFFFFFFFFFFFFFFFF AND DUP2 MSTORE PUSH1 0x20 ADD PUSH1 0x1 DUP3 ADD DUP1 SLOAD PUSH2 0xDC9 SWAP1 PUSH2 0x16FE JUMP JUMPDEST DUP1 PUSH1 0x1F ADD PUSH1 0x20 DUP1 SWAP2 DIV MUL PUSH1 0x20 ADD PUSH1 0x40 MLOAD SWAP1 DUP2 ADD PUSH1 0x40 MSTORE DUP1 SWAP3 SWAP2 SWAP1 DUP2 DUP2 MSTORE PUSH1 0x20 ADD DUP3 DUP1 SLOAD PUSH2 0xDF5 SWAP1 PUSH2 0x16FE JUMP JUMPDEST DUP1 ISZERO PUSH2 0xE40 JUMPI DUP1 PUSH1 0x1F LT PUSH2 0xE17 JUMPI PUSH2 0x100 DUP1 DUP4 SLOAD DIV MUL DUP4 MSTORE SWAP2 PUSH1 0x20 ADD SWAP2 PUSH2 0xE40 JUMP JUMPDEST DUP3 ADD SWAP2 SWAP1 PUSH0 MSTORE PUSH1 0x20 PUSH0 KECCAK256 SWAP1 JUMPDEST DUP2 SLOAD DUP2 MSTORE SWAP1 PUSH1 0x1 ADD SWAP1 PUSH1 0x20 ADD DUP1 DUP4 GT PUSH2 0xE23 JUMPI DUP3 SWAP1 SUB PUSH1 0x1F AND DUP3 ADD SWAP2 JUMPDEST POP POP POP POP POP DUP2 MSTORE PUSH1 0x20 ADD PUSH1 0x2 DUP3 ADD SLOAD DUP2 MSTORE POP POP DUP2 MSTORE PUSH1 0x20 ADD SWAP1 PUSH1 0x1 ADD SWAP1 PUSH2 0xD44 JUMP JUMPDEST POP POP POP POP SWAP1 POP SWAP2 SWAP1 POP JUMP JUMPDEST PUSH1 0x1 DUP2 PUSH0 ADD PUSH0 DUP3 DUP3 SLOAD ADD SWAP3 POP POP DUP2 SWAP1 SSTORE POP POP JUMP JUMPDEST PUSH0 DUP2 PUSH0 ADD SLOAD SWAP1 POP SWAP2 SWAP1 POP JUMP JUMPDEST PUSH0 PUSH1 0x40 MLOAD SWAP1 POP SWAP1 JUMP JUMPDEST PUSH0 DUP1 REVERT JUMPDEST PUSH0 DUP1 REVERT JUMPDEST PUSH0 DUP2 SWAP1 POP SWAP2 SWAP1 POP JUMP JUMPDEST PUSH2 0xEB0 DUP2 PUSH2 0xE9E JUMP JUMPDEST DUP2 EQ PUSH2 0xEBA JUMPI PUSH0 DUP1 REVERT JUMPDEST POP JUMP JUMPDEST PUSH0 DUP2 CALLDATALOAD SWAP1 POP PUSH2 0xECB DUP2 PUSH2 0xEA7 JUMP JUMPDEST SWAP3 SWAP2 POP POP JUMP JUMPDEST PUSH0 DUP1 REVERT JUMPDEST PUSH0 DUP1 REVERT JUMPDEST PUSH0 PUSH1 0x1F NOT PUSH1 0x1F DUP4 ADD AND SWAP1 POP SWAP2 SWAP1 POP JUMP JUMPDEST PUSH32 0x4E487B7100000000000000000000000000000000000000000000000000000000 PUSH0 MSTORE PUSH1 0x41 PUSH1 0x4 MSTORE PUSH1 0x24 PUSH0 REVERT JUMPDEST PUSH2 0xF1F DUP3 PUSH2 0xED9 JUMP JUMPDEST DUP2 ADD DUP2 DUP2 LT PUSH8 0xFFFFFFFFFFFFFFFF DUP3 GT OR ISZERO PUSH2 0xF3E JUMPI PUSH2 0xF3D PUSH2 0xEE9 JUMP JUMPDEST JUMPDEST DUP1 PUSH1 0x40 MSTORE POP POP POP JUMP JUMPDEST PUSH0 PUSH2 0xF50 PUSH2 0xE8D JUMP JUMPDEST SWAP1 POP PUSH2 0xF5C DUP3 DUP3 PUSH2 0xF16 JUMP JUMPDEST SWAP2 SWAP1 POP JUMP JUMPDEST PUSH0 PUSH8 0xFFFFFFFFFFFFFFFF DUP3 GT ISZERO PUSH2 0xF7B JUMPI PUSH2 0xF7A PUSH2 0xEE9 JUMP JUMPDEST JUMPDEST PUSH2 0xF84 DUP3 PUSH2 0xED9 JUMP JUMPDEST SWAP1 POP PUSH1 0x20 DUP2 ADD SWAP1 POP SWAP2 SWAP1 POP JUMP JUMPDEST DUP3 DUP2 DUP4 CALLDATACOPY PUSH0 DUP4 DUP4 ADD MSTORE POP POP POP JUMP JUMPDEST PUSH0 PUSH2 0xFB1 PUSH2 0xFAC DUP5 PUSH2 0xF61 JUMP JUMPDEST PUSH2 0xF47 JUMP JUMPDEST SWAP1 POP DUP3 DUP2 MSTORE PUSH1 0x20 DUP2 ADD DUP5 DUP5 DUP5 ADD GT ISZERO PUSH2 0xFCD JUMPI PUSH2 0xFCC PUSH2 0xED5 JUMP JUMPDEST JUMPDEST PUSH2 0xFD8 DUP5 DUP3 DUP6 PUSH2 0xF91 JUMP JUMPDEST POP SWAP4 SWAP3 POP POP POP JUMP JUMPDEST PUSH0 DUP3 PUSH1 0x1F DUP4 ADD SLT PUSH2 0xFF4 JUMPI PUSH2 0xFF3 PUSH2 0xED1 JUMP JUMPDEST JUMPDEST DUP2 CALLDATALOAD PUSH2 0x1004 DUP5 DUP3 PUSH1 0x20 DUP7 ADD PUSH2 0xF9F JUMP JUMPDEST SWAP2 POP POP SWAP3 SWAP2 POP POP JUMP JUMPDEST PUSH0 DUP1 PUSH1 0x40 DUP4 DUP6 SUB SLT ISZERO PUSH2 0x1023 JUMPI PUSH2 0x1022 PUSH2 0xE96 JUMP JUMPDEST JUMPDEST PUSH0 PUSH2 0x1030 DUP6 DUP3 DUP7 ADD PUSH2 0xEBD JUMP JUMPDEST SWAP3 POP POP PUSH1 0x20 DUP4 ADD CALLDATALOAD PUSH8 0xFFFFFFFFFFFFFFFF DUP2 GT ISZERO PUSH2 0x1051 JUMPI PUSH2 0x1050 PUSH2 0xE9A JUMP JUMPDEST JUMPDEST PUSH2 0x105D DUP6 DUP3 DUP7 ADD PUSH2 0xFE0 JUMP JUMPDEST SWAP2 POP POP SWAP3 POP SWAP3 SWAP1 POP JUMP JUMPDEST PUSH2 0x1070 DUP2 PUSH2 0xE9E JUMP JUMPDEST DUP3 MSTORE POP POP JUMP JUMPDEST PUSH0 PUSH1 0x20 DUP3 ADD SWAP1 POP PUSH2 0x1089 PUSH0 DUP4 ADD DUP5 PUSH2 0x1067 JUMP JUMPDEST SWAP3 SWAP2 POP POP JUMP JUMPDEST PUSH0 PUSH1 0x20 DUP3 DUP5 SUB SLT ISZERO PUSH2 0x10A4 JUMPI PUSH2 0x10A3 PUSH2 0xE96 JUMP JUMPDEST JUMPDEST PUSH0 PUSH2 0x10B1 DUP5 DUP3 DUP6 ADD PUSH2 0xEBD JUMP JUMPDEST SWAP2 POP POP SWAP3 SWAP2 POP POP JUMP JUMPDEST PUSH0 DUP2 ISZERO ISZERO SWAP1 POP SWAP2 SWAP1 POP JUMP JUMPDEST PUSH2 0x10CE DUP2 PUSH2 0x10BA JUMP JUMPDEST DUP3 MSTORE POP POP JUMP JUMPDEST PUSH0 PUSH1 0x20 DUP3 ADD SWAP1 POP PUSH2 0x10E7 PUSH0 DUP4 ADD DUP5 PUSH2 0x10C5 JUMP JUMPDEST SWAP3 SWAP2 POP POP JUMP JUMPDEST PUSH0 DUP2 MLOAD SWAP1 POP SWAP2 SWAP1 POP JUMP JUMPDEST PUSH0 DUP3 DUP3 MSTORE PUSH1 0x20 DUP3 ADD SWAP1 POP SWAP3 SWAP2 POP POP JUMP JUMPDEST DUP3 DUP2 DUP4 MCOPY PUSH0 DUP4 DUP4 ADD MSTORE POP POP POP JUMP JUMPDEST PUSH0 PUSH2 0x111F DUP3 PUSH2 0x10ED JUMP JUMPDEST PUSH2 0x1129 DUP2 DUP6 PUSH2 0x10F7 JUMP JUMPDEST SWAP4 POP PUSH2 0x1139 DUP2 DUP6 PUSH1 0x20 DUP7 ADD PUSH2 0x1107 JUMP JUMPDEST PUSH2 0x1142 DUP2 PUSH2 0xED9 JUMP JUMPDEST DUP5 ADD SWAP2 POP POP SWAP3 SWAP2 POP POP JUMP JUMPDEST PUSH0 PUSH1 0xE0 DUP3 ADD SWAP1 POP DUP2 DUP2 SUB PUSH0 DUP4 ADD MSTORE PUSH2 0x1165 DUP2 DUP11 PUSH2 0x1115 JUMP JUMPDEST SWAP1 POP PUSH2 0x1174 PUSH1 0x20 DUP4 ADD DUP10 PUSH2 0x1067 JUMP JUMPDEST DUP2 DUP2 SUB PUSH1 0x40 DUP4 ADD MSTORE PUSH2 0x1186 DUP2 DUP9 PUSH2 0x1115 JUMP JUMPDEST SWAP1 POP DUP2 DUP2 SUB PUSH1 0x60 DUP4 ADD MSTORE PUSH2 0x119A DUP2 DUP8 PUSH2 0x1115 JUMP JUMPDEST SWAP1 POP PUSH2 0x11A9 PUSH1 0x80 DUP4 ADD DUP7 PUSH2 0x1067 JUMP JUMPDEST PUSH2 0x11B6 PUSH1 0xA0 DUP4 ADD DUP6 PUSH2 0x1067 JUMP JUMPDEST PUSH2 0x11C3 PUSH1 0xC0 DUP4 ADD DUP5 PUSH2 0x1067 JUMP JUMPDEST SWAP9 SWAP8 POP POP POP POP POP POP POP POP JUMP JUMPDEST PUSH0 DUP1 PUSH0 DUP1 PUSH1 0x80 DUP6 DUP8 SUB SLT ISZERO PUSH2 0x11E7 JUMPI PUSH2 0x11E6 PUSH2 0xE96 JUMP JUMPDEST JUMPDEST PUSH0 DUP6 ADD CALLDATALOAD PUSH8 0xFFFFFFFFFFFFFFFF DUP2 GT ISZERO PUSH2 0x1204 JUMPI PUSH2 0x1203 PUSH2 0xE9A JUMP JUMPDEST JUMPDEST PUSH2 0x1210 DUP8 DUP3 DUP9 ADD PUSH2 0xFE0 JUMP JUMPDEST SWAP5 POP POP PUSH1 0x20 PUSH2 0x1221 DUP8 DUP3 DUP9 ADD PUSH2 0xEBD JUMP JUMPDEST SWAP4 POP POP PUSH1 0x40 DUP6 ADD CALLDATALOAD PUSH8 0xFFFFFFFFFFFFFFFF DUP2 GT ISZERO PUSH2 0x1242 JUMPI PUSH2 0x1241 PUSH2 0xE9A JUMP JUMPDEST JUMPDEST PUSH2 0x124E DUP8 DUP3 DUP9 ADD PUSH2 0xFE0 JUMP JUMPDEST SWAP3 POP POP PUSH1 0x60 DUP6 ADD CALLDATALOAD PUSH8 0xFFFFFFFFFFFFFFFF DUP2 GT ISZERO PUSH2 0x126F JUMPI PUSH2 0x126E PUSH2 0xE9A JUMP JUMPDEST JUMPDEST PUSH2 0x127B DUP8 DUP3 DUP9 ADD PUSH2 0xFE0 JUMP JUMPDEST SWAP2 POP POP SWAP3 SWAP6 SWAP2 SWAP5 POP SWAP3 POP JUMP JUMPDEST PUSH0 PUSH20 0xFFFFFFFFFFFFFFFFFFFFFFFFFFFFFFFFFFFFFFFF DUP3 AND SWAP1 POP SWAP2 SWAP1 POP JUMP JUMPDEST PUSH0 PUSH2 0x12B0 DUP3 PUSH2 0x1287 JUMP JUMPDEST SWAP1 POP SWAP2 SWAP1 POP JUMP JUMPDEST PUSH2 0x12C0 DUP2 PUSH2 0x12A6 JUMP JUMPDEST DUP3 MSTORE POP POP JUMP JUMPDEST PUSH0 PUSH1 0x20 DUP3 ADD SWAP1 POP PUSH2 0x12D9 PUSH0 DUP4 ADD DUP5 PUSH2 0x12B7 JUMP JUMPDEST SWAP3 SWAP2 POP POP JUMP JUMPDEST PUSH0 DUP2 MLOAD SWAP1 POP SWAP2 SWAP1 POP JUMP JUMPDEST PUSH0 DUP3 DUP3 MSTORE PUSH1 0x20 DUP3 ADD SWAP1 POP SWAP3 SWAP2 POP POP JUMP JUMPDEST PUSH0 DUP2 SWAP1 POP PUSH1 0x20 DUP3 ADD SWAP1 POP SWAP2 SWAP1 POP JUMP JUMPDEST PUSH2 0x1311 DUP2 PUSH2 0x12A6 JUMP JUMPDEST DUP3 MSTORE POP POP JUMP JUMPDEST PUSH0 DUP3 DUP3 MSTORE PUSH1 0x20 DUP3 ADD SWAP1 POP SWAP3 SWAP2 POP POP JUMP JUMPDEST PUSH0 PUSH2 0x1331 DUP3 PUSH2 0x10ED JUMP JUMPDEST PUSH2 0x133B DUP2 DUP6 PUSH2 0x1317 JUMP JUMPDEST SWAP4 POP PUSH2 0x134B DUP2 DUP6 PUSH1 0x20 DUP7 ADD PUSH2 0x1107 JUMP JUMPDEST PUSH2 0x1354 DUP2 PUSH2 0xED9 JUMP JUMPDEST DUP5 ADD SWAP2 POP POP SWAP3 SWAP2 POP POP JUMP JUMPDEST PUSH2 0x1368 DUP2 PUSH2 0xE9E JUMP JUMPDEST DUP3 MSTORE POP POP JUMP JUMPDEST PUSH0 PUSH1 0x60 DUP4 ADD PUSH0 DUP4 ADD MLOAD PUSH2 0x1383 PUSH0 DUP7 ADD DUP3 PUSH2 0x1308 JUMP JUMPDEST POP PUSH1 0x20 DUP4 ADD MLOAD DUP5 DUP3 SUB PUSH1 0x20 DUP7 ADD MSTORE PUSH2 0x139B DUP3 DUP3 PUSH2 0x1327 JUMP JUMPDEST SWAP2 POP POP PUSH1 0x40 DUP4 ADD MLOAD PUSH2 0x13B0 PUSH1 0x40 DUP7 ADD DUP3 PUSH2 0x135F JUMP JUMPDEST POP DUP1 SWAP2 POP POP SWAP3 SWAP2 POP POP JUMP JUMPDEST PUSH0 PUSH2 0x13C6 DUP4 DUP4 PUSH2 0x136E JUMP JUMPDEST SWAP1 POP SWAP3 SWAP2 POP POP JUMP JUMPDEST PUSH0 PUSH1 0x20 DUP3 ADD SWAP1 POP SWAP2 SWAP1 POP JUMP JUMPDEST PUSH0 PUSH2 0x13E4 DUP3 PUSH2 0x12DF JUMP JUMPDEST PUSH2 0x13EE DUP2 DUP6 PUSH2 0x12E9 JUMP JUMPDEST SWAP4 POP DUP4 PUSH1 0x20 DUP3 MUL DUP6 ADD PUSH2 0x1400 DUP6 PUSH2 0x12F9 JUMP JUMPDEST DUP1 PUSH0 JUMPDEST DUP6 DUP2 LT ISZERO PUSH2 0x143B JUMPI DUP5 DUP5 SUB DUP10 MSTORE DUP2 MLOAD PUSH2 0x141C DUP6 DUP3 PUSH2 0x13BB JUMP JUMPDEST SWAP5 POP PUSH2 0x1427 DUP4 PUSH2 0x13CE JUMP JUMPDEST SWAP3 POP PUSH1 0x20 DUP11 ADD SWAP10 POP POP PUSH1 0x1 DUP2 ADD SWAP1 POP PUSH2 0x1403 JUMP JUMPDEST POP DUP3 SWAP8 POP DUP8 SWAP6 POP POP POP POP POP POP SWAP3 SWAP2 POP POP JUMP JUMPDEST PUSH0 PUSH1 0x20 DUP3 ADD SWAP1 POP DUP2 DUP2 SUB PUSH0 DUP4 ADD MSTORE PUSH2 0x1465 DUP2 DUP5 PUSH2 0x13DA JUMP JUMPDEST SWAP1 POP SWAP3 SWAP2 POP POP JUMP JUMPDEST PUSH32 0x506F6C6C696E6720646F7365206E6F7420657869737400000000000000000000 PUSH0 DUP3 ADD MSTORE POP JUMP JUMPDEST PUSH0 PUSH2 0x14A1 PUSH1 0x16 DUP4 PUSH2 0x10F7 JUMP JUMPDEST SWAP2 POP PUSH2 0x14AC DUP3 PUSH2 0x146D JUMP JUMPDEST PUSH1 0x20 DUP3 ADD SWAP1 POP SWAP2 SWAP1 POP JUMP JUMPDEST PUSH0 PUSH1 0x20 DUP3 ADD SWAP1 POP DUP2 DUP2 SUB PUSH0 DUP4 ADD MSTORE PUSH2 0x14CE DUP2 PUSH2 0x1495 JUMP JUMPDEST SWAP1 POP SWAP2 SWAP1 POP JUMP JUMPDEST PUSH32 0x506F6C6C696E672068617320456E646564000000000000000000000000000000 PUSH0 DUP3 ADD MSTORE POP JUMP JUMPDEST PUSH0 PUSH2 0x1509 PUSH1 0x11 DUP4 PUSH2 0x10F7 JUMP JUMPDEST SWAP2 POP PUSH2 0x1514 DUP3 PUSH2 0x14D5 JUMP JUMPDEST PUSH1 0x20 DUP3 ADD SWAP1 POP SWAP2 SWAP1 POP JUMP JUMPDEST PUSH0 PUSH1 0x20 DUP3 ADD SWAP1 POP DUP2 DUP2 SUB PUSH0 DUP4 ADD MSTORE PUSH2 0x1536 DUP2 PUSH2 0x14FD JUMP JUMPDEST SWAP1 POP SWAP2 SWAP1 POP JUMP JUMPDEST PUSH32 0x596F75206861766520416C726561647920566F74656400000000000000000000 PUSH0 DUP3 ADD MSTORE POP JUMP JUMPDEST PUSH0 PUSH2 0x1571 PUSH1 0x16 DUP4 PUSH2 0x10F7 JUMP JUMPDEST SWAP2 POP PUSH2 0x157C DUP3 PUSH2 0x153D JUMP JUMPDEST PUSH1 0x20 DUP3 ADD SWAP1 POP SWAP2 SWAP1 POP JUMP JUMPDEST PUSH0 PUSH1 0x20 DUP3 ADD SWAP1 POP DUP2 DUP2 SUB PUSH0 DUP4 ADD MSTORE PUSH2 0x159E DUP2 PUSH2 0x1565 JUMP JUMPDEST SWAP1 POP SWAP2 SWAP1 POP JUMP JUMPDEST PUSH0 DUP2 SWAP1 POP SWAP3 SWAP2 POP POP JUMP JUMPDEST PUSH0 PUSH2 0x15B9 DUP3 PUSH2 0x10ED JUMP JUMPDEST PUSH2 0x15C3 DUP2 DUP6 PUSH2 0x15A5 JUMP JUMPDEST SWAP4 POP PUSH2 0x15D3 DUP2 DUP6 PUSH1 0x20 DUP7 ADD PUSH2 0x1107 JUMP JUMPDEST DUP1 DUP5 ADD SWAP2 POP POP SWAP3 SWAP2 POP POP JUMP JUMPDEST PUSH0 PUSH2 0x15EA DUP3 DUP5 PUSH2 0x15AF JUMP JUMPDEST SWAP2 POP DUP2 SWAP1 POP SWAP3 SWAP2 POP POP JUMP JUMPDEST PUSH32 0x496E7661696C6420566F74696E672043686F6963650000000000000000000000 PUSH0 DUP3 ADD MSTORE POP JUMP JUMPDEST PUSH0 PUSH2 0x1629 PUSH1 0x15 DUP4 PUSH2 0x10F7 JUMP JUMPDEST SWAP2 POP PUSH2 0x1634 DUP3 PUSH2 0x15F5 JUMP JUMPDEST PUSH1 0x20 DUP3 ADD SWAP1 POP SWAP2 SWAP1 POP JUMP JUMPDEST PUSH0 PUSH1 0x20 DUP3 ADD SWAP1 POP DUP2 DUP2 SUB PUSH0 DUP4 ADD MSTORE PUSH2 0x1656 DUP2 PUSH2 0x161D JUMP JUMPDEST SWAP1 POP SWAP2 SWAP1 POP JUMP JUMPDEST PUSH32 0x4E487B7100000000000000000000000000000000000000000000000000000000 PUSH0 MSTORE PUSH1 0x11 PUSH1 0x4 MSTORE PUSH1 0x24 PUSH0 REVERT JUMPDEST PUSH0 PUSH2 0x1694 DUP3 PUSH2 0xE9E JUMP JUMPDEST SWAP2 POP PUSH32 0xFFFFFFFFFFFFFFFFFFFFFFFFFFFFFFFFFFFFFFFFFFFFFFFFFFFFFFFFFFFFFFFF DUP3 SUB PUSH2 0x16C6 JUMPI PUSH2 0x16C5 PUSH2 0x165D JUMP JUMPDEST JUMPDEST PUSH1 0x1 DUP3 ADD SWAP1 POP SWAP2 SWAP1 POP JUMP JUMPDEST PUSH32 0x4E487B7100000000000000000000000000000000000000000000000000000000 PUSH0 MSTORE PUSH1 0x22 PUSH1 0x4 MSTORE PUSH1 0x24 PUSH0 REVERT JUMPDEST PUSH0 PUSH1 0x2 DUP3 DIV SWAP1 POP PUSH1 0x1 DUP3 AND DUP1 PUSH2 0x1715 JUMPI PUSH1 0x7F DUP3 AND SWAP2 POP JUMPDEST PUSH1 0x20 DUP3 LT DUP2 SUB PUSH2 0x1728 JUMPI PUSH2 0x1727 PUSH2 0x16D1 JUMP JUMPDEST JUMPDEST POP SWAP2 SWAP1 POP JUMP JUMPDEST PUSH0 DUP2 SWAP1 POP DUP2 PUSH0 MSTORE PUSH1 0x20 PUSH0 KECCAK256 SWAP1 POP SWAP2 SWAP1 POP JUMP JUMPDEST PUSH0 PUSH1 0x20 PUSH1 0x1F DUP4 ADD DIV SWAP1 POP SWAP2 SWAP1 POP JUMP JUMPDEST PUSH0 DUP3 DUP3 SHL SWAP1 POP SWAP3 SWAP2 POP POP JUMP JUMPDEST PUSH0 PUSH1 0x8 DUP4 MUL PUSH2 0x178A PUSH32 0xFFFFFFFFFFFFFFFFFFFFFFFFFFFFFFFFFFFFFFFFFFFFFFFFFFFFFFFFFFFFFFFF DUP3 PUSH2 0x174F JUMP JUMPDEST PUSH2 0x1794 DUP7 DUP4 PUSH2 0x174F JUMP JUMPDEST SWAP6 POP DUP1 NOT DUP5 AND SWAP4 POP DUP1 DUP7 AND DUP5 OR SWAP3 POP POP POP SWAP4 SWAP3 POP POP POP JUMP JUMPDEST PUSH0 DUP2 SWAP1 POP SWAP2 SWAP1 POP JUMP JUMPDEST PUSH0 PUSH2 0x17CF PUSH2 0x17CA PUSH2 0x17C5 DUP5 PUSH2 0xE9E JUMP JUMPDEST PUSH2 0x17AC JUMP JUMPDEST PUSH2 0xE9E JUMP JUMPDEST SWAP1 POP SWAP2 SWAP1 POP JUMP JUMPDEST PUSH0 DUP2 SWAP1 POP SWAP2 SWAP1 POP JUMP JUMPDEST PUSH2 0x17E8 DUP4 PUSH2 0x17B5 JUMP JUMPDEST PUSH2 0x17FC PUSH2 0x17F4 DUP3 PUSH2 0x17D6 JUMP JUMPDEST DUP5 DUP5 SLOAD PUSH2 0x175B JUMP JUMPDEST DUP3 SSTORE POP POP POP POP JUMP JUMPDEST PUSH0 SWAP1 JUMP JUMPDEST PUSH2 0x1810 PUSH2 0x1804 JUMP JUMPDEST PUSH2 0x181B DUP2 DUP5 DUP5 PUSH2 0x17DF JUMP JUMPDEST POP POP POP JUMP JUMPDEST JUMPDEST DUP2 DUP2 LT ISZERO PUSH2 0x183E JUMPI PUSH2 0x1833 PUSH0 DUP3 PUSH2 0x1808 JUMP JUMPDEST PUSH1 0x1 DUP2 ADD SWAP1 POP PUSH2 0x1821 JUMP JUMPDEST POP POP JUMP JUMPDEST PUSH1 0x1F DUP3 GT ISZERO PUSH2 0x1883 JUMPI PUSH2 0x1854 DUP2 PUSH2 0x172E JUMP JUMPDEST PUSH2 0x185D DUP5 PUSH2 0x1740 JUMP JUMPDEST DUP2 ADD PUSH1 0x20 DUP6 LT ISZERO PUSH2 0x186C JUMPI DUP2 SWAP1 POP JUMPDEST PUSH2 0x1880 PUSH2 0x1878 DUP6 PUSH2 0x1740 JUMP JUMPDEST DUP4 ADD DUP3 PUSH2 0x1820 JUMP JUMPDEST POP POP JUMPDEST POP POP POP JUMP JUMPDEST PUSH0 DUP3 DUP3 SHR SWAP1 POP SWAP3 SWAP2 POP POP JUMP JUMPDEST PUSH0 PUSH2 0x18A3 PUSH0 NOT DUP5 PUSH1 0x8 MUL PUSH2 0x1888 JUMP JUMPDEST NOT DUP1 DUP4 AND SWAP2 POP POP SWAP3 SWAP2 POP POP JUMP JUMPDEST PUSH0 PUSH2 0x18BB DUP4 DUP4 PUSH2 0x1894 JUMP JUMPDEST SWAP2 POP DUP3 PUSH1 0x2 MUL DUP3 OR SWAP1 POP SWAP3 SWAP2 POP POP JUMP JUMPDEST PUSH2 0x18D4 DUP3 PUSH2 0x10ED JUMP JUMPDEST PUSH8 0xFFFFFFFFFFFFFFFF DUP2 GT ISZERO PUSH2 0x18ED JUMPI PUSH2 0x18EC PUSH2 0xEE9 JUMP JUMPDEST JUMPDEST PUSH2 0x18F7 DUP3 SLOAD PUSH2 0x16FE JUMP JUMPDEST PUSH2 0x1902 DUP3 DUP3 DUP6 PUSH2 0x1842 JUMP JUMPDEST PUSH0 PUSH1 0x20 SWAP1 POP PUSH1 0x1F DUP4 GT PUSH1 0x1 DUP2 EQ PUSH2 0x1933 JUMPI PUSH0 DUP5 ISZERO PUSH2 0x1921 JUMPI DUP3 DUP8 ADD MLOAD SWAP1 POP JUMPDEST PUSH2 0x192B DUP6 DUP3 PUSH2 0x18B0 JUMP JUMPDEST DUP7 SSTORE POP PUSH2 0x1992 JUMP JUMPDEST PUSH1 0x1F NOT DUP5 AND PUSH2 0x1941 DUP7 PUSH2 0x172E JUMP JUMPDEST PUSH0 JUMPDEST DUP3 DUP2 LT ISZERO PUSH2 0x1968 JUMPI DUP5 DUP10 ADD MLOAD DUP3 SSTORE PUSH1 0x1 DUP3 ADD SWAP2 POP PUSH1 0x20 DUP6 ADD SWAP5 POP PUSH1 0x20 DUP2 ADD SWAP1 POP PUSH2 0x1943 JUMP JUMPDEST DUP7 DUP4 LT ISZERO PUSH2 0x1985 JUMPI DUP5 DUP10 ADD MLOAD PUSH2 0x1981 PUSH1 0x1F DUP10 AND DUP3 PUSH2 0x1894 JUMP JUMPDEST DUP4 SSTORE POP JUMPDEST PUSH1 0x1 PUSH1 0x2 DUP9 MUL ADD DUP9 SSTORE POP POP POP JUMPDEST POP POP POP POP POP POP JUMP JUMPDEST PUSH0 PUSH1 0x40 DUP3 ADD SWAP1 POP DUP2 DUP2 SUB PUSH0 DUP4 ADD MSTORE PUSH2 0x19B2 DUP2 DUP6 PUSH2 0x1115 JUMP JUMPDEST SWAP1 POP PUSH2 0x19C1 PUSH1 0x20 DUP4 ADD DUP5 PUSH2 0x1067 JUMP JUMPDEST SWAP4 SWAP3 POP POP POP JUMP JUMPDEST PUSH32 0x4F6E6C792041646D696E2043616E206372656174652054686973204F70657261 PUSH0 DUP3 ADD MSTORE PUSH32 0x74696F6E73000000000000000000000000000000000000000000000000000000 PUSH1 0x20 DUP3 ADD MSTORE POP JUMP JUMPDEST PUSH0 PUSH2 0x1A22 PUSH1 0x25 DUP4 PUSH2 0x10F7 JUMP JUMPDEST SWAP2 POP PUSH2 0x1A2D DUP3 PUSH2 0x19C8 JUMP JUMPDEST PUSH1 0x40 DUP3 ADD SWAP1 POP SWAP2 SWAP1 POP JUMP JUMPDEST PUSH0 PUSH1 0x20 DUP3 ADD SWAP1 POP DUP2 DUP2 SUB PUSH0 DUP4 ADD MSTORE PUSH2 0x1A4F DUP2 PUSH2 0x1A16 JUMP JUMPDEST SWAP1 POP SWAP2 SWAP1 POP JUMP JUMPDEST PUSH32 0x4475726174696F6E206D757374207665206772656174686572205468616E2030 PUSH0 DUP3 ADD MSTORE POP JUMP JUMPDEST PUSH0 PUSH2 0x1A8A PUSH1 0x20 DUP4 PUSH2 0x10F7 JUMP JUMPDEST SWAP2 POP PUSH2 0x1A95 DUP3 PUSH2 0x1A56 JUMP JUMPDEST PUSH1 0x20 DUP3 ADD SWAP1 POP SWAP2 SWAP1 POP JUMP JUMPDEST PUSH0 PUSH1 0x20 DUP3 ADD SWAP1 POP DUP2 DUP2 SUB PUSH0 DUP4 ADD MSTORE PUSH2 0x1AB7 DUP2 PUSH2 0x1A7E JUMP JUMPDEST SWAP1 POP SWAP2 SWAP1 POP JUMP JUMPDEST PUSH32 0x5F7469746C65206D757374207665206772656174686572205468616E20330000 PUSH0 DUP3 ADD MSTORE POP JUMP JUMPDEST PUSH0 PUSH2 0x1AF2 PUSH1 0x1E DUP4 PUSH2 0x10F7 JUMP JUMPDEST SWAP2 POP PUSH2 0x1AFD DUP3 PUSH2 0x1ABE JUMP JUMPDEST PUSH1 0x20 DUP3 ADD SWAP1 POP SWAP2 SWAP1 POP JUMP JUMPDEST PUSH0 PUSH1 0x20 DUP3 ADD SWAP1 POP DUP2 DUP2 SUB PUSH0 DUP4 ADD MSTORE PUSH2 0x1B1F DUP2 PUSH2 0x1AE6 JUMP JUMPDEST SWAP1 POP SWAP2 SWAP1 POP JUMP JUMPDEST PUSH32 0x5F696D61676548617368206D757374207665206772656174686572205468616E PUSH0 DUP3 ADD MSTORE PUSH32 0x2033000000000000000000000000000000000000000000000000000000000000 PUSH1 0x20 DUP3 ADD MSTORE POP JUMP JUMPDEST PUSH0 PUSH2 0x1B80 PUSH1 0x22 DUP4 PUSH2 0x10F7 JUMP JUMPDEST SWAP2 POP PUSH2 0x1B8B DUP3 PUSH2 0x1B26 JUMP JUMPDEST PUSH1 0x40 DUP3 ADD SWAP1 POP SWAP2 SWAP1 POP JUMP JUMPDEST PUSH0 PUSH1 0x20 DUP3 ADD SWAP1 POP DUP2 DUP2 SUB PUSH0 DUP4 ADD MSTORE PUSH2 0x1BAD DUP2 PUSH2 0x1B74 JUMP JUMPDEST SWAP1 POP SWAP2 SWAP1 POP JUMP JUMPDEST PUSH32 0x5F6465736372697074696F6E206D757374207665206772656174686572205468 PUSH0 DUP3 ADD MSTORE PUSH32 0x616E203300000000000000000000000000000000000000000000000000000000 PUSH1 0x20 DUP3 ADD MSTORE POP JUMP JUMPDEST PUSH0 PUSH2 0x1C0E PUSH1 0x24 DUP4 PUSH2 0x10F7 JUMP JUMPDEST SWAP2 POP PUSH2 0x1C19 DUP3 PUSH2 0x1BB4 JUMP JUMPDEST PUSH1 0x40 DUP3 ADD SWAP1 POP SWAP2 SWAP1 POP JUMP JUMPDEST PUSH0 PUSH1 0x20 DUP3 ADD SWAP1 POP DUP2 DUP2 SUB PUSH0 DUP4 ADD MSTORE PUSH2 0x1C3B DUP2 PUSH2 0x1C02 JUMP JUMPDEST SWAP1 POP SWAP2 SWAP1 POP JUMP JUMPDEST PUSH0 PUSH2 0x1C4C DUP3 PUSH2 0xE9E JUMP JUMPDEST SWAP2 POP PUSH2 0x1C57 DUP4 PUSH2 0xE9E JUMP JUMPDEST SWAP3 POP DUP3 DUP3 ADD SWAP1 POP DUP1 DUP3 GT ISZERO PUSH2 0x1C6F JUMPI PUSH2 0x1C6E PUSH2 0x165D JUMP JUMPDEST JUMPDEST SWAP3 SWAP2 POP POP JUMP JUMPDEST PUSH0 PUSH1 0x60 DUP3 ADD SWAP1 POP DUP2 DUP2 SUB PUSH0 DUP4 ADD MSTORE PUSH2 0x1C8D DUP2 DUP7 PUSH2 0x1115 JUMP JUMPDEST SWAP1 POP PUSH2 0x1C9C PUSH1 0x20 DUP4 ADD DUP6 PUSH2 0x1067 JUMP JUMPDEST PUSH2 0x1CA9 PUSH1 0x40 DUP4 ADD DUP5 PUSH2 0x1067 JUMP JUMPDEST SWAP5 SWAP4 POP POP POP POP JUMP INVALID LOG2 PUSH5 0x6970667358 0x22 SLT KECCAK256 0xAB 0xB1 0xC PUSH24 0x9410EA26B848FEEEE3F852E95264F92AF6AE69F7C48AC3E8 0xBE PUSH21 0x8D0C64736F6C634300081A00330000000000000000 "
		},
		"gasEstimates": {
			"creation": {
				"codeDepositCost": "1479800",
				"executionCost": "25811",
				"totalCost": "1505611"
			},
			"external": {
				"admin()": "2552",
				"createPoll(string,uint256,string,string)": "infinite",
				"getPollDetailes(uint256)": "infinite",
				"getVotes(uint256)": "infinite",
				"pollExpirationStatus(uint256)": "2831",
				"pollingIdCounter()": "2460",
				"vote(uint256,string)": "infinite"
			}
		},
		"methodIdentifiers": {
			"admin()": "f851a440",
			"createPoll(string,uint256,string,string)": "8cb0f49d",
			"getPollDetailes(uint256)": "648a2e92",
			"getVotes(uint256)": "ff981099",
			"pollExpirationStatus(uint256)": "5c3d868f",
			"pollingIdCounter()": "4248bcf3",
			"vote(uint256,string)": "24108475"
		}
	},
	"abi": [
		{
			"inputs": [],
			"stateMutability": "nonpayable",
			"type": "constructor"
		},
		{
			"anonymous": false,
			"inputs": [
				{
					"indexed": true,
					"internalType": "uint256",
					"name": "pollingId",
					"type": "uint256"
				},
				{
					"indexed": true,
					"internalType": "address",
					"name": "voter",
					"type": "address"
				},
				{
					"indexed": false,
					"internalType": "string",
					"name": "choice",
					"type": "string"
				},
				{
					"indexed": false,
					"internalType": "uint256",
					"name": "createdAt",
					"type": "uint256"
				}
			],
			"name": "Voted",
			"type": "event"
		},
		{
			"anonymous": false,
			"inputs": [
				{
					"indexed": true,
					"internalType": "uint256",
					"name": "pollingId",
					"type": "uint256"
				},
				{
					"indexed": false,
					"internalType": "string",
					"name": "title",
					"type": "string"
				},
				{
					"indexed": false,
					"internalType": "uint256",
					"name": "expirationDate",
					"type": "uint256"
				},
				{
					"indexed": false,
					"internalType": "uint256",
					"name": "createdAt",
					"type": "uint256"
				}
			],
			"name": "pollingCreated",
			"type": "event"
		},
		{
			"inputs": [],
			"name": "admin",
			"outputs": [
				{
					"internalType": "address",
					"name": "",
					"type": "address"
				}
			],
			"stateMutability": "view",
			"type": "function"
		},
		{
			"inputs": [
				{
					"internalType": "string",
					"name": "_title",
					"type": "string"
				},
				{
					"internalType": "uint256",
					"name": "_durationInSecond",
					"type": "uint256"
				},
				{
					"internalType": "string",
					"name": "_imageHash",
					"type": "string"
				},
				{
					"internalType": "string",
					"name": "_description",
					"type": "string"
				}
			],
			"name": "createPoll",
			"outputs": [],
			"stateMutability": "nonpayable",
			"type": "function"
		},
		{
			"inputs": [
				{
					"internalType": "uint256",
					"name": "_id",
					"type": "uint256"
				}
			],
			"name": "getPollDetailes",
			"outputs": [
				{
					"internalType": "string",
					"name": "title",
					"type": "string"
				},
				{
					"internalType": "uint256",
					"name": "expirationDate",
					"type": "uint256"
				},
				{
					"internalType": "string",
					"name": "imageHash",
					"type": "string"
				},
				{
					"internalType": "string",
					"name": "description",
					"type": "string"
				},
				{
					"internalType": "uint256",
					"name": "rejectVotes",
					"type": "uint256"
				},
				{
					"internalType": "uint256",
					"name": "acceptVotes",
					"type": "uint256"
				},
				{
					"internalType": "uint256",
					"name": "notInterestedVotes",
					"type": "uint256"
				}
			],
			"stateMutability": "view",
			"type": "function"
		},
		{
			"inputs": [
				{
					"internalType": "uint256",
					"name": "pollingId",
					"type": "uint256"
				}
			],
			"name": "getVotes",
			"outputs": [
				{
					"components": [
						{
							"internalType": "address",
							"name": "voter",
							"type": "address"
						},
						{
							"internalType": "string",
							"name": "choice",
							"type": "string"
						},
						{
							"internalType": "uint256",
							"name": "time",
							"type": "uint256"
						}
					],
					"internalType": "struct VoteDao.Vote[]",
					"name": "",
					"type": "tuple[]"
				}
			],
			"stateMutability": "view",
			"type": "function"
		},
		{
			"inputs": [
				{
					"internalType": "uint256",
					"name": "pollingId",
					"type": "uint256"
				}
			],
			"name": "pollExpirationStatus",
			"outputs": [
				{
					"internalType": "bool",
					"name": "",
					"type": "bool"
				}
			],
			"stateMutability": "view",
			"type": "function"
		},
		{
			"inputs": [],
			"name": "pollingIdCounter",
			"outputs": [
				{
					"internalType": "uint256",
					"name": "_value",
					"type": "uint256"
				}
			],
			"stateMutability": "view",
			"type": "function"
		},
		{
			"inputs": [
				{
					"internalType": "uint256",
					"name": "pollingId",
					"type": "uint256"
				},
				{
					"internalType": "string",
					"name": "_choice",
					"type": "string"
				}
			],
			"name": "vote",
			"outputs": [],
			"stateMutability": "nonpayable",
			"type": "function"
		}
	]
}